{
  "contractName": "CustomOracle",
  "abi": [
    {
      "constant": true,
      "inputs": [],
      "name": "blocksPeriod",
      "outputs": [
        {
          "name": "",
          "type": "uint256"
        }
      ],
      "payable": false,
      "stateMutability": "view",
      "type": "function"
    },
    {
      "constant": true,
      "inputs": [],
      "name": "aluminumPrice",
      "outputs": [
        {
          "name": "",
          "type": "uint256"
        }
      ],
      "payable": false,
      "stateMutability": "view",
      "type": "function"
    },
    {
      "constant": true,
      "inputs": [],
      "name": "gasLimitHigh",
      "outputs": [
        {
          "name": "",
          "type": "uint256"
        }
      ],
      "payable": false,
      "stateMutability": "view",
      "type": "function"
    },
    {
      "constant": true,
      "inputs": [
        {
          "name": "account",
          "type": "address"
        }
      ],
      "name": "isAdmin",
      "outputs": [
        {
          "name": "",
          "type": "bool"
        }
      ],
      "payable": false,
      "stateMutability": "view",
      "type": "function"
    },
    {
      "constant": true,
      "inputs": [],
      "name": "priceEthMin",
      "outputs": [
        {
          "name": "",
          "type": "uint256"
        }
      ],
      "payable": false,
      "stateMutability": "view",
      "type": "function"
    },
    {
      "constant": false,
      "inputs": [],
      "name": "unpause",
      "outputs": [],
      "payable": false,
      "stateMutability": "nonpayable",
      "type": "function"
    },
    {
      "constant": true,
      "inputs": [],
      "name": "priceEthMax",
      "outputs": [
        {
          "name": "",
          "type": "uint256"
        }
      ],
      "payable": false,
      "stateMutability": "view",
      "type": "function"
    },
    {
      "constant": true,
      "inputs": [],
      "name": "dateTime",
      "outputs": [
        {
          "name": "",
          "type": "string"
        }
      ],
      "payable": false,
      "stateMutability": "view",
      "type": "function"
    },
    {
      "constant": true,
      "inputs": [],
      "name": "rangeEthPrice",
      "outputs": [
        {
          "name": "",
          "type": "uint256"
        }
      ],
      "payable": false,
      "stateMutability": "view",
      "type": "function"
    },
    {
      "constant": true,
      "inputs": [],
      "name": "rateUSDEUR",
      "outputs": [
        {
          "name": "",
          "type": "uint256"
        }
      ],
      "payable": false,
      "stateMutability": "view",
      "type": "function"
    },
    {
      "constant": true,
      "inputs": [],
      "name": "rateETHEUR",
      "outputs": [
        {
          "name": "",
          "type": "uint256"
        }
      ],
      "payable": false,
      "stateMutability": "view",
      "type": "function"
    },
    {
      "constant": true,
      "inputs": [],
      "name": "paused",
      "outputs": [
        {
          "name": "",
          "type": "bool"
        }
      ],
      "payable": false,
      "stateMutability": "view",
      "type": "function"
    },
    {
      "constant": true,
      "inputs": [],
      "name": "gasLimitLow",
      "outputs": [
        {
          "name": "",
          "type": "uint256"
        }
      ],
      "payable": false,
      "stateMutability": "view",
      "type": "function"
    },
    {
      "constant": false,
      "inputs": [
        {
          "name": "account",
          "type": "address"
        }
      ],
      "name": "addAdmin",
      "outputs": [],
      "payable": false,
      "stateMutability": "nonpayable",
      "type": "function"
    },
    {
      "constant": false,
      "inputs": [],
      "name": "pause",
      "outputs": [],
      "payable": false,
      "stateMutability": "nonpayable",
      "type": "function"
    },
    {
      "constant": false,
      "inputs": [],
      "name": "renounceAdmin",
      "outputs": [],
      "payable": false,
      "stateMutability": "nonpayable",
      "type": "function"
    },
    {
      "constant": true,
      "inputs": [],
      "name": "owner",
      "outputs": [
        {
          "name": "",
          "type": "address"
        }
      ],
      "payable": false,
      "stateMutability": "view",
      "type": "function"
    },
    {
      "constant": true,
      "inputs": [
        {
          "name": "",
          "type": "uint256"
        }
      ],
      "name": "packaging",
      "outputs": [
        {
          "name": "pointsPerPack",
          "type": "uint256"
        },
        {
          "name": "pointsMin",
          "type": "uint256"
        },
        {
          "name": "pointsMax",
          "type": "uint256"
        },
        {
          "name": "priceMin",
          "type": "uint256"
        },
        {
          "name": "priceMax",
          "type": "uint256"
        }
      ],
      "payable": false,
      "stateMutability": "view",
      "type": "function"
    },
    {
      "constant": true,
      "inputs": [],
      "name": "prevBlock",
      "outputs": [
        {
          "name": "",
          "type": "uint256"
        }
      ],
      "payable": false,
      "stateMutability": "view",
      "type": "function"
    },
    {
      "constant": true,
      "inputs": [],
      "name": "petPrice",
      "outputs": [
        {
          "name": "",
          "type": "uint256"
        }
      ],
      "payable": false,
      "stateMutability": "view",
      "type": "function"
    },
    {
      "constant": true,
      "inputs": [],
      "name": "countQueryInProgress",
      "outputs": [
        {
          "name": "",
          "type": "uint256"
        }
      ],
      "payable": false,
      "stateMutability": "view",
      "type": "function"
    },
    {
      "constant": true,
      "inputs": [],
      "name": "randomNumber",
      "outputs": [
        {
          "name": "",
          "type": "uint256"
        }
      ],
      "payable": false,
      "stateMutability": "view",
      "type": "function"
    },
    {
      "constant": true,
      "inputs": [],
      "name": "oilPrice",
      "outputs": [
        {
          "name": "",
          "type": "uint256"
        }
      ],
      "payable": false,
      "stateMutability": "view",
      "type": "function"
    },
    {
      "constant": true,
      "inputs": [],
      "name": "blocksRequest",
      "outputs": [
        {
          "name": "",
          "type": "uint256"
        }
      ],
      "payable": false,
      "stateMutability": "view",
      "type": "function"
    },
    {
      "constant": true,
      "inputs": [],
      "name": "gasLimitMed",
      "outputs": [
        {
          "name": "",
          "type": "uint256"
        }
      ],
      "payable": false,
      "stateMutability": "view",
      "type": "function"
    },
    {
      "inputs": [],
      "payable": true,
      "stateMutability": "payable",
      "type": "constructor"
    },
    {
      "payable": true,
      "stateMutability": "payable",
      "type": "fallback"
    },
    {
      "anonymous": false,
      "inputs": [
        {
          "indexed": true,
          "name": "myAddress",
          "type": "address"
        },
        {
          "indexed": false,
          "name": "description",
          "type": "string"
        }
      ],
      "name": "LogNewProvableQuery",
      "type": "event"
    },
    {
      "anonymous": false,
      "inputs": [
        {
          "indexed": true,
          "name": "myAddress",
          "type": "address"
        },
        {
          "indexed": false,
          "name": "description",
          "type": "string"
        },
        {
          "indexed": false,
          "name": "value",
          "type": "string"
        }
      ],
      "name": "generateNewValue",
      "type": "event"
    },
    {
      "anonymous": false,
      "inputs": [
        {
          "indexed": true,
          "name": "myAddress",
          "type": "address"
        },
        {
          "indexed": false,
          "name": "randomNumber",
          "type": "uint256"
        }
      ],
      "name": "generatedRandomNumber",
      "type": "event"
    },
    {
      "anonymous": false,
      "inputs": [
        {
          "indexed": true,
          "name": "myAddress",
          "type": "address"
        },
        {
          "indexed": false,
          "name": "currentDateTime",
          "type": "string"
        }
      ],
      "name": "currentDateTime",
      "type": "event"
    },
    {
      "anonymous": false,
      "inputs": [
        {
          "indexed": true,
          "name": "myAddress",
          "type": "address"
        },
        {
          "indexed": false,
          "name": "packaging",
          "type": "string"
        },
        {
          "indexed": false,
          "name": "points",
          "type": "uint256"
        }
      ],
      "name": "newPointsReward",
      "type": "event"
    },
    {
      "anonymous": false,
      "inputs": [
        {
          "indexed": true,
          "name": "myAddress",
          "type": "address"
        },
        {
          "indexed": false,
          "name": "ind",
          "type": "uint256"
        },
        {
          "indexed": false,
          "name": "points",
          "type": "uint256"
        },
        {
          "indexed": false,
          "name": "pointsMin",
          "type": "uint256"
        },
        {
          "indexed": false,
          "name": "pointsMax",
          "type": "uint256"
        },
        {
          "indexed": false,
          "name": "priceMin",
          "type": "uint256"
        },
        {
          "indexed": false,
          "name": "priceMax",
          "type": "uint256"
        }
      ],
      "name": "packagingUpdate",
      "type": "event"
    },
    {
      "anonymous": false,
      "inputs": [
        {
          "indexed": true,
          "name": "myAddress",
          "type": "address"
        }
      ],
      "name": "packagingFullUpdate",
      "type": "event"
    },
    {
      "anonymous": false,
      "inputs": [
        {
          "indexed": true,
          "name": "myAddress",
          "type": "address"
        },
        {
          "indexed": false,
          "name": "priceEthMin",
          "type": "uint256"
        },
        {
          "indexed": false,
          "name": "priceEthMax",
          "type": "uint256"
        }
      ],
      "name": "ethPriceUpdate",
      "type": "event"
    },
    {
      "anonymous": false,
      "inputs": [
        {
          "indexed": true,
          "name": "myAddress",
          "type": "address"
        },
        {
          "indexed": false,
          "name": "gasLimitLow",
          "type": "uint256"
        },
        {
          "indexed": false,
          "name": "gasLimitMed",
          "type": "uint256"
        },
        {
          "indexed": false,
          "name": "gasLimitHigh",
          "type": "uint256"
        }
      ],
      "name": "limitGasUpdate",
      "type": "event"
    },
    {
      "anonymous": false,
      "inputs": [
        {
          "indexed": true,
          "name": "myAddress",
          "type": "address"
        },
        {
          "indexed": false,
          "name": "blocksPeriod",
          "type": "uint256"
        }
      ],
      "name": "blockPeriodUpdate",
      "type": "event"
    },
    {
      "anonymous": false,
      "inputs": [
        {
          "indexed": true,
          "name": "myAddress",
          "type": "address"
        },
        {
          "indexed": false,
          "name": "blocksRequest",
          "type": "uint256"
        }
      ],
      "name": "blockRequestUpdate",
      "type": "event"
    },
    {
      "anonymous": false,
      "inputs": [
        {
          "indexed": true,
          "name": "myAddress",
          "type": "address"
        }
      ],
      "name": "otherValuesFullUpdate",
      "type": "event"
    },
    {
      "anonymous": false,
      "inputs": [
        {
          "indexed": false,
          "name": "account",
          "type": "address"
        }
      ],
      "name": "Paused",
      "type": "event"
    },
    {
      "anonymous": false,
      "inputs": [
        {
          "indexed": false,
          "name": "account",
          "type": "address"
        }
      ],
      "name": "Unpaused",
      "type": "event"
    },
    {
      "anonymous": false,
      "inputs": [
        {
          "indexed": true,
          "name": "account",
          "type": "address"
        }
      ],
      "name": "AdminAdded",
      "type": "event"
    },
    {
      "anonymous": false,
      "inputs": [
        {
          "indexed": true,
          "name": "account",
          "type": "address"
        }
      ],
      "name": "AdminRemoved",
      "type": "event"
    },
    {
      "constant": true,
      "inputs": [
        {
          "name": "_pack1Qty",
          "type": "uint256"
        },
        {
          "name": "_pack2Qty",
          "type": "uint256"
        },
        {
          "name": "_pack3Qty",
          "type": "uint256"
        }
      ],
      "name": "calculatePoints",
      "outputs": [
        {
          "name": "_totalPoints",
          "type": "uint256"
        }
      ],
      "payable": false,
      "stateMutability": "view",
      "type": "function"
    },
    {
      "constant": true,
      "inputs": [],
      "name": "getPointsPerPack",
      "outputs": [
        {
          "name": "_pointsPack1",
          "type": "uint256"
        },
        {
          "name": "_pointsPack2",
          "type": "uint256"
        },
        {
          "name": "_pointsPack3",
          "type": "uint256"
        }
      ],
      "payable": false,
      "stateMutability": "view",
      "type": "function"
    },
    {
      "constant": true,
      "inputs": [
        {
          "name": "_ind",
          "type": "uint256"
        }
      ],
      "name": "getValuesPerPack",
      "outputs": [
        {
          "name": "_pointsPerPack",
          "type": "uint256"
        },
        {
          "name": "_pointsMin",
          "type": "uint256"
        },
        {
          "name": "_pointsMax",
          "type": "uint256"
        },
        {
          "name": "_priceMin",
          "type": "uint256"
        },
        {
          "name": "_priceMax",
          "type": "uint256"
        }
      ],
      "payable": false,
      "stateMutability": "view",
      "type": "function"
    },
    {
      "constant": true,
      "inputs": [],
      "name": "getEthValues",
      "outputs": [
        {
          "name": "_priceMin",
          "type": "uint256"
        },
        {
          "name": "_priceMax",
          "type": "uint256"
        }
      ],
      "payable": false,
      "stateMutability": "view",
      "type": "function"
    },
    {
      "constant": true,
      "inputs": [],
      "name": "getOtherValues",
      "outputs": [
        {
          "name": "_blocksPeriod",
          "type": "uint256"
        },
        {
          "name": "_blocksRequest",
          "type": "uint256"
        },
        {
          "name": "_gasLimitLow",
          "type": "uint256"
        },
        {
          "name": "_gasLimitMed",
          "type": "uint256"
        },
        {
          "name": "_gasLimitHigh",
          "type": "uint256"
        }
      ],
      "payable": false,
      "stateMutability": "view",
      "type": "function"
    },
    {
      "constant": false,
      "inputs": [
        {
          "name": "_blocksPeriod",
          "type": "uint256"
        },
        {
          "name": "_blocksRequest",
          "type": "uint256"
        },
        {
          "name": "_gasLimitLow",
          "type": "uint256"
        },
        {
          "name": "_gasLimitMed",
          "type": "uint256"
        },
        {
          "name": "_gasLimitHigh",
          "type": "uint256"
        }
      ],
      "name": "setOtherValues",
      "outputs": [],
      "payable": false,
      "stateMutability": "nonpayable",
      "type": "function"
    },
    {
      "constant": false,
      "inputs": [
        {
          "name": "_ind",
          "type": "uint256"
        },
        {
          "name": "_pointsMin",
          "type": "uint256"
        },
        {
          "name": "_pointsMax",
          "type": "uint256"
        },
        {
          "name": "_priceMin",
          "type": "uint256"
        },
        {
          "name": "_priceMax",
          "type": "uint256"
        }
      ],
      "name": "setPointsPerPackaging",
      "outputs": [],
      "payable": false,
      "stateMutability": "nonpayable",
      "type": "function"
    },
    {
      "constant": false,
      "inputs": [
        {
          "name": "_pointsMin1",
          "type": "uint256"
        },
        {
          "name": "_pointsMax1",
          "type": "uint256"
        },
        {
          "name": "_pointsMin2",
          "type": "uint256"
        },
        {
          "name": "_pointsMax2",
          "type": "uint256"
        },
        {
          "name": "_pointsMin3",
          "type": "uint256"
        },
        {
          "name": "_pointsMax3",
          "type": "uint256"
        },
        {
          "name": "_priceMinPet",
          "type": "uint256"
        },
        {
          "name": "_priceMaxPet",
          "type": "uint256"
        },
        {
          "name": "_priceMinAlu",
          "type": "uint256"
        },
        {
          "name": "_priceMaxAlu",
          "type": "uint256"
        }
      ],
      "name": "setPointsPackaging",
      "outputs": [],
      "payable": false,
      "stateMutability": "nonpayable",
      "type": "function"
    },
    {
      "constant": false,
      "inputs": [
        {
          "name": "_priceEthMin",
          "type": "uint256"
        },
        {
          "name": "_priceEthMax",
          "type": "uint256"
        }
      ],
      "name": "setRangeEthPrice",
      "outputs": [],
      "payable": false,
      "stateMutability": "nonpayable",
      "type": "function"
    },
    {
      "constant": false,
      "inputs": [],
      "name": "checkNextProcess",
      "outputs": [],
      "payable": false,
      "stateMutability": "nonpayable",
      "type": "function"
    },
    {
      "constant": false,
      "inputs": [
        {
          "name": "_myid",
          "type": "bytes32"
        },
        {
          "name": "_result",
          "type": "string"
        },
        {
          "name": "_proof",
          "type": "bytes"
        }
      ],
      "name": "__callback",
      "outputs": [],
      "payable": false,
      "stateMutability": "nonpayable",
      "type": "function"
    },
    {
      "constant": false,
      "inputs": [
        {
          "name": "_queryId",
          "type": "bytes32"
        },
        {
          "name": "_result",
          "type": "string"
        }
      ],
      "name": "__callback",
      "outputs": [],
      "payable": false,
      "stateMutability": "nonpayable",
      "type": "function"
    },
    {
      "constant": false,
      "inputs": [
        {
          "name": "_min",
          "type": "uint256"
        },
        {
          "name": "_max",
          "type": "uint256"
        }
      ],
      "name": "newRandomRequest",
      "outputs": [],
      "payable": false,
      "stateMutability": "nonpayable",
      "type": "function"
    },
    {
      "constant": false,
      "inputs": [
        {
          "name": "_amount",
          "type": "uint256"
        }
      ],
      "name": "newUsdEurRateRequest",
      "outputs": [],
      "payable": false,
      "stateMutability": "nonpayable",
      "type": "function"
    },
    {
      "constant": false,
      "inputs": [],
      "name": "newOilPriceRequest",
      "outputs": [],
      "payable": false,
      "stateMutability": "nonpayable",
      "type": "function"
    },
    {
      "constant": false,
      "inputs": [],
      "name": "getCurrentDateTime",
      "outputs": [],
      "payable": false,
      "stateMutability": "nonpayable",
      "type": "function"
    },
    {
      "constant": false,
      "inputs": [
        {
          "name": "_message",
          "type": "string"
        }
      ],
      "name": "setFunds",
      "outputs": [
        {
          "name": "",
          "type": "string"
        }
      ],
      "payable": true,
      "stateMutability": "payable",
      "type": "function"
    },
    {
      "constant": false,
      "inputs": [
        {
          "name": "_amount",
          "type": "uint256"
        }
      ],
      "name": "transfer",
      "outputs": [],
      "payable": false,
      "stateMutability": "nonpayable",
      "type": "function"
    },
    {
      "constant": true,
      "inputs": [],
      "name": "getContractBalance",
      "outputs": [
        {
          "name": "",
          "type": "uint256"
        }
      ],
      "payable": false,
      "stateMutability": "view",
      "type": "function"
    }
  ],
  "bytecode": "0x60806040526200002a6200001b64010000000062000080810204565b64010000000062000084810204565b6006805460ff19169055602f8054600160a060020a03191633179055620249f0602a5562030d40602b556205cc60602c55619c40602d55611770602e556200007a640100000000620000d6810204565b620002a0565b3390565b6200009f600582640100000000620045636200013982021704565b604051600160a060020a038216907f44d6d25963f097ad14f29f06854a01f575648a1ef82f30e562ccd3889717e33990600090a250565b60005b60038110156200013657600160178260038110620000f357fe5b60050201556001601782600381106200010857fe5b600502016001018190555060016017826003811015156200012557fe5b6005020160020155600101620000d9565b50565b6200014e8282640100000000620001e0810204565b15620001bb57604080517f08c379a000000000000000000000000000000000000000000000000000000000815260206004820152601f60248201527f526f6c65733a206163636f756e7420616c72656164792068617320726f6c6500604482015290519081900360640190fd5b600160a060020a0316600090815260209190915260409020805460ff19166001179055565b6000600160a060020a03821615156200028057604080517f08c379a000000000000000000000000000000000000000000000000000000000815260206004820152602260248201527f526f6c65733a206163636f756e7420697320746865207a65726f20616464726560448201527f7373000000000000000000000000000000000000000000000000000000000000606482015290519081900360840190fd5b50600160a060020a03166000908152602091909152604090205460ff1690565b6150f780620002b06000396000f3fe6080604052600436106101f95760e060020a600035046262870f8114610249578063123056461461027c57806312514bba146102a35780631740088c146102cf578063248a3b36146102e457806324d7806c146102f957806327dc297e14610340578063306b82f9146103fa57806338bbfa501461040f5780633f4ba83a14610550578063484538971461056557806348c8cd411461057a5780634a8198e6146106045780635004b95914610619578063568ff86d1461066e57806356aa595f146106835780635c975abb14610698578063617fa7b6146106ad57806366f50177146106c25780636a00fd81146106ec5780636f9fb98a1461074f57806370480275146107645780638456cb591461079757806388d82561146107ac5780638977a604146107c15780638bad0c0a146107f15780638da5cb5b1461080657806390e2cc33146108375780639d129afd14610861578063aa6d1d7914610876578063acd804f4146108a6578063b9f6a7b2146108e8578063bd42115f14610916578063c11044ca1461092b578063c95803a814610940578063ccbac9f514610982578063cf222b5914610997578063d0c8425f14610a3d578063db09bded14610a52578063e055aeeb14610a67578063e702531e14610a9d578063ebeb727f14610ab2578063f06b0f7014610ac7578063ffed124514610adc575b6040805160e560020a62461bcd02815260206004820152601160248201527f46616c6c6261636b2066756e6374696f6e000000000000000000000000000000604482015290519081900360640190fd5b34801561025557600080fd5b5061025e610af1565b60408051938452602084019290925282820152519081900360600190f35b34801561028857600080fd5b50610291610b01565b60408051918252519081900360200190f35b3480156102af57600080fd5b506102cd600480360360208110156102c657600080fd5b5035610b07565b005b3480156102db57600080fd5b50610291610c0c565b3480156102f057600080fd5b50610291610c12565b34801561030557600080fd5b5061032c6004803603602081101561031c57600080fd5b5035600160a060020a0316610c18565b604080519115158252519081900360200190f35b34801561034c57600080fd5b506102cd6004803603604081101561036357600080fd5b8135919081019060408101602082013564010000000081111561038557600080fd5b82018360208201111561039757600080fd5b803590602001918460018302840111640100000000831117156103b957600080fd5b91908080601f016020809104026020016040519081016040528093929190818152602001838380828437600092019190915250929550610c33945050505050565b34801561040657600080fd5b50610291611516565b34801561041b57600080fd5b506102cd6004803603606081101561043257600080fd5b8135919081019060408101602082013564010000000081111561045457600080fd5b82018360208201111561046657600080fd5b8035906020019184600183028401116401000000008311171561048857600080fd5b91908080601f01602080910402602001604051908101604052809392919081815260200183838082843760009201919091525092959493602081019350359150506401000000008111156104db57600080fd5b8201836020820111156104ed57600080fd5b8035906020019184600183028401116401000000008311171561050f57600080fd5b91908080601f01602080910402602001604051908101604052809392919081815260200183838082843760009201919091525092955061151c945050505050565b34801561055c57600080fd5b506102cd61154d565b34801561057157600080fd5b5061029161165c565b34801561058657600080fd5b5061058f611662565b6040805160208082528351818301528351919283929083019185019080838360005b838110156105c95781810151838201526020016105b1565b50505050905090810190601f1680156105f65780820380516001836020036101000a031916815260200191505b509250505060405180910390f35b34801561061057600080fd5b506102916116f0565b34801561062557600080fd5b506106436004803603602081101561063c57600080fd5b50356116f6565b6040805195865260208601949094528484019290925260608401526080830152519081900360a00190f35b34801561067a57600080fd5b506102916117d3565b34801561068f57600080fd5b506102916117d9565b3480156106a457600080fd5b5061032c6117df565b3480156106b957600080fd5b506102916117e9565b3480156106ce57600080fd5b506102cd600480360360208110156106e557600080fd5b50356117ef565b3480156106f857600080fd5b506102cd600480360361014081101561071057600080fd5b5080359060208101359060408101359060608101359060808101359060a08101359060c08101359060e081013590610100810135906101200135611a0d565b34801561075b57600080fd5b50610291611b1a565b34801561077057600080fd5b506102cd6004803603602081101561078757600080fd5b5035600160a060020a0316611b1f565b3480156107a357600080fd5b506102cd611b8e565b3480156107b857600080fd5b506102cd611c70565b3480156107cd57600080fd5b506102cd600480360360408110156107e457600080fd5b5080359060200135611d6a565b3480156107fd57600080fd5b506102cd612046565b34801561081257600080fd5b5061081b612058565b60408051600160a060020a039092168252519081900360200190f35b34801561084357600080fd5b506106436004803603602081101561085a57600080fd5b5035612067565b34801561086d57600080fd5b50610291612099565b34801561088257600080fd5b506102cd6004803603604081101561089957600080fd5b508035906020013561209f565b3480156108b257600080fd5b506102cd600480360360a08110156108c957600080fd5b508035906020810135906040810135906060810135906080013561223b565b3480156108f457600080fd5b506108fd6125d8565b6040805192835260208301919091528051918290030190f35b34801561092257600080fd5b506102916125e2565b34801561093757600080fd5b506102916125e8565b34801561094c57600080fd5b506102cd600480360360a081101561096357600080fd5b50803590602081013590604081013590606081013590608001356125ee565b34801561098e57600080fd5b506102916126e9565b61058f600480360360208110156109ad57600080fd5b8101906020810181356401000000008111156109c857600080fd5b8201836020820111156109da57600080fd5b803590602001918460018302840111640100000000831117156109fc57600080fd5b91908080601f0160208091040260200160405190810160405280939291908181526020018383808284376000920191909152509295506126ef945050505050565b348015610a4957600080fd5b5061029161274d565b348015610a5e57600080fd5b506102cd612753565b348015610a7357600080fd5b5061029160048036036060811015610a8a57600080fd5b5080359060208101359060400135612886565b348015610aa957600080fd5b506102916128fd565b348015610abe57600080fd5b50610643612903565b348015610ad357600080fd5b5061029161291d565b348015610ae857600080fd5b506102cd612923565b601754601c546021549192909190565b602d5481565b610b17610b1261294f565b610c18565b1515610b6f576040805160e560020a62461bcd02815260206004820152602e602482015260008051602061506c833981519152604482015260008051602061508c833981519152606482015290519081900360840190fd5b80610b78611b1a565b1015610bce576040805160e560020a62461bcd02815260206004820152601260248201527f6e6f7420656e6f7567682062616c616e63650000000000000000000000000000604482015290519081900360640190fd5b602f54604051600160a060020a039091169082156108fc029083906000818181858888f19350505050158015610c08573d6000803e3d6000fd5b5050565b600a5481565b602c5481565b6000610c2b60058363ffffffff61295316565b90505b919050565b610c3b6129ff565b600160a060020a03163314610c9a576040805160e560020a62461bcd02815260206004820152601360248201527f53656e646572206973206e6f742076616c696400000000000000000000000000604482015290519081900360640190fd5b60008281526016602052604090205460ff161515600114610d05576040805160e560020a62461bcd02815260206004820152600f60248201527f5175657279206e6f7420666f756e640000000000000000000000000000000000604482015290519081900360640190fd5b60008083815260166020526040902054610100900460ff166006811115610d2857fe5b1415610d7657610d3781612bf1565b6007819055604080519182525130917fa5e94f3306fa2da61143f299c2ee5f40c65181757be50882f2d568dd712239ef919081900360200190a261127c565b6001600083815260166020526040902054610100900460ff166006811115610d9a57fe5b1415610e8057610dab816004612bfa565b600b8190555030600160a060020a03166000805160206150ac83398151915282604051808060200180602001838103835260038152602001807f4f494c0000000000000000000000000000000000000000000000000000000000815250602001838103825284818151815260200191508051906020019080838360005b83811015610e40578181015183820152602001610e28565b50505050905090810190601f168015610e6d5780820380516001836020036101000a031916815260200191505b50935050505060405180910390a261127c565b6002600083815260166020526040902054610100900460ff166006811115610ea457fe5b1415610f4957610eb5816004612bfa565b600c8190555030600160a060020a03166000805160206150ac83398151915282604051808060200180602001838103835260038152602001807f50455400000000000000000000000000000000000000000000000000000000008152506020018381038252848181518152602001915080519060200190808383600083811015610e40578181015183820152602001610e28565b6003600083815260166020526040902054610100900460ff166006811115610f6d57fe5b141561101257610f7e816004612bfa565b600a8190555030600160a060020a03166000805160206150ac83398151915282604051808060200180602001838103835260088152602001807f414c554d494e554d0000000000000000000000000000000000000000000000008152506020018381038252848181518152602001915080519060200190808383600083811015610e40578181015183820152602001610e28565b6004600083815260166020526040902054610100900460ff16600681111561103657fe5b14156110db57611047816004612bfa565b60088190555030600160a060020a03166000805160206150ac83398151915282604051808060200180602001838103835260068152602001807f45544845555200000000000000000000000000000000000000000000000000008152506020018381038252848181518152602001915080519060200190808383600083811015610e40578181015183820152602001610e28565b6005600083815260166020526040902054610100900460ff1660068111156110ff57fe5b14156111a457611110816004612bfa565b60098190555030600160a060020a03166000805160206150ac83398151915282604051808060200180602001838103835260068152602001807f55534445555200000000000000000000000000000000000000000000000000008152506020018381038252848181518152602001915080519060200190808383600083811015610e40578181015183820152602001610e28565b6006600083815260166020526040902054610100900460ff1660068111156111c857fe5b141561127c5780516111e190600d906020840190614ab5565b50604080516020808252835181830152835130937ff582fd67735739d9e0d8e0dbb0990cca174978f3c9d062969e9e154e2b05c65d9386939092839283019185019080838360005b83811015611241578181015183820152602001611229565b50505050905090810190601f16801561126e5780820380516001836020036101000a031916815260200191505b509250505060405180910390a25b6000828152601660205260409020805461ffff191690556015546112a790600163ffffffff612d2816565b601555600c5460001080156112be57506000600854115b1561144f57600c5460085461131a9190601760005b6005020160a0604051908101604052908160008201548152602001600182015481526020016002820154815260200160038201548152602001600482015481525050612d6a565b80516017908155602082015160185560408201516019556060820151601a55608090910151601b55600c546008546113539260016112d3565b8051601c55602080820151601d55604080830151601e55606080840151601f5560809384015183556017548251938401528183526005838301527f5041434b31000000000000000000000000000000000000000000000000000000908301525130927f379bc695d06ce377909e9493fc040c2249480875824cdf7eb30d5e902b144ada928290030190a2601c546040805160208101929092528082526005828201527f5041434b3200000000000000000000000000000000000000000000000000000060608301525130917f379bc695d06ce377909e9493fc040c2249480875824cdf7eb30d5e902b144ada919081900360800190a26000600c555b6000600a5411801561146357506000600854115b15610c0857600a5460085461147c9190601760026112d3565b805160218190556020808301516022556040808401516023556060808501516024556080948501516025558151928301939093528082526005828201527f5041434b3300000000000000000000000000000000000000000000000000000092820192909252905130927f379bc695d06ce377909e9493fc040c2249480875824cdf7eb30d5e902b144ada928290030190a26000600a555050565b60265481565b5050600080805260036020527f3617319a054d772f909f7c479a2cebe5066e836a939412e32403c99029b92eff5550565b611558610b1261294f565b15156115b0576040805160e560020a62461bcd02815260206004820152602e602482015260008051602061506c833981519152604482015260008051602061508c833981519152606482015290519081900360840190fd5b60065460ff16151561160c576040805160e560020a62461bcd02815260206004820152601460248201527f5061757361626c653a206e6f7420706175736564000000000000000000000000604482015290519081900360640190fd5b6006805460ff191690557f5db9ee0a495bf2e6ff9c91a7834c1ba4fdd244a5e8aa4e537bd38aeae4b073aa61163f61294f565b60408051600160a060020a039092168252519081900360200190a1565b60275481565b600d805460408051602060026001851615610100026000190190941693909304601f810184900484028201840190925281815292918301828280156116e85780601f106116bd576101008083540402835291602001916116e8565b820191906000526020600020905b8154815290600101906020018083116116cb57829003601f168201915b505050505081565b60285481565b60008080808060038610611754576040805160e560020a62461bcd02815260206004820152601860248201527f496e6465782076616c7565206973206e6f742076616c69640000000000000000604482015290519081900360640190fd5b6017866003811061176157fe5b600502015494506017866003811061177557fe5b6005020160010154935060178660038110151561178e57fe5b600502016002015492506017866003811015156117a757fe5b600502016003015491506017866003811015156117c057fe5b6005020160040154905091939590929450565b60095481565b60085481565b60065460ff165b90565b602a5481565b6117fa610b1261294f565b1515611852576040805160e560020a62461bcd02815260206004820152602e602482015260008051602061506c833981519152604482015260008051602061508c833981519152606482015290519081900360840190fd5b601354602e5443908201106118ac576040805160e560020a62461bcd0281526020600482015260216024820152600080516020614f32833981519152604482015260fa60020a601d02606482015290519081900360840190fd5b60008211611904576040805160e560020a62461bcd02815260206004820152601f60248201527f416d6f756e74206973206e6f742067726561746572207468616e207a65726f00604482015290519081900360640190fd5b606061190f8361303d565b60405160200180807f5b55524c5d205b276a736f6e2868747470733a2f2f70726f2d6170692e636f6981526020017f6e6d61726b65746361702e636f6d2f76312f746f6f6c732f70726963652d636f81526020017f6e76657273696f6e3f616d6f756e743d0000000000000000000000000000000081525060500182805190602001908083835b602083106119b55780518252601f199092019160209182019101611996565b6001836020036101000a03801982511681845116808217855250505050505090500180614e4960e9913960e9019150506040516020818303038152906040529050611a04816005602b54613130565b50504360135550565b611a18610b1261294f565b1515611a70576040805160e560020a62461bcd02815260206004820152602e602482015260008051602061506c833981519152604482015260008051602061508c833981519152606482015290519081900360840190fd5b60065460ff1615611ab9576040805160e560020a62461bcd028152602060048201526010602482015260008051602061504c833981519152604482015290519081900360640190fd5b611ac760008b8b878761223b565b611ad560018989878761223b565b611ae360028787858561223b565b60405130907fcf22140c728495d75d0c6ca11003a93171500d99af9c6b54c5e066f7fc67530690600090a250505050505050505050565b303190565b611b2a610b1261294f565b1515611b82576040805160e560020a62461bcd02815260206004820152602e602482015260008051602061506c833981519152604482015260008051602061508c833981519152606482015290519081900360840190fd5b611b8b816133b7565b50565b611b99610b1261294f565b1515611bf1576040805160e560020a62461bcd02815260206004820152602e602482015260008051602061506c833981519152604482015260008051602061508c833981519152606482015290519081900360840190fd5b60065460ff1615611c3a576040805160e560020a62461bcd028152602060048201526010602482015260008051602061504c833981519152604482015290519081900360640190fd5b6006805460ff191660011790557f62e78cea01bee320cd4e420270b5ea74000d11b0c9f74754ebdbfc544b05a25861163f61294f565b611c7b610b1261294f565b1515611cd3576040805160e560020a62461bcd02815260206004820152602e602482015260008051602061506c833981519152604482015260008051602061508c833981519152606482015290519081900360840190fd5b600f54602e544390820110611d2d576040805160e560020a62461bcd0281526020600482015260216024820152600080516020614f32833981519152604482015260fa60020a601d02606482015290519081900360840190fd5b60606040516020018080614d3460f5913960f50190506040516020818303038152906040529050611d62816001602b54613130565b505043600f55565b611d75610b1261294f565b1515611dcd576040805160e560020a62461bcd02815260206004820152602e602482015260008051602061506c833981519152604482015260008051602061508c833981519152606482015290519081900360840190fd5b600e54602e544390820110611e27576040805160e560020a62461bcd0281526020600482015260216024820152600080516020614f32833981519152604482015260fa60020a601d02606482015290519081900360840190fd5b828211611ea4576040805160e560020a62461bcd02815260206004820152602760248201527f4d61782076616c7565206973206e6f742067726561746572207468616e204d6960448201527f6e2076616c756500000000000000000000000000000000000000000000000000606482015290519081900360840190fd5b6060611eaf8461303d565b611eb88461303d565b60405160200180807f68747470733a2f2f7777772e72616e646f6d2e6f72672f696e7465676572732f81526020017f3f6e756d3d31266d696e3d000000000000000000000000000000000000000000815250602b0183805190602001908083835b60208310611f385780518252601f199092019160209182019101611f19565b51815160209384036101000a60001901801990921691161790527f266d61783d000000000000000000000000000000000000000000000000000000919093019081528451600590910192850191508083835b60208310611fa95780518252601f199092019160209182019101611f8a565b6001836020036101000a038019825116818451168082178552505050505050905001807f26636f6c3d3126626173653d313026666f726d61743d706c61696e26726e643d81526020017f6e6577000000000000000000000000000000000000000000000000000000000081525060230192505050604051602081830303815290604052905061203c816000602b546133ff565b505043600e555050565b61205661205161294f565b613680565b565b602f54600160a060020a031681565b6017816003811061207457fe5b6005020180546001820154600283015460038401546004909401549294509092909185565b60295481565b6120aa610b1261294f565b1515612102576040805160e560020a62461bcd02815260206004820152602e602482015260008051602061506c833981519152604482015260008051602061508c833981519152606482015290519081900360840190fd5b60648211612180576040805160e560020a62461bcd02815260206004820152602b60248201527f4d696e696d756e204574686572207072696365206d757374206265206174206c60448201527f6561737420312063656e74000000000000000000000000000000000000000000606482015290519081900360840190fd5b808211156121d8576040805160e560020a62461bcd02815260206004820152601e60248201527f56616c756520666f722070726963657320617265206e6f742076616c69640000604482015290519081900360640190fd5b602682905560278190556121f2818363ffffffff612d2816565b602855602654602754604080519283526020830191909152805130927f75c5e6571d1af97eacc7aee670ef21457311c1f3b6f6f300cbca5a1a845866c192908290030190a25050565b612246610b1261294f565b151561229e576040805160e560020a62461bcd02815260206004820152602e602482015260008051602061506c833981519152604482015260008051602061508c833981519152606482015290519081900360840190fd5b60065460ff16156122e7576040805160e560020a62461bcd028152602060048201526010602482015260008051602061504c833981519152604482015290519081900360640190fd5b6003851061233f576040805160e560020a62461bcd02815260206004820152601860248201527f496e6465782076616c7565206973206e6f742076616c69640000000000000000604482015290519081900360640190fd5b600084116123bd576040805160e560020a62461bcd02815260206004820152602d60248201527f4d696e696d756e20706f696e74732076616c7565206973206e6f74206772656160448201527f746572207468616e207a65726f00000000000000000000000000000000000000606482015290519081900360840190fd5b6103e8831061243c576040805160e560020a62461bcd02815260206004820152602160248201527f4d6178696d756e20706f696e74732076616c7565206973206e6f742076616c6960448201527f6400000000000000000000000000000000000000000000000000000000000000606482015290519081900360840190fd5b82841115612494576040805160e560020a62461bcd02815260206004820152601f60248201527f56616c75657320666f7220706f696e747320617265206e6f742076616c696400604482015290519081900360640190fd5b808211156124ec576040805160e560020a62461bcd02815260206004820152601e60248201527f56616c756520666f722070726963657320617265206e6f742076616c69640000604482015290519081900360640190fd5b83601786600381106124fa57fe5b6005020155836017866003811061250d57fe5b60050201600101819055508260178660038110151561252857fe5b6005020160020181905550600082111561255657816017866003811061254a57fe5b60050201600301819055505b600081111561257957806017866003811061256d57fe5b60050201600401819055505b6040805186815260208101869052808201869052606081018590526080810184905260a08101839052905130917f15bdfc47a06d22e1d8fd353821080054c057c41c06f80d3ab5c8fab41c728a95919081900360c00190a25050505050565b6026546027549091565b600c5481565b60155481565b6125f9610b1261294f565b1515612651576040805160e560020a62461bcd02815260206004820152602e602482015260008051602061506c833981519152604482015260008051602061508c833981519152606482015290519081900360840190fd5b60065460ff161561269a576040805160e560020a62461bcd028152602060048201526010602482015260008051602061504c833981519152604482015290519081900360640190fd5b6126a58383836136c8565b6126ae8561392a565b6126b78461397d565b60405130907fdcc5e04534282375709cf2e0097338a56bc232cc367facbf9f72b46f875eba9590600090a25050505050565b60075481565b606060003411612749576040805160e560020a62461bcd02815260206004820152601e60248201527f76616c7565206973206e6f742067726561746572207468616e207a65726f0000604482015290519081900360640190fd5b5090565b600b5481565b61275e610b1261294f565b15156127b6576040805160e560020a62461bcd02815260206004820152602e602482015260008051602061506c833981519152604482015260008051602061508c833981519152606482015290519081900360840190fd5b601454602e544390820110612810576040805160e560020a62461bcd0281526020600482015260216024820152600080516020614f32833981519152604482015260fa60020a601d02606482015290519081900360840190fd5b60608060405190810160405280603f81526020017f6a736f6e28687474703a2f2f776f726c64636c6f636b6170692e636f6d2f617081526020017f692f6a736f6e2f7574632f6e6f77292e63757272656e744461746554696d6500815250905061287e816006602a546133ff565b505043601455565b6000806128a98361289d878763ffffffff6139cf16565b9063ffffffff6139cf16565b11156128f2576021546128eb906128df906128c5908590613a2c565b61289d601760015b6005020154879063ffffffff613a2c16565b61289d601760006128cd565b90506128f6565b5060005b9392505050565b602e5481565b602d54602e54602a54602b54602c54939492939192909190565b602b5481565b43602d54602954011015612056574360295561293f6001613ac8565b612947613c83565b612056613d1a565b3390565b6000600160a060020a03821615156129db576040805160e560020a62461bcd02815260206004820152602260248201527f526f6c65733a206163636f756e7420697320746865207a65726f20616464726560448201527f7373000000000000000000000000000000000000000000000000000000000000606482015290519081900360840190fd5b50600160a060020a03811660009081526020839052604090205460ff165b92915050565b600154600090600160a060020a03161580612a2c5750600154612a2a90600160a060020a0316613db1565b155b15612a3d57612a3b6000613db5565b505b600160009054906101000a9004600160a060020a0316600160a060020a03166338cc48316040518163ffffffff1660e060020a028152600401602060405180830381600087803b158015612a9057600080fd5b505af1158015612aa4573d6000803e3d6000fd5b505050506040513d6020811015612aba57600080fd5b5051600054600160a060020a03908116911614612b7057600160009054906101000a9004600160a060020a0316600160a060020a03166338cc48316040518163ffffffff1660e060020a028152600401602060405180830381600087803b158015612b2457600080fd5b505af1158015612b38573d6000803e3d6000fd5b505050506040513d6020811015612b4e57600080fd5b505160008054600160a060020a031916600160a060020a039092169190911790555b6000809054906101000a9004600160a060020a0316600160a060020a031663c281d19e6040518163ffffffff1660e060020a02815260040160206040518083038186803b158015612bc057600080fd5b505afa158015612bd4573d6000803e3d6000fd5b505050506040513d6020811015612bea57600080fd5b5051905090565b6000610c2b8260005b6000828180805b8351811015612d0c5760308482815181101515612c1a57fe5b90602001015160f860020a900460f860020a0260f860020a900460ff1610158015612c70575060398482815181101515612c5057fe5b90602001015160f860020a900460f860020a0260f860020a900460ff1611155b15612ccc578115612c8f57851515612c8757612d0c565b600019909501945b600a8302925060308482815181101515612ca557fe5b90602001015160f860020a900460f860020a0260f860020a900460ff160383019250612d04565b8381815181101515612cda57fe5b90602001015160f860020a900460f860020a0260f860020a900460ff16602e1415612d0457600191505b600101612c01565b506000851115612d1f5784600a0a820291505b50949350505050565b60006128f683836040805190810160405280601e81526020017f536166654d6174683a207375627472616374696f6e206f766572666c6f770000815250613dbf565b612d72614b2f565b60008411612dca576040805160e560020a62461bcd02815260206004820152601560248201527f50726963652063616e206e6f74206265207a65726f0000000000000000000000604482015290519081900360640190fd5b60008311612e22576040805160e560020a62461bcd02815260206004820152601b60248201527f45746865722070726963652063616e206e6f74206265207a65726f0000000000604482015290519081900360640190fd5b6060820151600090819081908190819081908a118015612e455750606088015115155b15612e7b576060880151612e60908b9063ffffffff612d2816565b93508988608001511015612e7657608088018a90525b612e83565b606088018a90525b88602654108015612e95575060265415155b15612eb557602654612eae908a9063ffffffff612d2816565b9250612ebb565b60268990555b886027541015612ecb5760278990555b602654602754612ee09163ffffffff612d2816565b602855608088015160608901511015612f135760608801516080890151612f0c9163ffffffff612d2816565b9450612f1e565b606088015160808901525b876040015188602001511015612fc25760208801516040890151612f479163ffffffff612d2816565b95506000851115612f8657612f83612f65868863ffffffff613e5916565b612f778661271063ffffffff613a2c16565b9063ffffffff613e5916565b91505b60006028541115612fbd57602854612fba90612fa8908863ffffffff613e5916565b612f778561271063ffffffff613a2c16565b90505b612fcd565b602088015160408901525b613000612710612f7783612ff48661289d6127108f60200151613a2c90919063ffffffff16565b9063ffffffff612d2816565b8089526020890151111561301a576020880151885261302f565b60408801518851111561302f57604088015188525b509598975050505050505050565b6060811515613080575060408051808201909152600181527f30000000000000000000000000000000000000000000000000000000000000006020820152610c2e565b8160005b811561309857600101600a82049150613084565b6060816040519080825280601f01601f1916602001820160405280156130c5576020820181803883390190505b50905060001982015b8515612d1f57815160001982019160f860020a6030600a8a0601029184919081106130f557fe5b9060200101907effffffffffffffffffffffffffffffffffffffffffffffffffffffffffffff1916908160001a905350600a860495506130ce565b8251600010613189576040805160e560020a62461bcd02815260206004820152600e60248201527f517565727920697320656d707479000000000000000000000000000000000000604482015290519081900360640190fd5b600030600160a060020a0316316131d56040805190810160405280600681526020017f4e4553544544000000000000000000000000000000000000000000000000000081525084613e9b565b11156132ee57604080516020808252604b908201527f50726f7661626c6520717565727920776173204e4f542073656e742c20706c65818301527f6173652061646420736f6d652045544820746f20636f76657220666f7220746860608201527f6520717565727920666565000000000000000000000000000000000000000000608082015290513091600080516020614e29833981519152919081900360a00190a26040805160e560020a62461bcd02815260206004820152603460248201527f4554482062616c616e6365206973206e6f7420656e6f75676820746f20636f7660448201527f657220666f722074686520717565727920666565000000000000000000000000606482015290519081900360840190fd5b61332e6040805190810160405280600681526020017f6e657374656400000000000000000000000000000000000000000000000000008152508584614112565b604080516020808252603d908201527f50726f7661626c65204e4553544544207175657279207761732073656e742c20818301527f7374616e64696e6720627920666f722074686520616e737765722e2e2e000000606082015290519192503091600080516020614e298339815191529181900360800190a26133b18184614512565b50505050565b6133c860058263ffffffff61456316565b604051600160a060020a038216907f44d6d25963f097ad14f29f06854a01f575648a1ef82f30e562ccd3889717e33990600090a250565b8251600010613458576040805160e560020a62461bcd02815260206004820152600e60248201527f517565727920697320656d707479000000000000000000000000000000000000604482015290519081900360640190fd5b600030600160a060020a0316316134a46040805190810160405280600381526020017f55524c000000000000000000000000000000000000000000000000000000000081525084613e9b565b11156135bd57604080516020808252604b908201527f50726f7661626c6520717565727920776173204e4f542073656e742c20706c65818301527f6173652061646420736f6d652045544820746f20636f76657220666f7220746860608201527f6520717565727920666565000000000000000000000000000000000000000000608082015290513091600080516020614e29833981519152919081900360a00190a26040805160e560020a62461bcd02815260206004820152603460248201527f4554482062616c616e6365206973206e6f7420656e6f75676820746f20636f7660448201527f657220666f722074686520717565727920666565000000000000000000000000606482015290519081900360840190fd5b6135fd6040805190810160405280600381526020017f55524c00000000000000000000000000000000000000000000000000000000008152508584614112565b604080516020808252603a908201527f50726f7661626c652055524c207175657279207761732073656e742c20737461818301527f6e64696e6720627920666f722074686520616e737765722e2e2e000000000000606082015290519192503091600080516020614e298339815191529181900360800190a26133b18184614512565b61369160058263ffffffff6145e716565b604051600160a060020a038216907fa3b62bc36326052d97ea62d63c3d60308ed4c3ea8ac079dd8499f1e9c4f80c0f90600090a250565b620249f0831015613723576040805160e560020a62461bcd02815260206004820152601a60248201527f476173206c696d697420286c6f772920697320746f6f206c6f77000000000000604482015290519081900360640190fd5b8183106137a0576040805160e560020a62461bcd02815260206004820152602960248201527f4c6f77206c696d6974206d757374206265206c6f776572207468616e206d656460448201527f69756d206c696d69740000000000000000000000000000000000000000000000606482015290519081900360840190fd5b62030d408210156137fb576040805160e560020a62461bcd02815260206004820152601a60248201527f476173206c696d697420286d65642920697320746f6f206c6f77000000000000604482015290519081900360640190fd5b808210613878576040805160e560020a62461bcd02815260206004820152602a60248201527f4d656469756d206c696d6974206d757374206265206c6f776572207468616e2060448201527f68696768206c696d697400000000000000000000000000000000000000000000606482015290519081900360840190fd5b6205cc608110156138d3576040805160e560020a62461bcd02815260206004820152601b60248201527f476173206c696d69742028686967682920697320746f6f206c6f770000000000604482015290519081900360640190fd5b602a839055602b829055602c8190556040805184815260208101849052808201839052905130917f94bc389558d1a208203762ed168652fb0d693160f4981a26cc44a60279ca26d8919081900360600190a2505050565b80151561393c57619c40602d55613942565b602d8190555b602d54604080519182525130917f831ff623e3233c3472f0936ce17d5452ad98c613cde74d48e20ee2c08f2dc982919081900360200190a250565b80151561398f57611770602e55613995565b602e8190555b602e54604080519182525130917e162e44ebe30b2af08828299ce417bf3cc404e6d6be6aefc69eed219ed4a005919081900360200190a250565b6000828201838110156128f6576040805160e560020a62461bcd02815260206004820152601b60248201527f536166654d6174683a206164646974696f6e206f766572666c6f770000000000604482015290519081900360640190fd5b6000821515613a3d575060006129f9565b828202828482811515613a4c57fe5b04146128f6576040805160e560020a62461bcd02815260206004820152602160248201527f536166654d6174683a206d756c7469706c69636174696f6e206f766572666c6f60448201527f7700000000000000000000000000000000000000000000000000000000000000606482015290519081900360840190fd5b601254602e544390820110613b22576040805160e560020a62461bcd0281526020600482015260216024820152600080516020614f32833981519152604482015260fa60020a601d02606482015290519081900360840190fd5b60008211613b7a576040805160e560020a62461bcd02815260206004820152601f60248201527f416d6f756e74206973206e6f742067726561746572207468616e207a65726f00604482015290519081900360640190fd5b6060613b858361303d565b60405160200180807f5b55524c5d205b276a736f6e2868747470733a2f2f70726f2d6170692e636f6981526020017f6e6d61726b65746361702e636f6d2f76312f746f6f6c732f70726963652d636f81526020017f6e76657273696f6e3f616d6f756e743d0000000000000000000000000000000081525060500182805190602001908083835b60208310613c2b5780518252601f199092019160209182019101613c0c565b6001836020036101000a03801982511681845116808217855250505050505090500180614b7a60e9913960e9019150506040516020818303038152906040529050613c7a816004602c54613130565b50504360125550565b601054602e544390820110613cdd576040805160e560020a62461bcd0281526020600482015260216024820152600080516020614f32833981519152604482015260fa60020a601d02606482015290519081900360840190fd5b60606040516020018080614c6360d1913960d10190506040516020818303038152906040529050613d12816002602c54613130565b505043601055565b601154602e544390820110613d74576040805160e560020a62461bcd0281526020600482015260216024820152600080516020614f32833981519152604482015260fa60020a601d02606482015290519081900360840190fd5b60606040516020018080614f5260fa913960fa0190506040516020818303038152906040529050613da9816003602c54613130565b505043601155565b3b90565b6000610c2b61468f565b60008184841115613e515760405160e560020a62461bcd0281526004018080602001828103825283818151815260200191508051906020019080838360005b83811015613e16578181015183820152602001613dfe565b50505050905090810190601f168015613e435780820380516001836020036101000a031916815260200191505b509250505060405180910390fd5b505050900390565b60006128f683836040805190810160405280601a81526020017f536166654d6174683a206469766973696f6e206279207a65726f000000000000815250614a39565b600154600090600160a060020a03161580613ec85750600154613ec690600160a060020a0316613db1565b155b15613ed957613ed76000613db5565b505b600160009054906101000a9004600160a060020a0316600160a060020a03166338cc48316040518163ffffffff1660e060020a028152600401602060405180830381600087803b158015613f2c57600080fd5b505af1158015613f40573d6000803e3d6000fd5b505050506040513d6020811015613f5657600080fd5b5051600054600160a060020a0390811691161461400c57600160009054906101000a9004600160a060020a0316600160a060020a03166338cc48316040518163ffffffff1660e060020a028152600401602060405180830381600087803b158015613fc057600080fd5b505af1158015613fd4573d6000803e3d6000fd5b505050506040513d6020811015613fea57600080fd5b505160008054600160a060020a031916600160a060020a039092169190911790555b60008054604080517f2ef3accc0000000000000000000000000000000000000000000000000000000081526024810186905260048101918252865160448201528651600160a060020a0390931693632ef3accc93889388939092839260649092019160208701918190849084905b8381101561409257818101518382015260200161407a565b50505050905090810190601f1680156140bf5780820380516001836020036101000a031916815260200191505b509350505050602060405180830381600087803b1580156140df57600080fd5b505af11580156140f3573d6000803e3d6000fd5b505050506040513d602081101561410957600080fd5b50519392505050565b600154600090600160a060020a0316158061413f575060015461413d90600160a060020a0316613db1565b155b156141505761414e6000613db5565b505b600160009054906101000a9004600160a060020a0316600160a060020a03166338cc48316040518163ffffffff1660e060020a028152600401602060405180830381600087803b1580156141a357600080fd5b505af11580156141b7573d6000803e3d6000fd5b505050506040513d60208110156141cd57600080fd5b5051600054600160a060020a0390811691161461428357600160009054906101000a9004600160a060020a0316600160a060020a03166338cc48316040518163ffffffff1660e060020a028152600401602060405180830381600087803b15801561423757600080fd5b505af115801561424b573d6000803e3d6000fd5b505050506040513d602081101561426157600080fd5b505160008054600160a060020a031916600160a060020a039092169190911790555b60008054604080517f2ef3accc0000000000000000000000000000000000000000000000000000000081526024810186905260048101918252875160448201528751600160a060020a0390931692632ef3accc928992889282916064019060208601908083838c5b838110156143035781810151838201526020016142eb565b50505050905090810190601f1680156143305780820380516001836020036101000a031916815260200191505b509350505050602060405180830381600087803b15801561435057600080fd5b505af1158015614364573d6000803e3d6000fd5b505050506040513d602081101561437a57600080fd5b50519050670de0b6b3a76400003a84020181111561439c5750600090506128f6565b600080546040517fc51be90f0000000000000000000000000000000000000000000000000000000081526004810183815260648201879052608060248301908152895160848401528951600160a060020a039094169463c51be90f94879491938c938c938c93604482019160a4019060208801908083838c5b8381101561442d578181015183820152602001614415565b50505050905090810190601f16801561445a5780820380516001836020036101000a031916815260200191505b50838103825285518152855160209182019187019080838360005b8381101561448d578181015183820152602001614475565b50505050905090810190601f1680156144ba5780820380516001836020036101000a031916815260200191505b5096505050505050506020604051808303818588803b1580156144dc57600080fd5b505af11580156144f0573d6000803e3d6000fd5b50505050506040513d602081101561450757600080fd5b505195945050505050565b6000828152601660205260409020805460ff191660011780825582919061ff00191661010083600681111561454357fe5b021790555060155461455c90600163ffffffff6139cf16565b6015555050565b61456d8282612953565b156145c2576040805160e560020a62461bcd02815260206004820152601f60248201527f526f6c65733a206163636f756e7420616c72656164792068617320726f6c6500604482015290519081900360640190fd5b600160a060020a0316600090815260209190915260409020805460ff19166001179055565b6145f18282612953565b151561466d576040805160e560020a62461bcd02815260206004820152602160248201527f526f6c65733a206163636f756e7420646f6573206e6f74206861766520726f6c60448201527f6500000000000000000000000000000000000000000000000000000000000000606482015290519081900360840190fd5b600160a060020a0316600090815260209190915260409020805460ff19169055565b6000806146af731d3b2638a7cc9f2cb3d298a3da7a90b67e5506ed613db1565b11156147205760018054600160a060020a031916731d3b2638a7cc9f2cb3d298a3da7a90b67e5506ed17905560408051808201909152600b81527f6574685f6d61696e6e6574000000000000000000000000000000000000000000602082015261471890614aa6565b5060016117e6565b600061473f73c03a2615d5efaf5f49f60b7bb6583eaec212fdf1613db1565b11156147a85760018054600160a060020a03191673c03a2615d5efaf5f49f60b7bb6583eaec212fdf117905560408051808201909152600c81527f6574685f726f707374656e330000000000000000000000000000000000000000602082015261471890614aa6565b60006147c773b7a07bcf2ba2f2703b24c0691b5278999c59ac7e613db1565b11156148305760018054600160a060020a03191673b7a07bcf2ba2f2703b24c0691b5278999c59ac7e17905560408051808201909152600981527f6574685f6b6f76616e0000000000000000000000000000000000000000000000602082015261471890614aa6565b600061484f73146500cfd35b22e4a392fe0adc06de1a1368ed48613db1565b11156148b85760018054600160a060020a03191673146500cfd35b22e4a392fe0adc06de1a1368ed4817905560408051808201909152600b81527f6574685f72696e6b656279000000000000000000000000000000000000000000602082015261471890614aa6565b60006148d773a2998efd205fb9d4b4963afb70778d6354ad3a41613db1565b11156149405760018054600160a060020a03191673a2998efd205fb9d4b4963afb70778d6354ad3a4117905560408051808201909152600a81527f6574685f676f65726c6900000000000000000000000000000000000000000000602082015261471890614aa6565b600061495f736f485c8bf6fc43ea212e93bbf8ce046c7f1cb475613db1565b1115614991575060018054600160a060020a031916736f485c8bf6fc43ea212e93bbf8ce046c7f1cb4751781556117e6565b60006149b07320e12a1f859b3feae5fb2a0a32c18f5a65555bbf613db1565b11156149e2575060018054600160a060020a0319167320e12a1f859b3feae5fb2a0a32c18f5a65555bbf1781556117e6565b6000614a017351efaf4c8b3c9afbd5ab9f4bbc82784ab6ef8faa613db1565b1115614a33575060018054600160a060020a0319167351efaf4c8b3c9afbd5ab9f4bbc82784ab6ef8faa1781556117e6565b50600090565b600081818411614a8e5760405160e560020a62461bcd02815260040180806020018281038252838181518152602001915080519060200190808383600083811015613e16578181015183820152602001613dfe565b5060008385811515614a9c57fe5b0495945050505050565b8051610c089060029060208401905b828054600181600116156101000203166002900490600052602060002090601f016020900481019282601f10614af657805160ff1916838001178555614b23565b82800160010185558215614b23579182015b82811115614b23578251825591602001919060010190614b08565b50612749929150614b5f565b60a06040519081016040528060008152602001600081526020016000815260200160008152602001600081525090565b6117e691905b808211156127495760008155600101614b6556fe2673796d626f6c3d45544826636f6e766572743d45555226434d435f50524f5f4150495f4b45593d247b5b646563727970745d20424f484159687854304e66785a587a4961654b505878736355723852494b442f583458615161527a54486851657632367478784e376533734b696a41356b45656354524a794832346d567a48424b6935432f44675165756a71384a4a316b5a784167616f30777765565156686c744f7a6c6776367734467746354a786238616770682b427664487a47704a5050586d39673651426431424e76466e797d292e646174612e71756f74652e4555522e7072696365275d5b55524c5d205b276a736f6e2868747470733a2f2f6d792d6a736f6e2d7365727665722e74797069636f64652e636f6d2f247b5b646563727970745d204249643553645037494a647752754f5356444d69574155752b7949675361687756676766614f786475694f6646655a47635645623949544d503043394d70506d2b306c627a7a44354b616374516a6d57534563713474334e396e4379716564304d4549304439304b417a4c4a456954344d374f4f67726650573278425052584542786f537d292e302e70726963652e455552275d5b55524c5d205b276a736f6e2868747470733a2f2f7777772e7175616e646c2e636f6d2f6170692f76332f64617461736574732f4f5045432f4f52423f6170695f6b65793d247b5b646563727970745d20424f5859336d734c4a6c62324f30306c3951476267622b6d764a357343584e4e376d75505831686b496d2b6370354c64615643426d656a6a623063744a577541426b6a77776c52486551597362536733646d7a707a6e624f7175476f58466f663058414c3364663851552f6f5a7a4b4c702b6b464f5a764e42587167784d6c68346e2b777239513d7d26726f77733d31292e646174617365742e646174612e302e31275da64dbc08b0836b2de5388c913141a3b62577aa798d99b83777646718907ba2f92673796d626f6c3d55534426636f6e766572743d45555226434d435f50524f5f4150495f4b45593d247b5b646563727970745d20424f484159687854304e66785a587a4961654b505878736355723852494b442f583458615161527a54486851657632367478784e376533734b696a41356b45656354524a794832346d567a48424b6935432f44675165756a71384a4a316b5a784167616f30777765565156686c744f7a6c6776367734467746354a786238616770682b427664487a47704a5050586d39673651426431424e76466e797d292e646174612e71756f74652e4555522e7072696365275d52657175657374206e6f7420616c6c6f7765642e20546f6f206672657175656e5b55524c5d205b276a736f6e2868747470733a2f2f7777772e7175616e646c2e636f6d2f6170692f76332f64617461736574732f4f44412f50414c554d5f5553443f6170695f6b65793d247b5b646563727970745d20424f5859336d734c4a6c62324f30306c3951476267622b6d764a357343584e4e376d75505831686b496d2b6370354c64615643426d656a6a623063744a577541426b6a77776c52486551597362536733646d7a707a6e624f7175476f58466f663058414c3364663851552f6f5a7a4b4c702b6b464f5a764e42587167784d6c68346e2b777239513d7d26726f77733d31292e646174617365742e646174612e302e31275d5061757361626c653a207061757365640000000000000000000000000000000041646d696e526f6c653a2063616c6c657220646f6573206e6f742068617665207468652041646d696e20726f6c650000000000000000000000000000000000006f2101077860ab28dc4312e9257356e09c83bb81e1e52ef91bf5c4158e43ebb2a165627a7a723058200c82daa03eccf39c7feecf3e78a940651f9ff686dac39c33f91363ad92a617f20029",
  "source": "pragma solidity >= 0.5.0 < 0.6.0;\n\nimport \"./provableAPI_0.5.sol\";\nimport \"./SafeMath.sol\";\n//import \"./AdminRole.sol\"; --> Pausable.sol hereda de Admin.sol\nimport \"./Pausable.sol\";\n\ncontract CustomOracle is usingProvable, Pausable {\n\n    using SafeMath for uint;\n\n    // ** Constantes **\n\tuint constant private MAX_VALUE_LIMIT = 1000;\n\tuint constant private GAS_LIMIT_LOW = 150000;\n\tuint constant private GAS_LIMIT_MED = 200000;\n\tuint constant private GAS_LIMIT_HIGH = 380000;\n\tuint constant private BLOCKS_PERIOD = 40000;\n\tuint constant private BLOCKS_REQUEST_ALLOW = 6000;\n\t//\n\tuint constant private DECIMAL_POS = 4;\n\tuint constant private DEC_POS_DIV = 10000;\n\tuint constant private ONE_CENT = 100;\n\tuint constant private PACKAGING_ITEMS = 3;\n\tuint constant private PACK1 = 0;\n\tuint constant private PACK2 = 1;\n\tuint constant private PACK3 = 2;\n\n   // TEST\n    uint256 public randomNumber;\n    uint public rateETHEUR;\n    uint public rateUSDEUR;\n    uint public aluminumPrice;\n    uint public oilPrice;\n    uint public petPrice;\n    string public dateTime;\n\n    uint private lastReqRANDOM;\n    uint private lastReqOIL;\n    uint private lastReqPET;\n    uint private lastReqALUMINUM;\n    uint private lastReqETHEUR;\n    uint private lastReqUSDEUR;\n    uint private lastReqDATE;\n\n    // ** Tipos posibles de queries enviadas por el orculo **\n    enum QueryType{\n        RANDOM,         // Nmero aleatorio\n        OIL,            // Precio petrleo\n        PET,            // Precio plstico PET\n        ALUMINUM,       // Precio aluminio\n        ETHEUR,         // Tipo de cambio Ether - Euro\n        USDEUR,         // Tipo de cambio US Dlar - Euro\n        DATE            // Fecha y hora actual\n    }\n\n    // ** Datos queries en progreso\n    struct queryData {\n        bool inProgress;\n        QueryType qType;\n    }\n\n    // ** Contador de queries en progreso (enviadas al orculo y pendiente de recibir respuesta)\n    // ** Sirve para controlar si hay queries que se estn quedando sin respuesta\n    uint public countQueryInProgress;\n\n    // ** Mapping para el control de queries en progreso\n    mapping (bytes32 => queryData) private queryInProgress;\n\n    // ** Struct con campos asociados a los puntos dados por envase\n    struct PointsPerPackaging {\n        uint pointsPerPack;\n        uint pointsMin;\n        uint pointsMax;\n        uint priceMin;\n        uint priceMax;\n    }\n\n    // ** Array con informacin campos asociados a los puntos dados por envase\n    PointsPerPackaging[PACKAGING_ITEMS] public packaging;\n\n    uint public priceEthMin;\n    uint public priceEthMax;\n    uint public rangeEthPrice;\n    uint public prevBlock;\n\n    uint public gasLimitLow;\n    uint public gasLimitMed;\n    uint public gasLimitHigh;\n    uint public blocksPeriod;\n    uint public blocksRequest;\n\n    address payable public owner;\n\n    // ** Eventos\n    event LogNewProvableQuery(address indexed myAddress, string description);\n    event generateNewValue(address indexed myAddress, string description, string value);\n    event generatedRandomNumber(address indexed myAddress, uint256 randomNumber);\n    event currentDateTime(address indexed myAddress, string currentDateTime);\n    event newPointsReward(address indexed myAddress, string packaging, uint points);\n    event packagingUpdate(address indexed myAddress, uint ind, uint points, uint pointsMin, uint pointsMax, uint priceMin, uint priceMax);\n    event packagingFullUpdate(address indexed myAddress);\n    event ethPriceUpdate(address indexed myAddress, uint priceEthMin, uint priceEthMax);\n    event limitGasUpdate(address indexed myAddress, uint gasLimitLow, uint gasLimitMed, uint gasLimitHigh);\n    event blockPeriodUpdate(address indexed myAddress, uint blocksPeriod);\n    event blockRequestUpdate(address indexed myAddress, uint blocksRequest);\n    event otherValuesFullUpdate(address indexed myAddress);\n\n    /**\n     * @dev Valida la frecuencia de una peticin al orculo\n     **/\n    modifier checkLastRequest(uint _lastRequest) {\n        require(_lastRequest + blocksRequest < block.number, \"Request not allowed. Too frequent\");        \n        _;\n    }\n\n    /**\n     * @dev Constructor\n     **/\n    constructor()\n        payable\n        public\n    {\n        owner = msg.sender;\n        gasLimitLow = GAS_LIMIT_LOW;\n        gasLimitMed = GAS_LIMIT_MED;\n        gasLimitHigh = GAS_LIMIT_HIGH;\n        blocksPeriod = BLOCKS_PERIOD;\n        blocksRequest = BLOCKS_REQUEST_ALLOW;\n\n        initializePointsArray();\n    }\n\n    /**\n     * @dev Calcula el total de puntos que corresponden segn la cantidad de envases entregados\n     *\n     * @param _pack1Qty     Cantidad envases pack1\n     * @param _pack2Qty     Cantidad envases pack2\n     * @param _pack3Qty     Cantidad envases pack3\n     * @return _totalPoints Total de puntos\n     *\n     **/\n    function calculatePoints(uint _pack1Qty, uint _pack2Qty, uint _pack3Qty) public view returns(uint _totalPoints) {\n\n        if (_pack1Qty.add(_pack2Qty).add(_pack3Qty) > 0) {\n            _totalPoints = _pack1Qty.mul(packaging[PACK1].pointsPerPack).add(\n                           _pack2Qty.mul(packaging[PACK2].pointsPerPack).add(\n                           _pack3Qty.mul(packaging[PACK3].pointsPerPack)));\n        } else {\n            _totalPoints = 0;\n        }\n\n    }\n\n    /**\n     * @dev Devuelve el nmero de puntos que corresponde a cada uno de los envases\n     *\n     * @return _pointsPack1 Puntos por pack1\n     * @return _pointsPack2 Puntos por pack2\n     * @return _pointsPack3 Puntos por pack3\n     **/\n    function getPointsPerPack() \n        public \n        view \n        returns(uint _pointsPack1, uint _pointsPack2, uint _pointsPack3) \n    {\n        _pointsPack1 = packaging[PACK1].pointsPerPack;\n        _pointsPack2 = packaging[PACK2].pointsPerPack;\n        _pointsPack3 = packaging[PACK3].pointsPerPack;\n    }\n\n    /**\n     * @dev Devuelve los valores utilizados en el clculo de puntos para un tipo de envase\n     *\n     * @param _ind Indice array de datos\n     * \n     * @return _pointsPerPack Puntos por envase\n     * @return _pointsMin Puntos mnimos permitidos\n     * @return _pointsMax Puntos mximo permitidos\n     * @return _priceMin Precio mnimo de referencia\n     * @return _priceMax Precio mximo de referencia\n     **/\n    function getValuesPerPack(uint _ind)\n        public\n        view\n        returns(uint _pointsPerPack, uint _pointsMin, uint _pointsMax, uint _priceMin, uint _priceMax)\n    {\n        require(_ind < PACKAGING_ITEMS, \"Index value is not valid\");\n        \n        _pointsPerPack = packaging[_ind].pointsPerPack;\n        _pointsMin = packaging[_ind].pointsMin;\n        _pointsMax = packaging[_ind].pointsMax;\n        _priceMin = packaging[_ind].priceMin;\n        _priceMax = packaging[_ind].priceMax;\n    }\n\n    /**\n     * @dev Devuelve los precios de referencia del Ether\n     *\n     * @return _priceMin Precio mnimo de referencia para el Ether\n     * @return _priceMax Precio mximo de referencia para el Ether\n     **/\n    function getEthValues()\n        public\n        view\n        returns(uint _priceMin, uint _priceMax)\n    {\n        _priceMin = priceEthMin;\n        _priceMax = priceEthMax;\n    }\n\n    /**\n     * @dev Devuelve otros valores utilizados en la gestin del orculo\n     *\n     * @return _blocksPeriod Frecuencia (en bloques) con que se revisarn los puntos a asignar por envase\n     * @return _blocksRequest Frecuencia mnima (en bloques) con la que se puede ejecutar una peticin del orculo\n     * @return _gasLimitLow Lmite de gas para peticiones con bajo consumo de gas\n     * @return _gasLimitMed Lmite de gas para peticiones con consumo medio de gas\n     * @return _gasLimitHigh Lmite de gas para peticiones con alto consumo de gas\n     **/\n    function getOtherValues()\n        public\n        view\n        returns(uint _blocksPeriod, uint _blocksRequest, uint _gasLimitLow, uint _gasLimitMed, uint _gasLimitHigh)\n    {\n        _blocksPeriod = blocksPeriod;\n        _blocksRequest = blocksRequest;\n        _gasLimitLow = gasLimitLow;\n        _gasLimitMed = gasLimitMed;\n        _gasLimitHigh = gasLimitHigh;\n    }\n\n    /**\n     * @dev Actualiza otros valores utilizados en la gestin del orculo\n     *\n     * @param _blocksPeriod Frecuencia (en bloques) con que se revisarn los puntos a asignar por envase\n     * @param _blocksRequest Frecuencia mnima (en bloques) con la que se puede ejecutar una peticin del orculo\n     * @param _gasLimitLow Lmite de gas para peticiones con bajo consumo de gas\n     * @param _gasLimitMed Lmite de gas para peticiones con consumo medio de gas\n     * @param _gasLimitHigh Lmite de gas para peticiones con alto consumo de gas\n     **/\n    function setOtherValues(uint _blocksPeriod, uint _blocksRequest, uint _gasLimitLow, uint _gasLimitMed, uint _gasLimitHigh)\n        public\n        onlyAdmin\n        whenNotPaused\n    {\n        setGasLimit(_gasLimitLow, _gasLimitMed, _gasLimitHigh);\n        setBlocksPeriod(_blocksPeriod);\n        setBlocksRequest(_blocksRequest);\n\n        emit otherValuesFullUpdate(address(this));\n    }\n\n    /**\n     * @dev Permite especificar el nmero de bloques que debern confirmarse antes de volver a actualizar la informacin de puntos.\n     *\n     * @param _blocksPeriod Nmero de bloques (Si _blocksPeriod = 0, se tomar el valor por defecto)\n     **/\n    function setBlocksPeriod(uint _blocksPeriod)\n        internal\n    {\n        if (_blocksPeriod == 0) {\n            blocksPeriod = BLOCKS_PERIOD;\n        } else {\n            blocksPeriod = _blocksPeriod;\n        }\n\n        emit blockPeriodUpdate(address(this), blocksPeriod);\n    }\n\n    /**\n     * @dev Permite especificar el nmero de bloques que debern confirmarse antes de volver a actualizar la informacin de puntos.\n     *\n     * @param _blocksRequest Nmero de bloques (Si _blocksPeriod = 0, se tomar el valor por defecto)\n     **/\n    function setBlocksRequest(uint _blocksRequest)\n        internal\n    {\n\n        if (_blocksRequest == 0) {\n            blocksRequest = BLOCKS_REQUEST_ALLOW;\n        } else {\n            blocksRequest = _blocksRequest;\n        }\n\n        emit blockRequestUpdate(address(this), blocksRequest);\n    }\n\n    /**\n     * @dev Actualiza las variables para el limite de gas utilizadas en el envo de queries al orculo\n     *\n     * Se establecen tres posibles niveles:\n     * @param _lowLimit Lmite bajo (Utilizado en DATE)\n     * @param _medLimit Lmite medio (Utilizado en RANDOM, USDEUR, OIL)\n     * @param _highLimit Lmite alto (Utilizado en ALUMINUM, ETHEUR, PET)\n     **/\n    function setGasLimit(uint _lowLimit, uint _medLimit, uint _highLimit)\n        internal\n    {\n        require(_lowLimit >= GAS_LIMIT_LOW, \"Gas limit (low) is too low\");\n        require(_lowLimit < _medLimit, \"Low limit must be lower than medium limit\");\n        require(_medLimit >= GAS_LIMIT_MED, \"Gas limit (med) is too low\");\n        require(_medLimit < _highLimit, \"Medium limit must be lower than high limit\");\n        require(_highLimit >= GAS_LIMIT_HIGH, \"Gas limit (high) is too low\");\n\n        gasLimitLow = _lowLimit;\n        gasLimitMed = _medLimit;\n        gasLimitHigh = _highLimit;\n\n        emit limitGasUpdate(address(this), gasLimitLow, gasLimitMed, gasLimitHigh);\n    }\n\n    /**\n     *\n     * @dev El clculo de los puntos se hace asumiendo 4 posiciones decimales para todos los campos con precios\n     *      Por tanto, para que un campo tenga el valor 1, se deber enviar 10000.\n     *\n     * @param _ind Indice del elemento dentro de packaging que se quiere modificar\n     * @param _pointsMin Nmero mnimo de puntos a entregar por cada envase\n     * @param _pointsMax Nmero mximo de puntos a entregar por cada envase\n     * @param _priceMin Valor mnimo del precio utilizado como referencia para el clculo de puntos\n     * @param _priceMax Valor mximo del precio utilizado como referencia para el clculo de puntos\n     **/\n    function setPointsPerPackaging(uint _ind, uint _pointsMin, uint _pointsMax, uint _priceMin, uint _priceMax)\n        public\n        onlyAdmin\n        whenNotPaused\n    {\n\t\trequire(_ind < PACKAGING_ITEMS, \"Index value is not valid\");\n\t\trequire(_pointsMin > 0, \"Minimun points value is not greater than zero\");\n\t\trequire(_pointsMax < MAX_VALUE_LIMIT, \"Maximun points value is not valid\");\n\t\trequire(_pointsMin <= _pointsMax, \"Values for points are not valid\");\n\t\trequire(_priceMin <= _priceMax, \"Value for prices are not valid\");\n\n        packaging[_ind].pointsPerPack = _pointsMin;\n        packaging[_ind].pointsMin = _pointsMin;\n        packaging[_ind].pointsMax = _pointsMax;\n        \n        if (_priceMin > 0) { packaging[_ind].priceMin = _priceMin; }\n        if (_priceMax > 0) { packaging[_ind].priceMax = _priceMax; }\n\n        emit packagingUpdate(address(this), _ind, _pointsMin, _pointsMin, _pointsMax, _priceMin, _priceMax);\n    }\n\n    /**\n     *\n     * @dev Unifica la actualizacin de los parmetros utilizados en el clculo automtico\n     *      de puntos por envase\n     *\n     * @param _pointsMin1 Nmero mnimo de puntos a entregar por cada envase\n     * @param _pointsMax1 Nmero mximo de puntos a entregar por cada envase\n     * @param _pointsMin2 Nmero mnimo de puntos a entregar por cada envase\n     * @param _pointsMax2 Nmero mximo de puntos a entregar por cada envase\n     * @param _pointsMin3 Nmero mnimo de puntos a entregar por cada envase\n     * @param _pointsMax3 Nmero mximo de puntos a entregar por cada envase\n     * @param _priceMinPet Valor mnimo del precio utilizado como referencia para el clculo de puntos\n     * @param _priceMaxPet Valor mximo del precio utilizado como referencia para el clculo de puntos\n     * @param _priceMinAlu Valor mnimo del precio utilizado como referencia para el clculo de puntos\n     * @param _priceMaxAlu Valor mximo del precio utilizado como referencia para el clculo de puntos\n     **/\n    function setPointsPackaging(\n        uint _pointsMin1, uint _pointsMax1,\n        uint _pointsMin2, uint _pointsMax2,\n        uint _pointsMin3, uint _pointsMax3,\n        uint _priceMinPet, uint _priceMaxPet,\n        uint _priceMinAlu, uint _priceMaxAlu\n    )\n        public\n        onlyAdmin\n        whenNotPaused\n    {\n        setPointsPerPackaging(PACK1, _pointsMin1, _pointsMax1, _priceMinPet, _priceMaxPet);\n        setPointsPerPackaging(PACK2, _pointsMin2, _pointsMax2, _priceMinPet, _priceMaxPet);\n        setPointsPerPackaging(PACK3, _pointsMin3, _pointsMax3, _priceMinAlu, _priceMaxAlu);\n\n        emit packagingFullUpdate(address(this));\n    }\n\n    /**\n     * @dev Actualiza los valores para el rango de precios del Ether utilizado como referencia para el clculo de puntos\n     *\n     * @param _priceEthMin Valor mnimo del precio del Ether utilizado como referencia para el clculo de puntos\n     * @param _priceEthMax Valor mximo del precio del Ether utilizado como referencia para el clculo de puntos\n     **/\n    function setRangeEthPrice(uint _priceEthMin, uint _priceEthMax) public onlyAdmin {\n\t\trequire(_priceEthMin > ONE_CENT, \"Minimun Ether price must be at least 1 cent\");\n\t\trequire(_priceEthMin <= _priceEthMax, \"Value for prices are not valid\");\n\n        priceEthMin = _priceEthMin;\n        priceEthMax = _priceEthMax;\n\n        // Calcula el rango entre precio mnimo y precio mximo del Ether\n        rangeEthPrice = priceEthMax.sub(priceEthMin);\n\n        emit ethPriceUpdate(address(this), priceEthMin, priceEthMax);\n    }\n\n    /**\n     * @dev Comprueba mediante el nmero del bloque si se deben actualizar los precios utilizados como referencia\n     *      para el clculo de puntos entregados por envase\n     **/\n\tfunction checkNextProcess() \n\t    public \n\t{\n\t\tif (prevBlock + blocksPeriod < block.number) {\n\n\t\t\tprevBlock = block.number;\n\n\t\t\tnewEthEurRateRequest(1);\n\t\t\tnewPetPriceRequest();\n\t\t\tnewAluminumPriceRequest();\n\t\t}\n\t}\n\n    /**\n     * @dev Trata la respuesta a la query enviada al orculo\n     **/\n    function __callback(\n        bytes32 _queryId,\n        string memory _result\n    )\n        public\n    {\n        require(msg.sender == provable_cbAddress(), 'Sender is not valid');\n        require(queryInProgress[_queryId].inProgress == true, 'Query not found');\n\n        if (queryInProgress[_queryId].qType == QueryType.RANDOM) {\n\n            randomNumber = parseInt(_result);\n            emit generatedRandomNumber(address(this), randomNumber);\n\n        } else if (queryInProgress[_queryId].qType == QueryType.OIL) {\n\n            oilPrice = parseInt(_result, DECIMAL_POS);\n            emit generateNewValue(address(this), \"OIL\", _result);\n\n        } else if (queryInProgress[_queryId].qType == QueryType.PET) {\n\n            petPrice = parseInt(_result, DECIMAL_POS);\n            emit generateNewValue(address(this), \"PET\", _result);\n\n        } else if (queryInProgress[_queryId].qType == QueryType.ALUMINUM) {\n\n            aluminumPrice = parseInt(_result, DECIMAL_POS);\n            emit generateNewValue(address(this), \"ALUMINUM\", _result);\n\n        } else if (queryInProgress[_queryId].qType == QueryType.ETHEUR) {\n\n            rateETHEUR = parseInt(_result, DECIMAL_POS);\n            emit generateNewValue(address(this), \"ETHEUR\", _result);\n\n        } else if (queryInProgress[_queryId].qType == QueryType.USDEUR) {\n\n            rateUSDEUR = parseInt(_result, DECIMAL_POS);\n            emit generateNewValue(address(this), \"USDEUR\", _result);\n\n        } else if (queryInProgress[_queryId].qType == QueryType.DATE) {\n\n            dateTime = _result;\n            emit currentDateTime(address(this), _result);\n\n        }\n\n        delete queryInProgress[_queryId];\n        countQueryInProgress = countQueryInProgress.sub(1);\n        \n        // Si ya se tiene el precio del plstico PET y del tipo de cambio ETH/EUR se calculan los puntos para los envases PET\n        if (petPrice > 0 && rateETHEUR > 0) {\n\n            packaging[PACK1] = calculatePointsReward(petPrice, rateETHEUR, packaging[PACK1]);\n            packaging[PACK2] = calculatePointsReward(petPrice, rateETHEUR, packaging[PACK2]);\n\n            emit newPointsReward(address(this), \"PACK1\", packaging[PACK1].pointsPerPack);\n            emit newPointsReward(address(this), \"PACK2\", packaging[PACK2].pointsPerPack);\n\n            petPrice = 0;\n        }\n\n        // Si ya se tiene el precio del aluminio y del tipo de cambio ETH/EUR se calculan los puntos para las latas\n        if (aluminumPrice > 0 && rateETHEUR > 0) {\n\n            packaging[PACK3] = calculatePointsReward(aluminumPrice, rateETHEUR, packaging[PACK3]);\n\n            emit newPointsReward(address(this), \"PACK3\", packaging[PACK3].pointsPerPack);\n\n            aluminumPrice = 0;\n        }\n    }\n\n    /**\n     * @dev Actualiza la cantidad de puntos a entregar por envase segn los parmetros de entrada\n     *\n     * @param _price Precio utilizado como referencia\n     * @param _priceEth Precio del Ether\n     * @param _ppp Variable struct con los valores asociados a los puntos\n     *\n     * @return _ppp Devuelve la variable struct actualizada\n     **/\n    function calculatePointsReward(\n        uint _price,\n        uint _priceEth,\n        PointsPerPackaging memory _ppp\n    )\n        internal\n        returns (PointsPerPackaging memory)\n    {\n\t\trequire(_price > 0, \"Price can not be zero\");\n\t\trequire(_priceEth > 0, \"Ether price can not be zero\");\n\n        uint _rangePoints = 0;\n        uint _rangePrice = 0;\n        uint _diffPrice = 0;\n        uint _diffEthPrice = 0;\n        uint _pointsPerPrice = 0;\n        uint _pointsPerEth = 0;\n\n        // ** Calcula diferencia entre el precio mnimo y el precio actual de referencia\n        if (_ppp.priceMin < _price && _ppp.priceMin != 0) {\n            _diffPrice = _price.sub(_ppp.priceMin);\n            if (_ppp.priceMax < _price) {\n                _ppp.priceMax = _price;\n            }\n        } else {\n            _ppp.priceMin = _price;\n        }\n\n        // ** Calcula diferencia entre el precio mnimo y el precio actual del Ether\n        if (priceEthMin < _priceEth && priceEthMin != 0) {\n            _diffEthPrice = _priceEth.sub(priceEthMin);\n         } else {\n            priceEthMin = _priceEth;\n        }\n\n        if (priceEthMax < _priceEth) {\n            priceEthMax = _priceEth;\n        }\n        rangeEthPrice = priceEthMax.sub(priceEthMin);\n\n        // ** Calcula rango entre precio mnimo y precio mximo\n        if (_ppp.priceMin < _ppp.priceMax) {\n            _rangePrice = _ppp.priceMax.sub(_ppp.priceMin);\n        } else {\n            _ppp.priceMax = _ppp.priceMin;\n        }\n\n        // ** Calcula el rango entre el mnimo y mximo de puntos que se pueden asignar\n        if (_ppp.pointsMin < _ppp.pointsMax) {\n\n            _rangePoints = _ppp.pointsMax.sub(_ppp.pointsMin);\n\n\t\t\t// ** Calcula el reparto del rango de precios entre el rango de puntos (tramos) y\n\t\t\t// ** en base a ellos calcula el factor que indica el tramo del precio actual\n\t\t\t// ** Multiplica por DEC_POS_DIV para no perder los decimales\n\t\t\tif (_rangePrice > 0) {\n\t\t\t\t_pointsPerPrice = _diffPrice.mul(DEC_POS_DIV).div(_rangePrice.div(_rangePoints));\n\t\t\t}\n\n\t\t\tif (rangeEthPrice > 0){\n\t\t\t\t_pointsPerEth = _diffEthPrice.mul(DEC_POS_DIV).div(rangeEthPrice.div(_rangePoints));\n\t\t\t}\n\n        } else {\n            _ppp.pointsMax = _ppp.pointsMin;\n        }\n\n        // ** Puntos = Puntos mnimos + factor - factor Eth\n        _ppp.pointsPerPack = _ppp.pointsMin.mul(DEC_POS_DIV).add(_pointsPerPrice).sub(_pointsPerEth).div(DEC_POS_DIV);\n\n        // ** Se valida se mantenga en el rango de puntos establecidos\n        if (_ppp.pointsPerPack < _ppp.pointsMin) {\n            _ppp.pointsPerPack = _ppp.pointsMin;\n        } else if (_ppp.pointsPerPack > _ppp.pointsMax) {\n            _ppp.pointsPerPack = _ppp.pointsMax;\n        }\n\n        return (_ppp);\n    }\n\n    /**\n     * @dev Prepara query para solicitar nmero aleatorio\n     *\n     * @param _min Valor mnimo del rango\n     * @param _max Valor mximo del rango\n     */\n    function newRandomRequest(uint _min, uint _max)\n        public\n        onlyAdmin\n        checkLastRequest(lastReqRANDOM)\n    {\n        require(_max > _min, \"Max value is not greater than Min value\");\n\n        string memory query = string(abi.encodePacked(\"https://www.random.org/integers/?num=1&min=\", uint2str(_min), \"&max=\", uint2str(_max), \"&col=1&base=10&format=plain&rnd=new\"));\n        queryURLRequest(query, QueryType.RANDOM, gasLimitMed);\n        lastReqRANDOM = block.number;\n    }\n\n    /**\n     * @dev Prepara query para convertir un importe en Ethers a Euros\n     *\n     * @param _amount Importe a convertir (1 para obtener tipo de cambio)\n     */\n    function newEthEurRateRequest(uint _amount)\n        internal\n        checkLastRequest(lastReqETHEUR)\n    {\n        require(_amount > 0, \"Amount is not greater than zero\");\n\n        // ** Se construye la query con el importe (_amount) enviado como parmetro\n        // ** La apiKey ha sido cifrada con la clave pblica de Provable\n        string memory query = string(abi.encodePacked(\"[URL] ['json(https://pro-api.coinmarketcap.com/v1/tools/price-conversion?amount=\", uint2str(_amount),\"&symbol=ETH&convert=EUR&CMC_PRO_API_KEY=${[decrypt] BOHAYhxT0NfxZXzIaeKPXxscUr8RIKD/X4XaQaRzTHhQev26txxN7e3sKijA5kEecTRJyH24mVzHBKi5C/DgQeujq8JJ1kZxAgao0wweVQVhltOzlgv6w4FwF5Jxb8agph+BvdHzGpJPPXm9g6QBd1BNvFny}).data.quote.EUR.price']\"));\n\n        queryNestedRequest(query, QueryType.ETHEUR, gasLimitHigh);\n        lastReqETHEUR = block.number;\n    }\n\n    /**\n     * @dev Prepara query para convertir un importe en US Dolars a Euros\n     *\n     * @param _amount Importe a convertir (1 para obtener tipo de cambio)\n     **/\n    function newUsdEurRateRequest(uint _amount)\n        public\n        onlyAdmin\n        checkLastRequest(lastReqUSDEUR)\n    {\n        require(_amount > 0, \"Amount is not greater than zero\");\n\n        // ** Se construye la query con el importe (_amount) enviado como parmetro\n        // ** La apiKey ha sido cifrada con la clave pblica de Provable\n        string memory query = string(abi.encodePacked(\"[URL] ['json(https://pro-api.coinmarketcap.com/v1/tools/price-conversion?amount=\", uint2str(_amount),\"&symbol=USD&convert=EUR&CMC_PRO_API_KEY=${[decrypt] BOHAYhxT0NfxZXzIaeKPXxscUr8RIKD/X4XaQaRzTHhQev26txxN7e3sKijA5kEecTRJyH24mVzHBKi5C/DgQeujq8JJ1kZxAgao0wweVQVhltOzlgv6w4FwF5Jxb8agph+BvdHzGpJPPXm9g6QBd1BNvFny}).data.quote.EUR.price']\"));\n\n        queryNestedRequest(query, QueryType.USDEUR, gasLimitMed);\n        lastReqUSDEUR = block.number;\n    }\n\n    function newPetPriceRequest()\n        internal\n        checkLastRequest(lastReqPET)\n    {\n        string memory query = string(abi.encodePacked(\"[URL] ['json(https://my-json-server.typicode.com/${[decrypt] BId5SdP7IJdwRuOSVDMiWAUu+yIgSahwVggfaOxduiOfFeZGcVEb9ITMP0C9MpPm+0lbzzD5KactQjmWSEcq4t3N9nCyqed0MEI0D90KAzLJEiT4M7OOgrfPW2xBPRXEBxoS}).0.price.EUR']\"));\n\n        queryNestedRequest(query, QueryType.PET, gasLimitHigh);\n        lastReqPET = block.number;\n    }\n\n    function newAluminumPriceRequest()\n        internal\n        checkLastRequest(lastReqALUMINUM)\n    {\n        // La apiKey ha sido cifrada con la clave pblica de Provable\n        string memory query = string(abi.encodePacked(\"[URL] ['json(https://www.quandl.com/api/v3/datasets/ODA/PALUM_USD?api_key=${[decrypt] BOXY3msLJlb2O00l9QGbgb+mvJ5sCXNN7muPX1hkIm+cp5LdaVCBmejjb0ctJWuABkjwwlRHeQYsbSg3dmzpznbOquGoXFof0XAL3df8QU/oZzKLp+kFOZvNBXqgxMlh4n+wr9Q=}&rows=1).dataset.data.0.1']\"));\n\n        queryNestedRequest(query, QueryType.ALUMINUM, gasLimitHigh);\n        lastReqALUMINUM = block.number;\n    }\n\n    function newOilPriceRequest()\n        public\n        onlyAdmin\n        checkLastRequest(lastReqOIL)\n    {\n        // La apiKey ha sido cifrada con la clave pblica de Provable\n        string memory query = string(abi.encodePacked(\"[URL] ['json(https://www.quandl.com/api/v3/datasets/OPEC/ORB?api_key=${[decrypt] BOXY3msLJlb2O00l9QGbgb+mvJ5sCXNN7muPX1hkIm+cp5LdaVCBmejjb0ctJWuABkjwwlRHeQYsbSg3dmzpznbOquGoXFof0XAL3df8QU/oZzKLp+kFOZvNBXqgxMlh4n+wr9Q=}&rows=1).dataset.data.0.1']\"));\n\n        queryNestedRequest(query, QueryType.OIL, gasLimitMed);\n        lastReqOIL = block.number;\n    }\n\n    function getCurrentDateTime()\n        public\n        onlyAdmin\n        checkLastRequest(lastReqDATE)\n    {\n        string memory query = \"json(http://worldclockapi.com/api/json/utc/now).currentDateTime\";\n\n        queryURLRequest(query, QueryType.DATE, gasLimitLow);\n        lastReqDATE = block.number;\n    }\n\n    /**\n     *\n     * @dev Envo de query al orculo con una URL simple\n     *\n     * @param _query Query a enviar\n     * @param _qType Tipo de query que se enva (para control en callback)\n     * @param _gasLimit Lmite de gas\n     */\n    function queryURLRequest(string memory _query, QueryType _qType, uint _gasLimit) \n        internal \n    {\n        require(bytes(_query).length > 0, \"Query is empty\");\n\n        bytes32 _queryId;\n\n        // ** Comprobamos si el contrato tiene saldo suficiente para el pago de la llamada al orculo\n        if (provable_getPrice(\"URL\", _gasLimit) > address(this).balance) {\n\n            emit LogNewProvableQuery(address(this), \"Provable query was NOT sent, please add some ETH to cover for the query fee\");\n            revert(\"ETH balance is not enough to cover for the query fee\");\n\n        } else {\n\n            _queryId = provable_query(\"URL\", _query, _gasLimit);\n\n            emit LogNewProvableQuery(address(this), \"Provable URL query was sent, standing by for the answer...\");\n\n            includeQueryInProgress(_queryId, _qType);\n        }\n    }\n\n    /**\n     * @dev Envo de query al orculo con una URL compuesta (Nested - con parmetros o datos cifrados)\n     *\n     * @param _query Query a enviar\n     * @param _qType Tipo de query que se enva (para control en callback)\n     * @param _gasLimit Lmite de gas\n     */\n    function queryNestedRequest(string memory _query, QueryType _qType, uint _gasLimit) \n        internal \n    {\n        require(bytes(_query).length > 0, \"Query is empty\");\n\n        bytes32 _queryId;\n\n        // ** Comprobamos si el contrato tiene saldo suficiente para el pago de la llamada al orculo\n        if (provable_getPrice(\"NESTED\", _gasLimit) > address(this).balance) {\n\n            emit LogNewProvableQuery(address(this), \"Provable query was NOT sent, please add some ETH to cover for the query fee\");\n            revert(\"ETH balance is not enough to cover for the query fee\");\n\n        } else {\n\n            // Enviamos la query a Provable y guardamos el Id para tratarlo en el callback\n            _queryId = provable_query(\"nested\", _query, _gasLimit);\n\n            emit LogNewProvableQuery(address(this), \"Provable NESTED query was sent, standing by for the answer...\");\n\n            includeQueryInProgress(_queryId, _qType);\n        }\n    }\n\n    /**\n     * @dev Guarda el identificado de una query (peticin) enviada al orculo\n     * \n     * @param _queryId Identificador\n     * @param _qType Tipo de query enviada\n     **/\n    function includeQueryInProgress(bytes32  _queryId, QueryType _qType) \n        internal \n    {\n        queryInProgress[_queryId].inProgress = true;\n        queryInProgress[_queryId].qType = _qType;\n        countQueryInProgress = countQueryInProgress.add(1);\n    }\n    \n\n    /**\n     * @dev Inicializa con el valor 1 los puntos que se asignarn por defecto a los distintos tipos de envases\n     **/\n    function initializePointsArray() \n        internal \n    {\n        for (uint _ind = 0; _ind < PACKAGING_ITEMS; _ind++) {\n            packaging[_ind].pointsPerPack = 1;\n            packaging[_ind].pointsMin = 1;\n            packaging[_ind].pointsMax = 1;\n        }\n    }    \n\n    /**\n      * @dev Funcin utilizada para transferir fondos (Ethers) al contrato\n      *\n      * @param _message  Mensaje que se desea enviar\n      * @return _message Devuelve el mismo mensaje de entrada\n      */\n    function setFunds(string memory _message) \n        public \n        payable \n        returns(string memory) \n    {\n        require (msg.value > 0, \"value is not greater than zero\");\n\n        return _message;\n    }\n\n    /**\n      * @dev Funcin para transferir el saldo en Ethers del contrato al owner\n      *\n      * @param _amount Importe a transferir\n      */\n    function transfer(uint _amount) \n        public \n        onlyAdmin \n    {\n        require (getContractBalance() >= _amount, \"not enough balance\");\n\n        owner.transfer(_amount);\n    }\n\n    /**\n      * @dev Funcin para consultar el saldo en Ethers del contrato (necesario para el pago de gas para el Orculo)\n      *\n      * @return Saldo tokens de la cuenta con que se est trabajando\n      */\n    function getContractBalance() \n        public \n        view \n        returns(uint) \n    {\n        return address(this).balance;\n    }\n    \n    /**\n      * @dev Fallback function - Called if other functions don't match call or\n      * sent ether without data\n      * Typically, called when invalid data is sent\n      * Added so ether sent to this contract is reverted if the contract fails\n      * otherwise, the sender's money is transferred to contract\n      */\n    function () \n        external \n        payable \n    {\n        revert(\"Fallback function\");\n    }\n}",
  "sourcePath": "/home/lealp22/webpack2/contracts/CustomOracle.sol",
  "compiler": {
    "name": "solc",
    "version": "0.5.1+commit.c8a2cb62.Emscripten.clang"
  },
  "schemaVersion": "3.0.11",
  "updatedAt": "2020-01-06T23:22:48.624Z",
  "devdoc": {
    "methods": {
      "__callback(bytes32,string)": {
        "details": "Trata la respuesta a la query enviada al orculo*"
      },
      "calculatePoints(uint256,uint256,uint256)": {
        "details": "Calcula el total de puntos que corresponden segn la cantidad de envases entregados",
        "params": {
          "_pack1Qty": "Cantidad envases pack1",
          "_pack2Qty": "Cantidad envases pack2",
          "_pack3Qty": "Cantidad envases pack3"
        },
        "return": "_totalPoints Total de puntos     *"
      },
      "checkNextProcess()": {
        "details": "Comprueba mediante el nmero del bloque si se deben actualizar los precios utilizados como referencia     para el clculo de puntos entregados por envase*"
      },
      "constructor": {
        "details": "Constructor*"
      },
      "getContractBalance()": {
        "details": "Funcin para consultar el saldo en Ethers del contrato (necesario para el pago de gas para el Orculo)",
        "return": "Saldo tokens de la cuenta con que se est trabajando"
      },
      "getEthValues()": {
        "details": "Devuelve los precios de referencia del Ether",
        "return": "_priceMin Precio mnimo de referencia para el Ether_priceMax Precio mximo de referencia para el Ether*"
      },
      "getOtherValues()": {
        "details": "Devuelve otros valores utilizados en la gestin del orculo",
        "return": "_blocksPeriod Frecuencia (en bloques) con que se revisarn los puntos a asignar por envase_blocksRequest Frecuencia mnima (en bloques) con la que se puede ejecutar una peticin del orculo_gasLimitLow Lmite de gas para peticiones con bajo consumo de gas_gasLimitMed Lmite de gas para peticiones con consumo medio de gas_gasLimitHigh Lmite de gas para peticiones con alto consumo de gas*"
      },
      "getPointsPerPack()": {
        "details": "Devuelve el nmero de puntos que corresponde a cada uno de los envases",
        "return": "_pointsPack1 Puntos por pack1_pointsPack2 Puntos por pack2_pointsPack3 Puntos por pack3*"
      },
      "getValuesPerPack(uint256)": {
        "details": "Devuelve los valores utilizados en el clculo de puntos para un tipo de envase",
        "params": {
          "_ind": "Indice array de datos "
        },
        "return": "_pointsPerPack Puntos por envase_pointsMin Puntos mnimos permitidos_pointsMax Puntos mximo permitidos_priceMin Precio mnimo de referencia_priceMax Precio mximo de referencia*"
      },
      "newRandomRequest(uint256,uint256)": {
        "details": "Prepara query para solicitar nmero aleatorio",
        "params": {
          "_max": "Valor mximo del rango",
          "_min": "Valor mnimo del rango"
        }
      },
      "newUsdEurRateRequest(uint256)": {
        "details": "Prepara query para convertir un importe en US Dolars a Euros",
        "params": {
          "_amount": "Importe a convertir (1 para obtener tipo de cambio)*"
        }
      },
      "pause()": {
        "details": "Called by a pauser to pause, triggers stopped state."
      },
      "paused()": {
        "details": "Returns true if the contract is paused, and false otherwise."
      },
      "setFunds(string)": {
        "details": "Funcin utilizada para transferir fondos (Ethers) al contrato",
        "params": {
          "_message": "Mensaje que se desea enviar"
        },
        "return": "_message Devuelve el mismo mensaje de entrada"
      },
      "setOtherValues(uint256,uint256,uint256,uint256,uint256)": {
        "details": "Actualiza otros valores utilizados en la gestin del orculo",
        "params": {
          "_blocksPeriod": "Frecuencia (en bloques) con que se revisarn los puntos a asignar por envase",
          "_blocksRequest": "Frecuencia mnima (en bloques) con la que se puede ejecutar una peticin del orculo",
          "_gasLimitHigh": "Lmite de gas para peticiones con alto consumo de gas*",
          "_gasLimitLow": "Lmite de gas para peticiones con bajo consumo de gas",
          "_gasLimitMed": "Lmite de gas para peticiones con consumo medio de gas"
        }
      },
      "setPointsPackaging(uint256,uint256,uint256,uint256,uint256,uint256,uint256,uint256,uint256,uint256)": {
        "details": "Unifica la actualizacin de los parmetros utilizados en el clculo automtico     de puntos por envase",
        "params": {
          "_pointsMax1": "Nmero mximo de puntos a entregar por cada envase",
          "_pointsMax2": "Nmero mximo de puntos a entregar por cada envase",
          "_pointsMax3": "Nmero mximo de puntos a entregar por cada envase",
          "_pointsMin1": "Nmero mnimo de puntos a entregar por cada envase",
          "_pointsMin2": "Nmero mnimo de puntos a entregar por cada envase",
          "_pointsMin3": "Nmero mnimo de puntos a entregar por cada envase",
          "_priceMaxAlu": "Valor mximo del precio utilizado como referencia para el clculo de puntos*",
          "_priceMaxPet": "Valor mximo del precio utilizado como referencia para el clculo de puntos",
          "_priceMinAlu": "Valor mnimo del precio utilizado como referencia para el clculo de puntos",
          "_priceMinPet": "Valor mnimo del precio utilizado como referencia para el clculo de puntos"
        }
      },
      "setPointsPerPackaging(uint256,uint256,uint256,uint256,uint256)": {
        "details": "El clculo de los puntos se hace asumiendo 4 posiciones decimales para todos los campos con precios     Por tanto, para que un campo tenga el valor 1, se deber enviar 10000.",
        "params": {
          "_ind": "Indice del elemento dentro de packaging que se quiere modificar",
          "_pointsMax": "Nmero mximo de puntos a entregar por cada envase",
          "_pointsMin": "Nmero mnimo de puntos a entregar por cada envase",
          "_priceMax": "Valor mximo del precio utilizado como referencia para el clculo de puntos*",
          "_priceMin": "Valor mnimo del precio utilizado como referencia para el clculo de puntos"
        }
      },
      "setRangeEthPrice(uint256,uint256)": {
        "details": "Actualiza los valores para el rango de precios del Ether utilizado como referencia para el clculo de puntos",
        "params": {
          "_priceEthMax": "Valor mximo del precio del Ether utilizado como referencia para el clculo de puntos*",
          "_priceEthMin": "Valor mnimo del precio del Ether utilizado como referencia para el clculo de puntos"
        }
      },
      "transfer(uint256)": {
        "details": "Funcin para transferir el saldo en Ethers del contrato al owner",
        "params": {
          "_amount": "Importe a transferir"
        }
      },
      "unpause()": {
        "details": "Called by a pauser to unpause, returns to normal state."
      }
    }
  },
  "userdoc": {
    "methods": {}
  }
}