{
  "contractName": "Associated_FC",
  "abi": [
    {
      "constant": true,
      "inputs": [
        {
          "name": "",
          "type": "address"
        }
      ],
      "name": "listContainers",
      "outputs": [
        {
          "name": "seqId",
          "type": "uint256"
        },
        {
          "name": "nameRef",
          "type": "bytes32"
        },
        {
          "name": "insideItems",
          "type": "uint256"
        },
        {
          "name": "exchangedItems",
          "type": "uint256"
        },
        {
          "name": "generatedPoints",
          "type": "uint256"
        },
        {
          "name": "txCount",
          "type": "uint256"
        },
        {
          "name": "pack1",
          "type": "uint256"
        },
        {
          "name": "pack2",
          "type": "uint256"
        },
        {
          "name": "pack3",
          "type": "uint256"
        },
        {
          "name": "startDate",
          "type": "uint256"
        },
        {
          "name": "stateDate",
          "type": "uint256"
        },
        {
          "name": "isEnable",
          "type": "bool"
        },
        {
          "name": "associated",
          "type": "address"
        }
      ],
      "payable": false,
      "stateMutability": "view",
      "type": "function"
    },
    {
      "constant": true,
      "inputs": [
        {
          "name": "account",
          "type": "address"
        }
      ],
      "name": "isAdmin",
      "outputs": [
        {
          "name": "",
          "type": "bool"
        }
      ],
      "payable": false,
      "stateMutability": "view",
      "type": "function"
    },
    {
      "constant": false,
      "inputs": [],
      "name": "unpause",
      "outputs": [],
      "payable": false,
      "stateMutability": "nonpayable",
      "type": "function"
    },
    {
      "constant": true,
      "inputs": [],
      "name": "paused",
      "outputs": [
        {
          "name": "",
          "type": "bool"
        }
      ],
      "payable": false,
      "stateMutability": "view",
      "type": "function"
    },
    {
      "constant": true,
      "inputs": [
        {
          "name": "account",
          "type": "address"
        }
      ],
      "name": "isMngr",
      "outputs": [
        {
          "name": "",
          "type": "bool"
        }
      ],
      "payable": false,
      "stateMutability": "view",
      "type": "function"
    },
    {
      "constant": false,
      "inputs": [],
      "name": "renounceMngr",
      "outputs": [],
      "payable": false,
      "stateMutability": "nonpayable",
      "type": "function"
    },
    {
      "constant": false,
      "inputs": [
        {
          "name": "account",
          "type": "address"
        }
      ],
      "name": "addAdmin",
      "outputs": [],
      "payable": false,
      "stateMutability": "nonpayable",
      "type": "function"
    },
    {
      "constant": false,
      "inputs": [
        {
          "name": "account",
          "type": "address"
        }
      ],
      "name": "addMngr",
      "outputs": [],
      "payable": false,
      "stateMutability": "nonpayable",
      "type": "function"
    },
    {
      "constant": false,
      "inputs": [],
      "name": "pause",
      "outputs": [],
      "payable": false,
      "stateMutability": "nonpayable",
      "type": "function"
    },
    {
      "constant": false,
      "inputs": [],
      "name": "renounceAdmin",
      "outputs": [],
      "payable": false,
      "stateMutability": "nonpayable",
      "type": "function"
    },
    {
      "inputs": [
        {
          "name": "_hashAssociatedName",
          "type": "bytes32"
        },
        {
          "name": "_associatedAddress",
          "type": "address"
        }
      ],
      "payable": true,
      "stateMutability": "payable",
      "type": "constructor"
    },
    {
      "anonymous": false,
      "inputs": [
        {
          "indexed": true,
          "name": "container_address",
          "type": "address"
        },
        {
          "indexed": true,
          "name": "hashName",
          "type": "bytes32"
        },
        {
          "indexed": false,
          "name": "points",
          "type": "uint256"
        }
      ],
      "name": "Generate",
      "type": "event"
    },
    {
      "anonymous": false,
      "inputs": [
        {
          "indexed": true,
          "name": "account",
          "type": "address"
        }
      ],
      "name": "AdminAdded",
      "type": "event"
    },
    {
      "anonymous": false,
      "inputs": [
        {
          "indexed": true,
          "name": "account",
          "type": "address"
        }
      ],
      "name": "AdminRemoved",
      "type": "event"
    },
    {
      "anonymous": false,
      "inputs": [
        {
          "indexed": false,
          "name": "account",
          "type": "address"
        }
      ],
      "name": "Paused",
      "type": "event"
    },
    {
      "anonymous": false,
      "inputs": [
        {
          "indexed": false,
          "name": "account",
          "type": "address"
        }
      ],
      "name": "Unpaused",
      "type": "event"
    },
    {
      "anonymous": false,
      "inputs": [
        {
          "indexed": true,
          "name": "account",
          "type": "address"
        }
      ],
      "name": "MngrAdded",
      "type": "event"
    },
    {
      "anonymous": false,
      "inputs": [
        {
          "indexed": true,
          "name": "account",
          "type": "address"
        }
      ],
      "name": "MngrRemoved",
      "type": "event"
    },
    {
      "constant": true,
      "inputs": [],
      "name": "getAssociatedInfo",
      "outputs": [
        {
          "name": "_generatedPoints",
          "type": "uint256"
        },
        {
          "name": "_exchangedPoints",
          "type": "uint256"
        },
        {
          "name": "_exchangedItems",
          "type": "uint256"
        },
        {
          "name": "_clearedPoints",
          "type": "uint256"
        },
        {
          "name": "_pack1",
          "type": "uint256"
        },
        {
          "name": "_pack2",
          "type": "uint256"
        },
        {
          "name": "_pack3",
          "type": "uint256"
        }
      ],
      "payable": false,
      "stateMutability": "view",
      "type": "function"
    },
    {
      "constant": false,
      "inputs": [
        {
          "name": "_nameRef",
          "type": "bytes32"
        },
        {
          "name": "_container_address",
          "type": "address"
        }
      ],
      "name": "addContainer",
      "outputs": [],
      "payable": false,
      "stateMutability": "nonpayable",
      "type": "function"
    },
    {
      "constant": true,
      "inputs": [],
      "name": "getContainerList",
      "outputs": [
        {
          "name": "",
          "type": "address[]"
        }
      ],
      "payable": false,
      "stateMutability": "view",
      "type": "function"
    },
    {
      "constant": false,
      "inputs": [
        {
          "name": "_userHashcode",
          "type": "bytes32"
        },
        {
          "name": "_hashedSecret",
          "type": "bytes32"
        },
        {
          "name": "_amount",
          "type": "uint256"
        }
      ],
      "name": "exchangePoints",
      "outputs": [
        {
          "name": "",
          "type": "bool"
        }
      ],
      "payable": false,
      "stateMutability": "nonpayable",
      "type": "function"
    },
    {
      "constant": false,
      "inputs": [
        {
          "name": "_amount",
          "type": "uint256"
        }
      ],
      "name": "clearPoints",
      "outputs": [
        {
          "name": "",
          "type": "bool"
        }
      ],
      "payable": false,
      "stateMutability": "nonpayable",
      "type": "function"
    },
    {
      "constant": true,
      "inputs": [
        {
          "name": "_userHashcode",
          "type": "bytes32"
        }
      ],
      "name": "getUserBalance",
      "outputs": [
        {
          "name": "",
          "type": "uint256"
        }
      ],
      "payable": false,
      "stateMutability": "view",
      "type": "function"
    },
    {
      "constant": false,
      "inputs": [
        {
          "name": "_hashUserName",
          "type": "bytes32"
        },
        {
          "name": "_hashedSecret",
          "type": "bytes32"
        },
        {
          "name": "_pack1",
          "type": "uint256"
        },
        {
          "name": "_pack2",
          "type": "uint256"
        },
        {
          "name": "_pack3",
          "type": "uint256"
        }
      ],
      "name": "packagingCollection",
      "outputs": [
        {
          "name": "",
          "type": "bool"
        }
      ],
      "payable": false,
      "stateMutability": "nonpayable",
      "type": "function"
    },
    {
      "constant": true,
      "inputs": [
        {
          "name": "_container",
          "type": "address"
        }
      ],
      "name": "isEnableContainer",
      "outputs": [
        {
          "name": "",
          "type": "bool"
        }
      ],
      "payable": false,
      "stateMutability": "view",
      "type": "function"
    },
    {
      "constant": false,
      "inputs": [
        {
          "name": "_container",
          "type": "address"
        }
      ],
      "name": "enableContainer",
      "outputs": [],
      "payable": false,
      "stateMutability": "nonpayable",
      "type": "function"
    },
    {
      "constant": false,
      "inputs": [
        {
          "name": "_container",
          "type": "address"
        }
      ],
      "name": "disableContainer",
      "outputs": [],
      "payable": false,
      "stateMutability": "nonpayable",
      "type": "function"
    },
    {
      "constant": false,
      "inputs": [
        {
          "name": "_hashAssociatedName",
          "type": "bytes32"
        },
        {
          "name": "_QR",
          "type": "bytes32"
        },
        {
          "name": "_associated",
          "type": "address"
        },
        {
          "name": "_nameRef",
          "type": "bytes32"
        },
        {
          "name": "_pack1",
          "type": "uint256"
        },
        {
          "name": "_pack2",
          "type": "uint256"
        },
        {
          "name": "_pack3",
          "type": "uint256"
        }
      ],
      "name": "addRecycledBag",
      "outputs": [
        {
          "name": "",
          "type": "bool"
        }
      ],
      "payable": false,
      "stateMutability": "nonpayable",
      "type": "function"
    }
  ],
  "bytecode": "0x608060408181528062002340833981018060405260408110156200002257600080fd5b5080516020909101516200005162000042640100000000620000cb810204565b640100000000620000cf810204565b6001805460ff191690556200008162000072640100000000620000cb810204565b64010000000062000121810204565b600d805433600160a060020a031991821617909155600b83905560108054909116600160a060020a038316179055620000c38164010000000062000173810204565b50506200034c565b3390565b620000ea60008264010000000062001ef36200024482021704565b604051600160a060020a038216907f2db8f49e9d09fbba330ecc87b42d650f16bdabefeab9a35300dbf34bd8d4ec3190600090a250565b6200013c60028264010000000062001ef36200024482021704565b604051600160a060020a038216907f44d6d25963f097ad14f29f06854a01f575648a1ef82f30e562ccd3889717e33990600090a250565b620001996200018a640100000000620000cb810204565b64010000000062000269810204565b15156200022d57604080517f08c379a000000000000000000000000000000000000000000000000000000000815260206004820152602e60248201527f41646d696e526f6c653a2063616c6c657220646f6573206e6f7420686176652060448201527f7468652041646d696e20726f6c65000000000000000000000000000000000000606482015290519081900360840190fd5b620002418164010000000062000121810204565b50565b600160a060020a0316600090815260209190915260409020805460ff19166001179055565b60006200028660028364010000000062001b546200028c82021704565b92915050565b6000600160a060020a03821615156200032c57604080517f08c379a000000000000000000000000000000000000000000000000000000000815260206004820152602260248201527f526f6c65733a206163636f756e7420697320746865207a65726f20616464726560448201527f7373000000000000000000000000000000000000000000000000000000000000606482015290519081900360840190fd5b50600160a060020a03166000908152602091909152604090205460ff1690565b611fe4806200035c6000396000f3fe608060405260043610610116577c010000000000000000000000000000000000000000000000000000000060003504630b5a0626811461011b57806324d7806c146101be5780633f4ba83a1461020557806348e5235c1461021c5780635c975abb1461028157806361e4258e14610296578063649b6e3d146102c95780636ffc3903146102fc57806370480275146103115780637af17ee91461034457806380d22fc61461037757806381530c04146103aa5780638456cb59146103e05780638bad0c0a146103f55780639abb21951461040a578063a5ff72b61461043d578063acb2777d14610467578063b6e9c2ac146104a0578063bc91b4cf146104dc578063c2fefe831461051e578063f6216f031461056b575b600080fd5b34801561012757600080fd5b5061014e6004803603602081101561013e57600080fd5b5035600160a060020a03166105c2565b604080519d8e5260208e019c909c528c8c019a909a5260608c019890985260808b019690965260a08a019490945260c089019290925260e08801526101008701526101208601526101408501521515610160840152600160a060020a031661018083015251908190036101a00190f35b3480156101ca57600080fd5b506101f1600480360360208110156101e157600080fd5b5035600160a060020a0316610634565b604080519115158252519081900360200190f35b34801561021157600080fd5b5061021a61064d565b005b34801561022857600080fd5b50610231610761565b60408051602080825283518183015283519192839290830191858101910280838360005b8381101561026d578181015183820152602001610255565b505050509050019250505060405180910390f35b34801561028d57600080fd5b506101f16107c3565b3480156102a257600080fd5b506101f1600480360360208110156102b957600080fd5b5035600160a060020a03166107cc565b3480156102d557600080fd5b506101f1600480360360208110156102ec57600080fd5b5035600160a060020a0316610850565b34801561030857600080fd5b5061021a610862565b34801561031d57600080fd5b5061021a6004803603602081101561033457600080fd5b5035600160a060020a0316610874565b34801561035057600080fd5b5061021a6004803603602081101561036757600080fd5b5035600160a060020a03166108e8565b34801561038357600080fd5b5061021a6004803603602081101561039a57600080fd5b5035600160a060020a0316610a35565b3480156103b657600080fd5b506101f1600480360360608110156103cd57600080fd5b5080359060208101359060400135610aa1565b3480156103ec57600080fd5b5061021a610c2e565b34801561040157600080fd5b5061021a610d0f565b34801561041657600080fd5b5061021a6004803603602081101561042d57600080fd5b5035600160a060020a0316610d1f565b34801561044957600080fd5b506101f16004803603602081101561046057600080fd5b5035610e6a565b34801561047357600080fd5b5061021a6004803603604081101561048a57600080fd5b5080359060200135600160a060020a0316610fa9565b3480156104ac57600080fd5b506104ca600480360360208110156104c357600080fd5b503561138a565b60408051918252519081900360200190f35b3480156104e857600080fd5b506101f1600480360360a08110156104ff57600080fd5b5080359060208101359060408101359060608101359060800135611421565b34801561052a57600080fd5b506105336118df565b604080519788526020880196909652868601949094526060860192909252608085015260a084015260c0830152519081900360e00190f35b34801561057757600080fd5b506101f1600480360360e081101561058e57600080fd5b50803590602081013590600160a060020a036040820135169060608101359060808101359060a08101359060c001356118fd565b600e60205260009081526040902080546001820154600283015460038401546004850154600586015460068701546007880154600889015460098a0154600a8b0154600b909b0154999a98999798969795969495939492939192909160ff8116906101009004600160a060020a03168d565b600061064760028363ffffffff611b5416565b92915050565b61065d610658611bfc565b610850565b15156106b5576040805160e560020a62461bcd02815260206004820152602c6024820152600080516020611f398339815191526044820152600080516020611f19833981519152606482015290519081900360840190fd5b60015460ff161515610711576040805160e560020a62461bcd02815260206004820152601460248201527f5061757361626c653a206e6f7420706175736564000000000000000000000000604482015290519081900360640190fd5b6001805460ff191690557f5db9ee0a495bf2e6ff9c91a7834c1ba4fdd244a5e8aa4e537bd38aeae4b073aa610744611bfc565b60408051600160a060020a039092168252519081900360200190a1565b6060600f8054806020026020016040519081016040528092919081815260200182805480156107b957602002820191906000526020600020905b8154600160a060020a0316815260019091019060200180831161079b575b5050505050905090565b60015460ff1690565b6000600160a060020a038216151561082e576040805160e560020a62461bcd02815260206004820152601e60248201527f436f6e7461696e65722061646472657373206973206e6f742076616c69640000604482015290519081900360640190fd5b50600160a060020a03166000908152600e60205260409020600b015460ff1690565b6000610647818363ffffffff611b5416565b61087261086d611bfc565b611c00565b565b61088461087f611bfc565b610634565b15156108dc576040805160e560020a62461bcd02815260206004820152602e6024820152600080516020611f798339815191526044820152600080516020611f99833981519152606482015290519081900360840190fd5b6108e581611c48565b50565b6108f361087f611bfc565b151561094b576040805160e560020a62461bcd02815260206004820152602e6024820152600080516020611f798339815191526044820152600080516020611f99833981519152606482015290519081900360840190fd5b60015460ff1615610994576040805160e560020a62461bcd0281526020600482015260106024820152600080516020611f59833981519152604482015290519081900360640190fd5b600160a060020a0381166000908152600e60205260409020600b015460ff1615610a08576040805160e560020a62461bcd02815260206004820152601860248201527f436f6e7461696e657220616c726561647920656e61626c650000000000000000604482015290519081900360640190fd5b600160a060020a03166000908152600e6020526040902042600a820155600b01805460ff19166001179055565b610a40610658611bfc565b1515610a98576040805160e560020a62461bcd02815260206004820152602c6024820152600080516020611f398339815191526044820152600080516020611f19833981519152606482015290519081900360840190fd5b6108e581611c90565b6000610aae61087f611bfc565b1515610b06576040805160e560020a62461bcd02815260206004820152602e6024820152600080516020611f798339815191526044820152600080516020611f99833981519152606482015290519081900360840190fd5b60015460ff1615610b4f576040805160e560020a62461bcd0281526020600482015260106024820152600080516020611f59833981519152604482015290519081900360640190fd5b600d54600b54604080517f74df0b60000000000000000000000000000000000000000000000000000000008152600481019290925260248201879052604482018590526064820186905251600092600160a060020a0316916374df0b6091608480830192602092919082900301818787803b158015610bcd57600080fd5b505af1158015610be1573d6000803e3d6000fd5b505050506040513d6020811015610bf757600080fd5b505190508015610c2157600554610c14908463ffffffff611cd816565b6005555060019050610c27565b60009150505b9392505050565b610c39610658611bfc565b1515610c91576040805160e560020a62461bcd02815260206004820152602c6024820152600080516020611f398339815191526044820152600080516020611f19833981519152606482015290519081900360840190fd5b60015460ff1615610cda576040805160e560020a62461bcd0281526020600482015260106024820152600080516020611f59833981519152604482015290519081900360640190fd5b6001805460ff1916811790557f62e78cea01bee320cd4e420270b5ea74000d11b0c9f74754ebdbfc544b05a258610744611bfc565b610872610d1a611bfc565b611d35565b610d2a61087f611bfc565b1515610d82576040805160e560020a62461bcd02815260206004820152602e6024820152600080516020611f798339815191526044820152600080516020611f99833981519152606482015290519081900360840190fd5b60015460ff1615610dcb576040805160e560020a62461bcd0281526020600482015260106024820152600080516020611f59833981519152604482015290519081900360640190fd5b600160a060020a0381166000908152600e60205260409020600b015460ff161515610e40576040805160e560020a62461bcd02815260206004820152601760248201527f436f6e7461696e6572206973206e6f7420656e61626c65000000000000000000604482015290519081900360640190fd5b600160a060020a03166000908152600e6020526040902042600a820155600b01805460ff19169055565b6000610e77610658611bfc565b1515610ecf576040805160e560020a62461bcd02815260206004820152602c6024820152600080516020611f398339815191526044820152600080516020611f19833981519152606482015290519081900360840190fd5b60015460ff1615610f18576040805160e560020a62461bcd0281526020600482015260106024820152600080516020611f59833981519152604482015290519081900360640190fd5b60408051606081018252602c81527f636c656172506f696e74733a207472616e7366657220616d6f756e742065786360208201527f656564732062616c616e6365000000000000000000000000000000000000000091810191909152600554610f8891849063ffffffff611d7d16565b600555600654610f9e908363ffffffff611cd816565b600655506001919050565b610fb461087f611bfc565b151561100c576040805160e560020a62461bcd02815260206004820152602e6024820152600080516020611f798339815191526044820152600080516020611f99833981519152606482015290519081900360840190fd5b60015460ff1615611055576040805160e560020a62461bcd0281526020600482015260106024820152600080516020611f59833981519152604482015290519081900360640190fd5b600160a060020a03811615156110db576040805160e560020a62461bcd02815260206004820152602a60248201527f436f6e7461696e6572204e616d6520616e6420416464726573732073686f756c60448201527f642062652066696c6c2100000000000000000000000000000000000000000000606482015290519081900360840190fd5b600160a060020a0381166000908152600e6020526040812054111561114a576040805160e560020a62461bcd02815260206004820152601660248201527f4164647265737320616c72656164792065786973742100000000000000000000604482015290519081900360640190fd5b600160a060020a0381166000908152600e60205260409020600101548214156111bd576040805160e560020a62461bcd02815260206004820152601660248201527f6e616d6552656620616c72656164792065786973742100000000000000000000604482015290519081900360640190fd5b600c600081548092919060010191905055506101a060405190810160405280600c54815260200183815260200160008152602001600081526020016000815260200160008152602001600081526020016000815260200160008152602001428152602001428152602001600115158152602001601060009054906101000a9004600160a060020a0316600160a060020a0316815250600e600083600160a060020a0316600160a060020a03168152602001908152602001600020600082015181600001556020820151816001015560408201518160020155606082015181600301556080820151816004015560a0820151816005015560c0820151816006015560e082015181600701556101008201518160080155610120820151816009015561014082015181600a015561016082015181600b0160006101000a81548160ff02191690831515021790555061018082015181600b0160016101000a815481600160a060020a030219169083600160a060020a03160217905550905050600f8190806001815401808255809150509060018203906000526020600020016000909192909190916101000a815481600160a060020a030219169083600160a060020a03160217905550505050565b600d54604080517f6c7f1542000000000000000000000000000000000000000000000000000000008152600481018490529051600092600160a060020a031691636c7f1542916024808301926020929190829003018186803b1580156113ef57600080fd5b505afa158015611403573d6000803e3d6000fd5b505050506040513d602081101561141957600080fd5b505192915050565b336000908152600e602052604081206009015481106114b0576040805160e560020a62461bcd02815260206004820152602360248201527f5468652073656e646572206973206e6f7420612076616c696420636f6e74616960448201527f6e65720000000000000000000000000000000000000000000000000000000000606482015290519081900360840190fd5b336000908152600e60205260409020600b015460ff161515611541576040805160e560020a62461bcd028152602060048201526024808201527f5468652073656e646572206973206e6f74206120636f6e7461696e657220656e60448201527f61626c6500000000000000000000000000000000000000000000000000000000606482015290519081900360840190fd5b60015460ff161561158a576040805160e560020a62461bcd0281526020600482015260106024820152600080516020611f59833981519152604482015290519081900360640190fd5b6000848401830181811161160e576040805160e560020a62461bcd02815260206004820152602860248201527f4e756d626572206f66206974656d73206973206e6f742067726561746572207460448201527f68616e207a65726f000000000000000000000000000000000000000000000000606482015290519081900360840190fd5b336000908152600e6020526040902060058101805460010190556002015461163c908263ffffffff611cd816565b336000908152600e60205260409020600281019190915560030154611667908263ffffffff611cd816565b336000908152600e60205260409020600381019190915560060154611692908763ffffffff611cd816565b336000908152600e602052604090206006810191909155600701546116bd908663ffffffff611cd816565b336000908152600e602052604090206007810191909155600801546116e8908563ffffffff611cd816565b336000908152600e6020526040902060080155611706868686611e17565b6117138486880101611e35565b600d54604080517fe055aeeb0000000000000000000000000000000000000000000000000000000081526004810189905260248101889052604481018790529051600160a060020a039092169163e055aeeb91606480820192602092909190829003018186803b15801561178657600080fd5b505afa15801561179a573d6000803e3d6000fd5b505050506040513d60208110156117b057600080fd5b5051600d54600b54604080517fee0c96c50000000000000000000000000000000000000000000000000000000081526004810192909252602482018c905260448201849052606482018b905251929450600092600160a060020a039092169163ee0c96c59160848082019260209290919082900301818787803b15801561183657600080fd5b505af115801561184a573d6000803e3d6000fd5b505050506040513d602081101561186057600080fd5b5051905080156118ce57336000908152600e6020526040902060040180548401905561188b83611e40565b6040805184815290518a9133917fdac3a1fa736bac13233e84d1cde6de581c6bea4efe8127282d378f120e354ce79181900360200190a3600193505050506118d6565b600093505050505b95945050505050565b60035460055460045460065460075460085460095490919293949596565b336000908152600e6020526040812060090154811061198c576040805160e560020a62461bcd02815260206004820152602360248201527f5468652073656e646572206973206e6f7420612076616c696420636f6e74616960448201527f6e65720000000000000000000000000000000000000000000000000000000000606482015290519081900360840190fd5b336000908152600e60205260409020600b015460ff161515611a1d576040805160e560020a62461bcd028152602060048201526024808201527f5468652073656e646572206973206e6f74206120636f6e7461696e657220656e60448201527f61626c6500000000000000000000000000000000000000000000000000000000606482015290519081900360840190fd5b600d54600b54604080517f44997ac80000000000000000000000000000000000000000000000000000000081526004810192909252602482018a9052600160a060020a038981166044840152606483018990526084830188905260a4830187905260c48301869052905160009391909116916344997ac89160e480830192602092919082900301818787803b158015611ab557600080fd5b505af1158015611ac9573d6000803e3d6000fd5b505050506040513d6020811015611adf57600080fd5b505190508015611b4357336000908152600e6020526040902060068101546007820154600890920154611b129290611e17565b5050336000908152600e60205260408120600681018290556007810182905560088101829055600201556001611b49565b60009150505b979650505050505050565b6000600160a060020a0382161515611bdc576040805160e560020a62461bcd02815260206004820152602260248201527f526f6c65733a206163636f756e7420697320746865207a65726f20616464726560448201527f7373000000000000000000000000000000000000000000000000000000000000606482015290519081900360840190fd5b50600160a060020a03166000908152602091909152604090205460ff1690565b3390565b611c1160008263ffffffff611e4b16565b604051600160a060020a038216907fc7c063934ec148f1763101df56fc7d2b7c439d07ce6e340e8dbf55ff15cabe9890600090a250565b611c5960028263ffffffff611ef316565b604051600160a060020a038216907f44d6d25963f097ad14f29f06854a01f575648a1ef82f30e562ccd3889717e33990600090a250565b611ca160008263ffffffff611ef316565b604051600160a060020a038216907f2db8f49e9d09fbba330ecc87b42d650f16bdabefeab9a35300dbf34bd8d4ec3190600090a250565b600082820183811015610c27576040805160e560020a62461bcd02815260206004820152601b60248201527f536166654d6174683a206164646974696f6e206f766572666c6f770000000000604482015290519081900360640190fd5b611d4660028263ffffffff611e4b16565b604051600160a060020a038216907fa3b62bc36326052d97ea62d63c3d60308ed4c3ea8ac079dd8499f1e9c4f80c0f90600090a250565b60008184841115611e0f5760405160e560020a62461bcd0281526004018080602001828103825283818151815260200191508051906020019080838360005b83811015611dd4578181015183820152602001611dbc565b50505050905090810190601f168015611e015780820380516001836020036101000a031916815260200191505b509250505060405180910390fd5b505050900390565b60078054909301909255600880549091019055600980549091019055565b600480549091019055565b600380549091019055565b611e558282611b54565b1515611ed1576040805160e560020a62461bcd02815260206004820152602160248201527f526f6c65733a206163636f756e7420646f6573206e6f74206861766520726f6c60448201527f6500000000000000000000000000000000000000000000000000000000000000606482015290519081900360840190fd5b600160a060020a0316600090815260209190915260409020805460ff19169055565b600160a060020a0316600090815260209190915260409020805460ff1916600117905556fe6865204d6e677220726f6c6500000000000000000000000000000000000000004d6e6772526f6c653a2063616c6c657220646f6573206e6f74206861766520745061757361626c653a207061757365640000000000000000000000000000000041646d696e526f6c653a2063616c6c657220646f6573206e6f742068617665207468652041646d696e20726f6c65000000000000000000000000000000000000a165627a7a7230582095d8cc8d78a32f805d624467f040387cd6a39916987b53038be5844090c155e90029",
  "source": "pragma solidity ^0.5.1;\n\nimport \"./lib/AdminRole.sol\";\nimport \"./lib/MngrRole.sol\";\nimport \"./lib/PausableMngr.sol\";\nimport \"./Main.sol\";\n\nimport \"./lib/SafeMath.sol\";\n\ncontract Associated_FC is PausableMngr, AdminRole {\n\n    using SafeMath for uint;\n\n    event Generate(address indexed container_address, bytes32 indexed hashName, uint256 points);\n\n\t// Variables Globales\n    uint generatedPoints; // Puntos generados en el contenedor\n    uint exchangedItems;  // Items generados\n\tuint exchangedPoints; // Puntos canjeados por descuentos desde el asociado\n    uint clearedPoints;   // Puntos Liquidados por Ecoembes, en caso que se diera\n    uint pack1; // Nmero de items de tipo 1\n\tuint pack2; // Nmero de items de tipo 2\n\tuint pack3; // Nmero de items de tipo 3\n\n    bool status;\t                // Estado del Asociado\n\tbytes32 hashAssociatedName;     // hash del nombe del asociado\n\tuint counterContainer;          // Contador de Contenedores\n\n    Main main;// Referencia del contrato principal, para conocer su Address\n\n    mapping (address => Container) public listContainers; //Lista de contenedores por Asociado\n    address[] internal containerList;\n    address internal associatedAddress; //Direccin de la cuenta administradora del asociado\n\n\n   constructor (bytes32 _hashAssociatedName, address _associatedAddress ) public payable {\n\n       main= Main(msg.sender);  // Direccin del contrato Principal\n\n\t   hashAssociatedName = _hashAssociatedName;// Nombre del Asociado Hasheado\n       associatedAddress = _associatedAddress;\n       addAdmin(_associatedAddress); //Aadimos la cuenta del asociado como administradora del contrato       \n    }\n\n\n\n     /**\n     * @dev Recupera la informacin de los puntos Generados, canjeados y La cantidad de Elementos reciclados.\n     *\n     * @return _generatedPoints  Cantidad Puntos Generados\n     * @return _exchangedPoints  Cantidad Puntos Canjeados\n     * @return  _exchangedItems  Cantidad de Elementos Reciclados\n     * @return _clearedPoints    Cantidad Puntos canjeados por Asociado\n     * @return _pack1     Cantidad envases tipo pack1\n     * @return _pack2     Cantidad envases tipo pack2\n     * @return _pack3     Cantidad envases tipo pack3\n     *\n     **/\n    function getAssociatedInfo() public view returns (uint _generatedPoints, uint _exchangedPoints, uint _exchangedItems, uint _clearedPoints, uint _pack1, uint _pack2, uint _pack3) {\n\t\treturn (generatedPoints, exchangedPoints, exchangedItems, clearedPoints, pack1, pack2, pack3 );\n\t}\n\n\n    /**\n     * @dev Actualiza los puntos generados del asociado.\n     *\n     * @param _points  Cantidad Puntos Generados\n     **/\n    function updateGeneratedPoints(uint _points) internal  {\n\t\tgeneratedPoints += _points;\n\t}\n    \n\n    /**\n     * @dev Actualiza el nmero de Elementos reciclados en Total.\n     *\n     * @param _items Elementos reciclados.\n     **/\n    function updateExchangeItems(uint _items) internal  {\n\t\texchangedItems += _items;\n\t}\n\n\n    /**\n     * @dev Actualiza el nmero de Elementos reciclados por tipo.\n     *\n     * @param _pack1  Elementos de Tipo 1\n     * @param _pack2  Elementos de Tipo 2\n     * @param _pack3  Elementos de Tipo 3\n     **/\n    function updateRecycItems(uint _pack1, uint _pack2, uint _pack3) internal  {\n\t\tpack1 += _pack1;\n        pack2 += _pack2;\n        pack3 += _pack3;\n\t}\n\n\n    /**\n    * @dev Aadir Contenedor al asociado, slo ejecutable por Admin\n    * @param _nameRef   Identificador Referencia del contenedor.\n    * @param _container_address Address Ethereum del contenedor, parmetro que vendria desde el Frontend\n    * \n    */\n\tfunction addContainer(bytes32 _nameRef, address _container_address) public onlyAdmin whenNotPaused  (){\n\n\t\t//_nameRef y container address no pueden estar vacias a la hora de crear contenerdor.\n\t    require(\n            bytes32(_nameRef).length > 0 && _container_address != address(0), \"Container Name and Address should be fill!\");\n\n        //El address del contenedor ya esta en la lista\n        require(!(listContainers[_container_address].seqId > 0), \"Address already exist!\");\n        require((listContainers[_container_address].nameRef != _nameRef), \"nameRef already exist!\");\n\n\t\tcounterContainer++;\n\n        //Inicializa el Contenedor y se aade al ArrayList\n        listContainers[_container_address] = Container(counterContainer, _nameRef, 0, 0, 0, 0, 0, 0, 0, now, now, true, associatedAddress);\n        containerList.push(_container_address);\n\t}\n\n    /**\n    * @dev Devuelve la lista de Contenedores para un asociado\n\t* @return ArrayList\n\t*/\n    function getContainerList() public view returns (address[] memory) {\n\t\treturn containerList;\n\t}\n\n    /**\n    * @dev  Canjear Puntos de un Usuario, La App de Canjear Puntos llamar a esta funcion desde la Applicacin\n    * @param _userHashcode  Hash del Usuario\n    * @param _hashedSecret  Hash palabra secreta del usuario\n    * @param _amount  Cantidad de Puntos \n    * @return boolean  Ejecucin ok/nok\n\t*/\n\tfunction exchangePoints(bytes32 _userHashcode, bytes32 _hashedSecret, uint _amount ) public onlyAdmin whenNotPaused returns (bool){\n\n        bool result = main.exchangePoints(hashAssociatedName, _userHashcode, _amount, _hashedSecret); //El contrato es quien llama al exchange del principal. Esto permite aislar mejor las operaciones del asociado conj las operaciones del contrato principal\n        if (result){\n\n            exchangedPoints = exchangedPoints.add(_amount);\n            return true;\n        }\n        return false;\n    }\n\n\n\n    /**\n    * @dev  Asociado puede canjear Puntos con Entidad central\n    * @param _amount  Cantidad de Puntos\n    * @return boolean  Ejecucin ok/nok\n\t*/\n    function clearPoints(uint _amount ) public onlyMngr whenNotPaused returns (bool){\n\n        exchangedPoints = exchangedPoints.sub(_amount, \"clearPoints: transfer amount exceeds balance\");\n        clearedPoints = clearedPoints.add(_amount);\n\n        return true;\n    }\n\n\n    /**\n    * @dev  Obtener Balance del Usuario\n    * @param _userHashcode  Hash del Usuario\n    * @return Balance\n\t*/\n    function getUserBalance( bytes32 _userHashcode) public view returns (uint256) {\n\t\t return main.balanceOf(_userHashcode);\n\t}\n\n\n\t//----------------------------------------------------------------------------------------------------\n    //-----------------------------------    CONTENEDOR   ------------------------------------------------\n    //----------------------------------------------------------------------------------------------------\n\n    //Modelo de Datos de un Contenedor\n    struct Container {\n        uint seqId;\n\t\tbytes32 nameRef;\n        uint insideItems;\n        uint exchangedItems;\n        uint generatedPoints;\n        uint txCount;\n        uint pack1;\n        uint pack2;\n        uint pack3;\n        uint startDate;\n        uint stateDate;\n        bool isEnable;\n        address associated;\n\n\t}\n\n    // Modificador para saber si un Contenedor esta Activo\n    modifier onlyContainerEnable() {\n        require(listContainers[msg.sender].startDate > 0, \"The sender is not a valid container\");\n        require(listContainers[msg.sender].isEnable, \"The sender is not a container enable\");\n        _;\n    }\n\n\n    /**\n      * @dev Asignacin de Puntos al usuario que ha reciclado y actualizacin de Puntos en Asociado\n      *\n      * @param _hashUserName  Hash del nombre del Usuario\n      * @param _hashedSecret  Hash de la palabra secreta del usuario\n      * @param _pack1  Elementos de Tipo 1\n      * @param _pack2  Elementos de Tipo 2 \n      * @param _pack3  Elementos de Tipo 3\n      */\n    function packagingCollection(bytes32 _hashUserName,  bytes32 _hashedSecret, uint _pack1, uint _pack2, uint _pack3)\n    public onlyContainerEnable whenNotPaused returns (bool){\n\n        \n        uint points;\n        uint ammount = _pack1 + _pack2 + _pack3;\n\n        require (ammount > 0, \"Number of items is not greater than zero\");        \n\n        listContainers[msg.sender].txCount += 1;\n        listContainers[msg.sender].insideItems = listContainers[msg.sender].insideItems.add(ammount);\n        listContainers[msg.sender].exchangedItems = listContainers[msg.sender].exchangedItems.add(ammount);\n\n        //Actualiza los diferentes tipos de elementos reciclados\n        listContainers[msg.sender].pack1 = listContainers[msg.sender].pack1.add(_pack1);\n        listContainers[msg.sender].pack2 = listContainers[msg.sender].pack2.add(_pack2);\n        listContainers[msg.sender].pack3 = listContainers[msg.sender].pack3.add(_pack3);\n\n        updateRecycItems(_pack1, _pack2, _pack3);\n        updateExchangeItems(_pack1 + _pack2 + _pack3);\n\n        //Clculo de Puntos\n        points = main.calculatePoints(_pack1, _pack2, _pack3);\n\n        \n        //Actualiza Puntos del Usuario:\n        bool result = main.updateUserBalance(hashAssociatedName, _hashUserName, points, _hashedSecret);\n\t\tif (result){\n            listContainers[msg.sender].generatedPoints += points;\n            updateGeneratedPoints(points);\n\n            emit Generate(msg.sender, _hashUserName, points);\n\n            return true;\n        }else {\n             return false;\n        }\n\n    }\n\n    /**\n     * @dev Saber si el contenedor esta activo\n     *\n     * @param _container  Address del Contenedor\n     */  \n    function isEnableContainer(address _container) public view returns (bool) {\n        require(_container != address(0), \"Container address is not valid\");\n        \n        return listContainers[_container].isEnable;\n    }\n\n\n    /**\n     * @dev Activar el contenedor\n     *\n     * @param _container  Address del Contenedor\n     */ \n    function enableContainer(address _container) public onlyAdmin whenNotPaused {\n        \n        require (!(listContainers[_container].isEnable), \"Container already enable\");\n\n        listContainers[_container].stateDate = now;\n        listContainers[_container].isEnable = true;\n    }\n\n    /**\n     * @dev Desactivar el contenedor\n     *\n     * @param _container  Address del Contenedor\n     */ \n    function disableContainer(address _container) public onlyAdmin whenNotPaused {\n        require (listContainers[_container].isEnable, \"Container is not enable\");\n        listContainers[_container].stateDate = now;\n        listContainers[_container].isEnable = false;\n    }\n\n    /**\n     * @dev Aadir Bolsa de Reciclaje completa de residuos para su monitorizacin\n     *\n     * @return _hashAssociatedName  Hash del nombre del Asociado\n     * @return _QR  QR de la bolsa Reciclada\n     * @return  _associated   Direccin Ethereum del Asociado\n     * @return _nameRef    Nombre de Referencia del Contenedor\n     * @return _pack1     Cantidad envases tipo pack1\n     * @return _pack2     Cantidad envases tipo pack2\n     * @return _pack3     Cantidad envases tipo pack3\n     *\n     **/\n\n     function addRecycledBag(bytes32 _hashAssociatedName, bytes32 _QR, address _associated, bytes32 _nameRef,  uint _pack1, uint _pack2, uint _pack3 ) onlyContainerEnable public returns (bool) {     \n\n         bool result = main.addRecicledBag(hashAssociatedName, _QR, _associated, _nameRef, _pack1, _pack2, _pack3);\n\t\tif (result){\n            // Actualiza las latas que se han introducido en el contenedor del asociado  y inicializa valores del contenedos          \n            updateRecycItems(listContainers[msg.sender].pack1, listContainers[msg.sender].pack2, listContainers[msg.sender].pack3);\n            \n            //Inicializa el contenedor a 0\n            listContainers[msg.sender].pack1 = 0;\n            listContainers[msg.sender].pack2 = 0;\n            listContainers[msg.sender].pack3 = 0;\n            listContainers[msg.sender].insideItems = 0;\n\n            return true;\n\n        }else {\n             return false;\n        }\n\n     }\n\n\n}",
  "sourcePath": "/home/lealp22/TFM/DappPrincipal/truffle/contracts/Associated_FC.sol",
  "compiler": {
    "name": "solc",
    "version": "0.5.1+commit.c8a2cb62.Emscripten.clang"
  },
  "schemaVersion": "3.0.11",
  "updatedAt": "2020-01-17T19:04:35.386Z",
  "devdoc": {
    "methods": {
      "addContainer(bytes32,address)": {
        "details": "Aadir Contenedor al asociado, slo ejecutable por Admin",
        "params": {
          "_container_address": "Address Ethereum del contenedor, parmetro que vendria desde el Frontend     ",
          "_nameRef": "Identificador Referencia del contenedor."
        }
      },
      "addRecycledBag(bytes32,bytes32,address,bytes32,uint256,uint256,uint256)": {
        "details": "Aadir Bolsa de Reciclaje completa de residuos para su monitorizacin",
        "return": "_hashAssociatedName  Hash del nombre del Asociado_QR  QR de la bolsa Reciclada_associated   Direccin Ethereum del Asociado_nameRef    Nombre de Referencia del Contenedor_pack1     Cantidad envases tipo pack1_pack2     Cantidad envases tipo pack2_pack3     Cantidad envases tipo pack3     *"
      },
      "clearPoints(uint256)": {
        "details": "Asociado puede canjear Puntos con Entidad central",
        "params": {
          "_amount": "Cantidad de Puntos"
        },
        "return": "boolean  Ejecucin ok/nok"
      },
      "disableContainer(address)": {
        "details": "Desactivar el contenedor",
        "params": {
          "_container": "Address del Contenedor"
        }
      },
      "enableContainer(address)": {
        "details": "Activar el contenedor",
        "params": {
          "_container": "Address del Contenedor"
        }
      },
      "exchangePoints(bytes32,bytes32,uint256)": {
        "details": "Canjear Puntos de un Usuario, La App de Canjear Puntos llamar a esta funcion desde la Applicacin",
        "params": {
          "_amount": "Cantidad de Puntos ",
          "_hashedSecret": "Hash palabra secreta del usuario",
          "_userHashcode": "Hash del Usuario"
        },
        "return": "boolean  Ejecucin ok/nok"
      },
      "getAssociatedInfo()": {
        "details": "Recupera la informacin de los puntos Generados, canjeados y La cantidad de Elementos reciclados.",
        "return": "_generatedPoints  Cantidad Puntos Generados_exchangedPoints  Cantidad Puntos Canjeados_exchangedItems  Cantidad de Elementos Reciclados_clearedPoints    Cantidad Puntos canjeados por Asociado_pack1     Cantidad envases tipo pack1_pack2     Cantidad envases tipo pack2_pack3     Cantidad envases tipo pack3     *"
      },
      "getContainerList()": {
        "details": "Devuelve la lista de Contenedores para un asociado",
        "return": "ArrayList"
      },
      "getUserBalance(bytes32)": {
        "details": "Obtener Balance del Usuario",
        "params": {
          "_userHashcode": "Hash del Usuario"
        },
        "return": "Balance"
      },
      "isEnableContainer(address)": {
        "details": "Saber si el contenedor esta activo",
        "params": {
          "_container": "Address del Contenedor"
        }
      },
      "packagingCollection(bytes32,bytes32,uint256,uint256,uint256)": {
        "details": "Asignacin de Puntos al usuario que ha reciclado y actualizacin de Puntos en Asociado",
        "params": {
          "_hashUserName": "Hash del nombre del Usuario",
          "_hashedSecret": "Hash de la palabra secreta del usuario",
          "_pack1": "Elementos de Tipo 1",
          "_pack2": "Elementos de Tipo 2 ",
          "_pack3": "Elementos de Tipo 3"
        }
      },
      "pause()": {
        "details": "Called by a pauser to pause, triggers stopped state."
      },
      "paused()": {
        "details": "Returns true if the contract is paused, and false otherwise."
      },
      "unpause()": {
        "details": "Called by a pauser to unpause, returns to normal state."
      }
    }
  },
  "userdoc": {
    "methods": {}
  }
}