{
  "contractName": "CustomOracle",
  "abi": [
    {
      "constant": true,
      "inputs": [],
      "name": "blocksPeriod",
      "outputs": [
        {
          "name": "",
          "type": "uint256"
        }
      ],
      "payable": false,
      "stateMutability": "view",
      "type": "function"
    },
    {
      "constant": true,
      "inputs": [],
      "name": "gasLimitHigh",
      "outputs": [
        {
          "name": "",
          "type": "uint256"
        }
      ],
      "payable": false,
      "stateMutability": "view",
      "type": "function"
    },
    {
      "constant": true,
      "inputs": [
        {
          "name": "account",
          "type": "address"
        }
      ],
      "name": "isAdmin",
      "outputs": [
        {
          "name": "",
          "type": "bool"
        }
      ],
      "payable": false,
      "stateMutability": "view",
      "type": "function"
    },
    {
      "constant": true,
      "inputs": [],
      "name": "priceEthMin",
      "outputs": [
        {
          "name": "",
          "type": "uint256"
        }
      ],
      "payable": false,
      "stateMutability": "view",
      "type": "function"
    },
    {
      "constant": false,
      "inputs": [],
      "name": "unpause",
      "outputs": [],
      "payable": false,
      "stateMutability": "nonpayable",
      "type": "function"
    },
    {
      "constant": true,
      "inputs": [],
      "name": "priceEthMax",
      "outputs": [
        {
          "name": "",
          "type": "uint256"
        }
      ],
      "payable": false,
      "stateMutability": "view",
      "type": "function"
    },
    {
      "constant": true,
      "inputs": [],
      "name": "dateTime",
      "outputs": [
        {
          "name": "",
          "type": "string"
        }
      ],
      "payable": false,
      "stateMutability": "view",
      "type": "function"
    },
    {
      "constant": true,
      "inputs": [],
      "name": "rangeEthPrice",
      "outputs": [
        {
          "name": "",
          "type": "uint256"
        }
      ],
      "payable": false,
      "stateMutability": "view",
      "type": "function"
    },
    {
      "constant": true,
      "inputs": [],
      "name": "rateETHEUR",
      "outputs": [
        {
          "name": "",
          "type": "uint256"
        }
      ],
      "payable": false,
      "stateMutability": "view",
      "type": "function"
    },
    {
      "constant": true,
      "inputs": [],
      "name": "paused",
      "outputs": [
        {
          "name": "",
          "type": "bool"
        }
      ],
      "payable": false,
      "stateMutability": "view",
      "type": "function"
    },
    {
      "constant": true,
      "inputs": [],
      "name": "gasLimitLow",
      "outputs": [
        {
          "name": "",
          "type": "uint256"
        }
      ],
      "payable": false,
      "stateMutability": "view",
      "type": "function"
    },
    {
      "constant": false,
      "inputs": [
        {
          "name": "account",
          "type": "address"
        }
      ],
      "name": "addAdmin",
      "outputs": [],
      "payable": false,
      "stateMutability": "nonpayable",
      "type": "function"
    },
    {
      "constant": false,
      "inputs": [],
      "name": "pause",
      "outputs": [],
      "payable": false,
      "stateMutability": "nonpayable",
      "type": "function"
    },
    {
      "constant": false,
      "inputs": [],
      "name": "renounceAdmin",
      "outputs": [],
      "payable": false,
      "stateMutability": "nonpayable",
      "type": "function"
    },
    {
      "constant": true,
      "inputs": [],
      "name": "owner",
      "outputs": [
        {
          "name": "",
          "type": "address"
        }
      ],
      "payable": false,
      "stateMutability": "view",
      "type": "function"
    },
    {
      "constant": true,
      "inputs": [
        {
          "name": "",
          "type": "uint256"
        }
      ],
      "name": "packaging",
      "outputs": [
        {
          "name": "pointsPerPack",
          "type": "uint256"
        },
        {
          "name": "pointsMin",
          "type": "uint256"
        },
        {
          "name": "pointsMax",
          "type": "uint256"
        },
        {
          "name": "priceMin",
          "type": "uint256"
        },
        {
          "name": "priceMax",
          "type": "uint256"
        }
      ],
      "payable": false,
      "stateMutability": "view",
      "type": "function"
    },
    {
      "constant": true,
      "inputs": [],
      "name": "prevBlock",
      "outputs": [
        {
          "name": "",
          "type": "uint256"
        }
      ],
      "payable": false,
      "stateMutability": "view",
      "type": "function"
    },
    {
      "constant": true,
      "inputs": [],
      "name": "countQueryInProgress",
      "outputs": [
        {
          "name": "",
          "type": "uint256"
        }
      ],
      "payable": false,
      "stateMutability": "view",
      "type": "function"
    },
    {
      "constant": true,
      "inputs": [],
      "name": "randomNumber",
      "outputs": [
        {
          "name": "",
          "type": "uint256"
        }
      ],
      "payable": false,
      "stateMutability": "view",
      "type": "function"
    },
    {
      "constant": true,
      "inputs": [],
      "name": "blocksRequest",
      "outputs": [
        {
          "name": "",
          "type": "uint256"
        }
      ],
      "payable": false,
      "stateMutability": "view",
      "type": "function"
    },
    {
      "constant": true,
      "inputs": [],
      "name": "gasLimitMed",
      "outputs": [
        {
          "name": "",
          "type": "uint256"
        }
      ],
      "payable": false,
      "stateMutability": "view",
      "type": "function"
    },
    {
      "inputs": [],
      "payable": true,
      "stateMutability": "payable",
      "type": "constructor"
    },
    {
      "payable": true,
      "stateMutability": "payable",
      "type": "fallback"
    },
    {
      "anonymous": false,
      "inputs": [
        {
          "indexed": true,
          "name": "myAddress",
          "type": "address"
        },
        {
          "indexed": false,
          "name": "description",
          "type": "string"
        }
      ],
      "name": "LogNewProvableQuery",
      "type": "event"
    },
    {
      "anonymous": false,
      "inputs": [
        {
          "indexed": true,
          "name": "myAddress",
          "type": "address"
        },
        {
          "indexed": false,
          "name": "description",
          "type": "string"
        },
        {
          "indexed": false,
          "name": "value",
          "type": "string"
        }
      ],
      "name": "generateNewValue",
      "type": "event"
    },
    {
      "anonymous": false,
      "inputs": [
        {
          "indexed": true,
          "name": "myAddress",
          "type": "address"
        },
        {
          "indexed": false,
          "name": "randomNumber",
          "type": "uint256"
        }
      ],
      "name": "generatedRandomNumber",
      "type": "event"
    },
    {
      "anonymous": false,
      "inputs": [
        {
          "indexed": true,
          "name": "myAddress",
          "type": "address"
        },
        {
          "indexed": false,
          "name": "currentDateTime",
          "type": "string"
        }
      ],
      "name": "currentDateTime",
      "type": "event"
    },
    {
      "anonymous": false,
      "inputs": [
        {
          "indexed": true,
          "name": "myAddress",
          "type": "address"
        },
        {
          "indexed": false,
          "name": "packaging",
          "type": "string"
        },
        {
          "indexed": false,
          "name": "points",
          "type": "uint256"
        }
      ],
      "name": "newPointsReward",
      "type": "event"
    },
    {
      "anonymous": false,
      "inputs": [
        {
          "indexed": true,
          "name": "myAddress",
          "type": "address"
        },
        {
          "indexed": false,
          "name": "ind",
          "type": "uint256"
        },
        {
          "indexed": false,
          "name": "points",
          "type": "uint256"
        },
        {
          "indexed": false,
          "name": "pointsMin",
          "type": "uint256"
        },
        {
          "indexed": false,
          "name": "pointsMax",
          "type": "uint256"
        },
        {
          "indexed": false,
          "name": "priceMin",
          "type": "uint256"
        },
        {
          "indexed": false,
          "name": "priceMax",
          "type": "uint256"
        }
      ],
      "name": "packagingUpdate",
      "type": "event"
    },
    {
      "anonymous": false,
      "inputs": [
        {
          "indexed": true,
          "name": "myAddress",
          "type": "address"
        }
      ],
      "name": "packagingFullUpdate",
      "type": "event"
    },
    {
      "anonymous": false,
      "inputs": [
        {
          "indexed": true,
          "name": "myAddress",
          "type": "address"
        },
        {
          "indexed": false,
          "name": "priceEthMin",
          "type": "uint256"
        },
        {
          "indexed": false,
          "name": "priceEthMax",
          "type": "uint256"
        }
      ],
      "name": "ethPriceUpdate",
      "type": "event"
    },
    {
      "anonymous": false,
      "inputs": [
        {
          "indexed": true,
          "name": "myAddress",
          "type": "address"
        },
        {
          "indexed": false,
          "name": "gasLimitLow",
          "type": "uint256"
        },
        {
          "indexed": false,
          "name": "gasLimitMed",
          "type": "uint256"
        },
        {
          "indexed": false,
          "name": "gasLimitHigh",
          "type": "uint256"
        }
      ],
      "name": "limitGasUpdate",
      "type": "event"
    },
    {
      "anonymous": false,
      "inputs": [
        {
          "indexed": true,
          "name": "myAddress",
          "type": "address"
        },
        {
          "indexed": false,
          "name": "blocksPeriod",
          "type": "uint256"
        }
      ],
      "name": "blockPeriodUpdate",
      "type": "event"
    },
    {
      "anonymous": false,
      "inputs": [
        {
          "indexed": true,
          "name": "myAddress",
          "type": "address"
        },
        {
          "indexed": false,
          "name": "blocksRequest",
          "type": "uint256"
        }
      ],
      "name": "blockRequestUpdate",
      "type": "event"
    },
    {
      "anonymous": false,
      "inputs": [
        {
          "indexed": true,
          "name": "myAddress",
          "type": "address"
        }
      ],
      "name": "otherValuesFullUpdate",
      "type": "event"
    },
    {
      "anonymous": false,
      "inputs": [
        {
          "indexed": false,
          "name": "account",
          "type": "address"
        }
      ],
      "name": "Paused",
      "type": "event"
    },
    {
      "anonymous": false,
      "inputs": [
        {
          "indexed": false,
          "name": "account",
          "type": "address"
        }
      ],
      "name": "Unpaused",
      "type": "event"
    },
    {
      "anonymous": false,
      "inputs": [
        {
          "indexed": true,
          "name": "account",
          "type": "address"
        }
      ],
      "name": "AdminAdded",
      "type": "event"
    },
    {
      "anonymous": false,
      "inputs": [
        {
          "indexed": true,
          "name": "account",
          "type": "address"
        }
      ],
      "name": "AdminRemoved",
      "type": "event"
    },
    {
      "constant": true,
      "inputs": [
        {
          "name": "_pack1Qty",
          "type": "uint256"
        },
        {
          "name": "_pack2Qty",
          "type": "uint256"
        },
        {
          "name": "_pack3Qty",
          "type": "uint256"
        }
      ],
      "name": "calculatePoints",
      "outputs": [
        {
          "name": "_totalPoints",
          "type": "uint256"
        }
      ],
      "payable": false,
      "stateMutability": "view",
      "type": "function"
    },
    {
      "constant": true,
      "inputs": [],
      "name": "getPointsPerPack",
      "outputs": [
        {
          "name": "_pointsPack1",
          "type": "uint256"
        },
        {
          "name": "_pointsPack2",
          "type": "uint256"
        },
        {
          "name": "_pointsPack3",
          "type": "uint256"
        }
      ],
      "payable": false,
      "stateMutability": "view",
      "type": "function"
    },
    {
      "constant": true,
      "inputs": [
        {
          "name": "_ind",
          "type": "uint256"
        }
      ],
      "name": "getValuesPerPack",
      "outputs": [
        {
          "name": "_pointsPerPack",
          "type": "uint256"
        },
        {
          "name": "_pointsMin",
          "type": "uint256"
        },
        {
          "name": "_pointsMax",
          "type": "uint256"
        },
        {
          "name": "_priceMin",
          "type": "uint256"
        },
        {
          "name": "_priceMax",
          "type": "uint256"
        }
      ],
      "payable": false,
      "stateMutability": "view",
      "type": "function"
    },
    {
      "constant": true,
      "inputs": [],
      "name": "getEthValues",
      "outputs": [
        {
          "name": "_priceMin",
          "type": "uint256"
        },
        {
          "name": "_priceMax",
          "type": "uint256"
        }
      ],
      "payable": false,
      "stateMutability": "view",
      "type": "function"
    },
    {
      "constant": true,
      "inputs": [],
      "name": "getOtherValues",
      "outputs": [
        {
          "name": "_blocksPeriod",
          "type": "uint256"
        },
        {
          "name": "_blocksRequest",
          "type": "uint256"
        },
        {
          "name": "_gasLimitLow",
          "type": "uint256"
        },
        {
          "name": "_gasLimitMed",
          "type": "uint256"
        },
        {
          "name": "_gasLimitHigh",
          "type": "uint256"
        }
      ],
      "payable": false,
      "stateMutability": "view",
      "type": "function"
    },
    {
      "constant": false,
      "inputs": [
        {
          "name": "_blocksPeriod",
          "type": "uint256"
        },
        {
          "name": "_blocksRequest",
          "type": "uint256"
        },
        {
          "name": "_gasLimitLow",
          "type": "uint256"
        },
        {
          "name": "_gasLimitMed",
          "type": "uint256"
        },
        {
          "name": "_gasLimitHigh",
          "type": "uint256"
        }
      ],
      "name": "setOtherValues",
      "outputs": [],
      "payable": false,
      "stateMutability": "nonpayable",
      "type": "function"
    },
    {
      "constant": false,
      "inputs": [
        {
          "name": "_ind",
          "type": "uint256"
        },
        {
          "name": "_pointsMin",
          "type": "uint256"
        },
        {
          "name": "_pointsMax",
          "type": "uint256"
        },
        {
          "name": "_priceMin",
          "type": "uint256"
        },
        {
          "name": "_priceMax",
          "type": "uint256"
        }
      ],
      "name": "setPointsPerPackaging",
      "outputs": [],
      "payable": false,
      "stateMutability": "nonpayable",
      "type": "function"
    },
    {
      "constant": false,
      "inputs": [
        {
          "name": "_pointsMin1",
          "type": "uint256"
        },
        {
          "name": "_pointsMax1",
          "type": "uint256"
        },
        {
          "name": "_pointsMin2",
          "type": "uint256"
        },
        {
          "name": "_pointsMax2",
          "type": "uint256"
        },
        {
          "name": "_pointsMin3",
          "type": "uint256"
        },
        {
          "name": "_pointsMax3",
          "type": "uint256"
        },
        {
          "name": "_priceMinPet",
          "type": "uint256"
        },
        {
          "name": "_priceMaxPet",
          "type": "uint256"
        },
        {
          "name": "_priceMinAlu",
          "type": "uint256"
        },
        {
          "name": "_priceMaxAlu",
          "type": "uint256"
        }
      ],
      "name": "setPointsPackaging",
      "outputs": [],
      "payable": false,
      "stateMutability": "nonpayable",
      "type": "function"
    },
    {
      "constant": false,
      "inputs": [
        {
          "name": "_priceEthMin",
          "type": "uint256"
        },
        {
          "name": "_priceEthMax",
          "type": "uint256"
        }
      ],
      "name": "setRangeEthPrice",
      "outputs": [],
      "payable": false,
      "stateMutability": "nonpayable",
      "type": "function"
    },
    {
      "constant": true,
      "inputs": [],
      "name": "checkNextProcess",
      "outputs": [
        {
          "name": "",
          "type": "bool"
        }
      ],
      "payable": false,
      "stateMutability": "view",
      "type": "function"
    },
    {
      "constant": false,
      "inputs": [],
      "name": "nextProcess",
      "outputs": [],
      "payable": false,
      "stateMutability": "nonpayable",
      "type": "function"
    },
    {
      "constant": false,
      "inputs": [
        {
          "name": "_myid",
          "type": "bytes32"
        },
        {
          "name": "_result",
          "type": "string"
        },
        {
          "name": "_proof",
          "type": "bytes"
        }
      ],
      "name": "__callback",
      "outputs": [],
      "payable": false,
      "stateMutability": "nonpayable",
      "type": "function"
    },
    {
      "constant": false,
      "inputs": [
        {
          "name": "_queryId",
          "type": "bytes32"
        },
        {
          "name": "_result",
          "type": "string"
        }
      ],
      "name": "__callback",
      "outputs": [],
      "payable": false,
      "stateMutability": "nonpayable",
      "type": "function"
    },
    {
      "constant": false,
      "inputs": [
        {
          "name": "_min",
          "type": "uint256"
        },
        {
          "name": "_max",
          "type": "uint256"
        }
      ],
      "name": "newRandomRequest",
      "outputs": [],
      "payable": true,
      "stateMutability": "payable",
      "type": "function"
    },
    {
      "constant": false,
      "inputs": [],
      "name": "getCurrentDateTime",
      "outputs": [],
      "payable": true,
      "stateMutability": "payable",
      "type": "function"
    },
    {
      "constant": false,
      "inputs": [
        {
          "name": "_message",
          "type": "string"
        }
      ],
      "name": "setFunds",
      "outputs": [
        {
          "name": "",
          "type": "string"
        }
      ],
      "payable": true,
      "stateMutability": "payable",
      "type": "function"
    },
    {
      "constant": false,
      "inputs": [
        {
          "name": "_amount",
          "type": "uint256"
        }
      ],
      "name": "transfer",
      "outputs": [],
      "payable": false,
      "stateMutability": "nonpayable",
      "type": "function"
    },
    {
      "constant": true,
      "inputs": [],
      "name": "getContractBalance",
      "outputs": [
        {
          "name": "",
          "type": "uint256"
        }
      ],
      "payable": false,
      "stateMutability": "view",
      "type": "function"
    }
  ],
  "bytecode": "0x60806040526200002a6200001b64010000000062000080810204565b64010000000062000084810204565b6006805460ff19169055619c40601755611770601855620249f060145562030d406015556205cc60601655601c8054600160a060020a031916331790556200007a640100000000620000d6810204565b6200015e565b3390565b6200009f60058264010000000062003b516200013982021704565b604051600160a060020a038216907f44d6d25963f097ad14f29f06854a01f575648a1ef82f30e562ccd3889717e33990600090a250565b60005b600381101562000136576001601f8260038110620000f357fe5b60050201556001601f82600381106200010857fe5b60050201600101819055506001601f826003811015156200012557fe5b6005020160020155600101620000d9565b50565b600160a060020a0316600090815260209190915260409020805460ff19166001179055565b614b50806200016e6000396000f3fe6080604052600436106101c25760e060020a600035046262870f8114610212578063123056461461024557806312514bba1461026c578063248a3b361461029857806324d7806c146102ad57806327dc297e146102f4578063306b82f9146103ae578063355a694e146103c357806338bbfa50146103d85780633f4ba83a14610519578063484538971461052e57806348c8cd41146105435780634a8198e6146105cd5780635004b959146105e257806356aa595f146106375780635c975abb1461064c578063617fa7b6146106615780636a00fd81146106765780636f9fb98a146106d957806370480275146106ee5780638456cb59146107215780638977a604146107365780638bad0c0a146107595780638da5cb5b1461076e57806390e2cc331461079f5780639d129afd146107c9578063aa6d1d79146107de578063acd804f41461080e578063b9f6a7b214610850578063c11044ca1461087e578063c95803a814610893578063ccbac9f5146108d5578063cf222b59146108ea578063db09bded14610990578063e055aeeb14610998578063e702531e146109ce578063ebeb727f146109e3578063f06b0f70146109f8578063ffed124514610a0d575b6040805160e560020a62461bcd02815260206004820152601160248201527f46616c6c6261636b2066756e6374696f6e000000000000000000000000000000604482015290519081900360640190fd5b34801561021e57600080fd5b50610227610a22565b60408051938452602084019290925282820152519081900360600190f35b34801561025157600080fd5b5061025a610a32565b60408051918252519081900360200190f35b34801561027857600080fd5b506102966004803603602081101561028f57600080fd5b5035610a38565b005b3480156102a457600080fd5b5061025a610b86565b3480156102b957600080fd5b506102e0600480360360208110156102d057600080fd5b5035600160a060020a0316610b8c565b604080519115158252519081900360200190f35b34801561030057600080fd5b506102966004803603604081101561031757600080fd5b8135919081019060408101602082013564010000000081111561033957600080fd5b82018360208201111561034b57600080fd5b8035906020019184600183028401116401000000008311171561036d57600080fd5b91908080601f016020809104026020016040519081016040528093929190818152602001838380828437600092019190915250929550610ba7945050505050565b3480156103ba57600080fd5b5061025a61132f565b3480156103cf57600080fd5b50610296611335565b3480156103e457600080fd5b50610296600480360360608110156103fb57600080fd5b8135919081019060408101602082013564010000000081111561041d57600080fd5b82018360208201111561042f57600080fd5b8035906020019184600183028401116401000000008311171561045157600080fd5b91908080601f01602080910402602001604051908101604052809392919081815260200183838082843760009201919091525092959493602081019350359150506401000000008111156104a457600080fd5b8201836020820111156104b657600080fd5b803590602001918460018302840111640100000000831117156104d857600080fd5b91908080601f0160208091040260200160405190810160405280939291908181526020018383808284376000920191909152509295506113ab945050505050565b34801561052557600080fd5b506102966113dc565b34801561053a57600080fd5b5061025a6114eb565b34801561054f57600080fd5b506105586114f1565b6040805160208082528351818301528351919283929083019185019080838360005b8381101561059257818101518382015260200161057a565b50505050905090810190601f1680156105bf5780820380516001836020036101000a031916815260200191505b509250505060405180910390f35b3480156105d957600080fd5b5061025a61157f565b3480156105ee57600080fd5b5061060c6004803603602081101561060557600080fd5b5035611585565b6040805195865260208601949094528484019290925260608401526080830152519081900360a00190f35b34801561064357600080fd5b5061025a611662565b34801561065857600080fd5b506102e0611668565b34801561066d57600080fd5b5061025a611672565b34801561068257600080fd5b50610296600480360361014081101561069a57600080fd5b5080359060208101359060408101359060608101359060808101359060a08101359060c08101359060e081013590610100810135906101200135611678565b3480156106e557600080fd5b5061025a611785565b3480156106fa57600080fd5b506102966004803603602081101561071157600080fd5b5035600160a060020a031661178a565b34801561072d57600080fd5b506102966117f9565b6102966004803603604081101561074c57600080fd5b50803590602001356118db565b34801561076557600080fd5b50610296611b9d565b34801561077a57600080fd5b50610783611bad565b60408051600160a060020a039092168252519081900360200190f35b3480156107ab57600080fd5b5061060c600480360360208110156107c257600080fd5b5035611bbc565b3480156107d557600080fd5b5061025a611bee565b3480156107ea57600080fd5b506102966004803603604081101561080157600080fd5b5080359060200135611bf4565b34801561081a57600080fd5b50610296600480360360a081101561083157600080fd5b5080359060208101359060408101359060608101359060800135611dd9565b34801561085c57600080fd5b50610865612176565b6040805192835260208301919091528051918290030190f35b34801561088a57600080fd5b5061025a612180565b34801561089f57600080fd5b50610296600480360360a08110156108b657600080fd5b5080359060208101359060408101359060608101359060800135612186565b3480156108e157600080fd5b5061025a612281565b6105586004803603602081101561090057600080fd5b81019060208101813564010000000081111561091b57600080fd5b82018360208201111561092d57600080fd5b8035906020019184600183028401116401000000008311171561094f57600080fd5b91908080601f016020809104026020016040519081016040528093929190818152602001838380828437600092019190915250929550612287945050505050565b6102966122e5565b3480156109a457600080fd5b5061025a600480360360608110156109bb57600080fd5b50803590602081013590604001356123fe565b3480156109da57600080fd5b5061025a612475565b3480156109ef57600080fd5b5061060c61247b565b348015610a0457600080fd5b5061025a612495565b348015610a1957600080fd5b506102e061249b565b601f546024546029549192909190565b60175481565b610a48610a436124cc565b610b8c565b1515610aa0576040805160e560020a62461bcd02815260206004820152602e6024820152600080516020614ae58339815191526044820152600080516020614b05833981519152606482015290519081900360840190fd5b60065460ff1615610ae9576040805160e560020a62461bcd0281526020600482015260106024820152600080516020614ac5833981519152604482015290519081900360640190fd5b80610af2611785565b1015610b48576040805160e560020a62461bcd02815260206004820152601260248201527f6e6f7420656e6f7567682062616c616e63650000000000000000000000000000604482015290519081900360640190fd5b601c54604051600160a060020a039091169082156108fc029083906000818181858888f19350505050158015610b82573d6000803e3d6000fd5b5050565b60165481565b6000610b9f60058363ffffffff6124d016565b90505b919050565b610baf61257c565b600160a060020a03163314610c0e576040805160e560020a62461bcd02815260206004820152601360248201527f53656e646572206973206e6f742076616c696400000000000000000000000000604482015290519081900360640190fd5b6000828152601d602052604090205460ff161515600114610c79576040805160e560020a62461bcd02815260206004820152600f60248201527f5175657279206e6f7420666f756e640000000000000000000000000000000000604482015290519081900360640190fd5b600080838152601d6020526040902054610100900460ff166004811115610c9c57fe5b1415610cea57610cab8161276e565b6019819055604080519182525130917fa5e94f3306fa2da61143f299c2ee5f40c65181757be50882f2d568dd712239ef919081900360200190a2611094565b60016000838152601d6020526040902054610100900460ff166004811115610d0e57fe5b1415610e0657610d1f816004612777565b600f8190555030600160a060020a03167f6f2101077860ab28dc4312e9257356e09c83bb81e1e52ef91bf5c4158e43ebb282604051808060200180602001838103835260038152602001807f5045540000000000000000000000000000000000000000000000000000000000815250602001838103825284818151815260200191508051906020019080838360005b83811015610dc6578181015183820152602001610dae565b50505050905090810190601f168015610df35780820380516001836020036101000a031916815260200191505b50935050505060405180910390a2611094565b60026000838152601d6020526040902054610100900460ff166004811115610e2a57fe5b1415610ee157610e3b816004612777565b600e8190555030600160a060020a03167f6f2101077860ab28dc4312e9257356e09c83bb81e1e52ef91bf5c4158e43ebb282604051808060200180602001838103835260088152602001807f414c554d494e554d0000000000000000000000000000000000000000000000008152506020018381038252848181518152602001915080519060200190808383600083811015610dc6578181015183820152602001610dae565b60036000838152601d6020526040902054610100900460ff166004811115610f0557fe5b1415610fbc57610f16816004612777565b601a8190555030600160a060020a03167f6f2101077860ab28dc4312e9257356e09c83bb81e1e52ef91bf5c4158e43ebb282604051808060200180602001838103835260068152602001807f45544845555200000000000000000000000000000000000000000000000000008152506020018381038252848181518152602001915080519060200190808383600083811015610dc6578181015183820152602001610dae565b60046000838152601d6020526040902054610100900460ff166004811115610fe057fe5b1415611094578051610ff990601b90602084019061470c565b50604080516020808252835181830152835130937ff582fd67735739d9e0d8e0dbb0990cca174978f3c9d062969e9e154e2b05c65d9386939092839283019185019080838360005b83811015611059578181015183820152602001611041565b50505050905090810190601f1680156110865780820380516001836020036101000a031916815260200191505b509250505060405180910390a25b6000828152601d60205260409020805461ffff19169055601e546110bf90600163ffffffff6128a516565b601e55600f5460001080156110d657506000601a54115b1561126857600f54601a546111329190601f60005b6005020160a06040519081016040529081600082015481526020016001820154815260200160028201548152602001600382015481526020016004820154815250506128e7565b8051601f908155602080830151905560408201516021556060820151602255608090910151602355600f54601a5461116b9260016110eb565b8051602455602080820151602555604080830151602655606080840151602755608093840151602855601f548251938401528183526005838301527f5041434b31000000000000000000000000000000000000000000000000000000908301525130927f379bc695d06ce377909e9493fc040c2249480875824cdf7eb30d5e902b144ada928290030190a26024546040805160208101929092528082526005828201527f5041434b3200000000000000000000000000000000000000000000000000000060608301525130917f379bc695d06ce377909e9493fc040c2249480875824cdf7eb30d5e902b144ada919081900360800190a26000600f555b6000600e5411801561127c57506000601a54115b15610b8257600e54601a546112959190601f60026110eb565b80516029819055602080830151602a55604080840151602b55606080850151602c55608094850151602d558151928301939093528082526005828201527f5041434b3300000000000000000000000000000000000000000000000000000092820192909252905130927f379bc695d06ce377909e9493fc040c2249480875824cdf7eb30d5e902b144ada928290030190a26000600e555050565b60105481565b60065460ff161561137e576040805160e560020a62461bcd0281526020600482015260106024820152600080516020614ac5833981519152604482015290519081900360640190fd5b61138661249b565b156113a957436013556113996001612bba565b6113a1612d75565b6113a9612e0c565b565b5050600080805260036020527f3617319a054d772f909f7c479a2cebe5066e836a939412e32403c99029b92eff5550565b6113e7610a436124cc565b151561143f576040805160e560020a62461bcd02815260206004820152602e6024820152600080516020614ae58339815191526044820152600080516020614b05833981519152606482015290519081900360840190fd5b60065460ff16151561149b576040805160e560020a62461bcd02815260206004820152601460248201527f5061757361626c653a206e6f7420706175736564000000000000000000000000604482015290519081900360640190fd5b6006805460ff191690557f5db9ee0a495bf2e6ff9c91a7834c1ba4fdd244a5e8aa4e537bd38aeae4b073aa6114ce6124cc565b60408051600160a060020a039092168252519081900360200190a1565b60115481565b601b805460408051602060026001851615610100026000190190941693909304601f810184900484028201840190925281815292918301828280156115775780601f1061154c57610100808354040283529160200191611577565b820191906000526020600020905b81548152906001019060200180831161155a57829003601f168201915b505050505081565b60125481565b600080808080600386106115e3576040805160e560020a62461bcd02815260206004820152601860248201527f496e6465782076616c7565206973206e6f742076616c69640000000000000000604482015290519081900360640190fd5b601f86600381106115f057fe5b60050201549450601f866003811061160457fe5b60050201600101549350601f8660038110151561161d57fe5b60050201600201549250601f8660038110151561163657fe5b60050201600301549150601f8660038110151561164f57fe5b6005020160040154905091939590929450565b601a5481565b60065460ff165b90565b60145481565b611683610a436124cc565b15156116db576040805160e560020a62461bcd02815260206004820152602e6024820152600080516020614ae58339815191526044820152600080516020614b05833981519152606482015290519081900360840190fd5b60065460ff1615611724576040805160e560020a62461bcd0281526020600482015260106024820152600080516020614ac5833981519152604482015290519081900360640190fd5b61173260008b8b8787611dd9565b611740600189898787611dd9565b61174e600287878585611dd9565b60405130907fcf22140c728495d75d0c6ca11003a93171500d99af9c6b54c5e066f7fc67530690600090a250505050505050505050565b303190565b611795610a436124cc565b15156117ed576040805160e560020a62461bcd02815260206004820152602e6024820152600080516020614ae58339815191526044820152600080516020614b05833981519152606482015290519081900360840190fd5b6117f681612ea3565b50565b611804610a436124cc565b151561185c576040805160e560020a62461bcd02815260206004820152602e6024820152600080516020614ae58339815191526044820152600080516020614b05833981519152606482015290519081900360840190fd5b60065460ff16156118a5576040805160e560020a62461bcd0281526020600482015260106024820152600080516020614ac5833981519152604482015290519081900360640190fd5b6006805460ff191660011790557f62e78cea01bee320cd4e420270b5ea74000d11b0c9f74754ebdbfc544b05a2586114ce6124cc565b60065460ff1615611924576040805160e560020a62461bcd0281526020600482015260106024820152600080516020614ac5833981519152604482015290519081900360640190fd5b600754601854439082011061197e576040805160e560020a62461bcd02815260206004820152602160248201526000805160206149ab833981519152604482015260fa60020a601d02606482015290519081900360840190fd5b8282116119fb576040805160e560020a62461bcd02815260206004820152602760248201527f4d61782076616c7565206973206e6f742067726561746572207468616e204d6960448201527f6e2076616c756500000000000000000000000000000000000000000000000000606482015290519081900360840190fd5b6060611a0684612eeb565b611a0f84612eeb565b60405160200180807f68747470733a2f2f7777772e72616e646f6d2e6f72672f696e7465676572732f81526020017f3f6e756d3d31266d696e3d000000000000000000000000000000000000000000815250602b0183805190602001908083835b60208310611a8f5780518252601f199092019160209182019101611a70565b51815160209384036101000a60001901801990921691161790527f266d61783d000000000000000000000000000000000000000000000000000000919093019081528451600590910192850191508083835b60208310611b005780518252601f199092019160209182019101611ae1565b6001836020036101000a038019825116818451168082178552505050505050905001807f26636f6c3d3126626173653d313026666f726d61743d706c61696e26726e643d81526020017f6e65770000000000000000000000000000000000000000000000000000000000815250602301925050506040516020818303038152906040529050611b93816000601554612fde565b5050436007555050565b6113a9611ba86124cc565b613340565b601c54600160a060020a031681565b601f8160038110611bc957fe5b6005020180546001820154600283015460038401546004909401549294509092909185565b60135481565b611bff610a436124cc565b1515611c57576040805160e560020a62461bcd02815260206004820152602e6024820152600080516020614ae58339815191526044820152600080516020614b05833981519152606482015290519081900360840190fd5b60065460ff1615611ca0576040805160e560020a62461bcd0281526020600482015260106024820152600080516020614ac5833981519152604482015290519081900360640190fd5b60648211611d1e576040805160e560020a62461bcd02815260206004820152602b60248201527f4d696e696d756e204574686572207072696365206d757374206265206174206c60448201527f6561737420312063656e74000000000000000000000000000000000000000000606482015290519081900360840190fd5b80821115611d76576040805160e560020a62461bcd02815260206004820152601e60248201527f56616c756520666f722070726963657320617265206e6f742076616c69640000604482015290519081900360640190fd5b60108290556011819055611d90818363ffffffff6128a516565b601255601054601154604080519283526020830191909152805130927f75c5e6571d1af97eacc7aee670ef21457311c1f3b6f6f300cbca5a1a845866c192908290030190a25050565b611de4610a436124cc565b1515611e3c576040805160e560020a62461bcd02815260206004820152602e6024820152600080516020614ae58339815191526044820152600080516020614b05833981519152606482015290519081900360840190fd5b60065460ff1615611e85576040805160e560020a62461bcd0281526020600482015260106024820152600080516020614ac5833981519152604482015290519081900360640190fd5b60038510611edd576040805160e560020a62461bcd02815260206004820152601860248201527f496e6465782076616c7565206973206e6f742076616c69640000000000000000604482015290519081900360640190fd5b60008411611f5b576040805160e560020a62461bcd02815260206004820152602d60248201527f4d696e696d756e20706f696e74732076616c7565206973206e6f74206772656160448201527f746572207468616e207a65726f00000000000000000000000000000000000000606482015290519081900360840190fd5b6103e88310611fda576040805160e560020a62461bcd02815260206004820152602160248201527f4d6178696d756e20706f696e74732076616c7565206973206e6f742076616c6960448201527f6400000000000000000000000000000000000000000000000000000000000000606482015290519081900360840190fd5b82841115612032576040805160e560020a62461bcd02815260206004820152601f60248201527f56616c75657320666f7220706f696e747320617265206e6f742076616c696400604482015290519081900360640190fd5b8082111561208a576040805160e560020a62461bcd02815260206004820152601e60248201527f56616c756520666f722070726963657320617265206e6f742076616c69640000604482015290519081900360640190fd5b83601f866003811061209857fe5b600502015583601f86600381106120ab57fe5b600502016001018190555082601f866003811015156120c657fe5b600502016002018190555060008211156120f45781601f86600381106120e857fe5b60050201600301819055505b60008111156121175780601f866003811061210b57fe5b60050201600401819055505b6040805186815260208101869052808201869052606081018590526080810184905260a08101839052905130917f15bdfc47a06d22e1d8fd353821080054c057c41c06f80d3ab5c8fab41c728a95919081900360c00190a25050505050565b6010546011549091565b601e5481565b612191610a436124cc565b15156121e9576040805160e560020a62461bcd02815260206004820152602e6024820152600080516020614ae58339815191526044820152600080516020614b05833981519152606482015290519081900360840190fd5b60065460ff1615612232576040805160e560020a62461bcd0281526020600482015260106024820152600080516020614ac5833981519152604482015290519081900360640190fd5b61223d838383613388565b612246856135ea565b61224f8461363d565b60405130907fdcc5e04534282375709cf2e0097338a56bc232cc367facbf9f72b46f875eba9590600090a25050505050565b60195481565b6060600034116122e1576040805160e560020a62461bcd02815260206004820152601e60248201527f76616c7565206973206e6f742067726561746572207468616e207a65726f0000604482015290519081900360640190fd5b5090565b60065460ff161561232e576040805160e560020a62461bcd0281526020600482015260106024820152600080516020614ac5833981519152604482015290519081900360640190fd5b600d546018544390820110612388576040805160e560020a62461bcd02815260206004820152602160248201526000805160206149ab833981519152604482015260fa60020a601d02606482015290519081900360840190fd5b60608060405190810160405280603f81526020017f6a736f6e28687474703a2f2f776f726c64636c6f636b6170692e636f6d2f617081526020017f692f6a736f6e2f7574632f6e6f77292e63757272656e744461746554696d650081525090506123f6816004601454612fde565b505043600d55565b60008061242183612415878763ffffffff61368f16565b9063ffffffff61368f16565b111561246a57602954612463906124579061243d9085906136ec565b612415601f60015b6005020154879063ffffffff6136ec16565b612415601f6000612445565b905061246e565b5060005b9392505050565b60185481565b601754601854601454601554601654939492939192909190565b60155481565b600060175460135401431180156124b757506124b5611668565b155b156124c45750600161166f565b50600061166f565b3390565b6000600160a060020a0382161515612558576040805160e560020a62461bcd02815260206004820152602260248201527f526f6c65733a206163636f756e7420697320746865207a65726f20616464726560448201527f7373000000000000000000000000000000000000000000000000000000000000606482015290519081900360840190fd5b50600160a060020a03811660009081526020839052604090205460ff165b92915050565b600154600090600160a060020a031615806125a957506001546125a790600160a060020a0316613788565b155b156125ba576125b8600061378c565b505b600160009054906101000a9004600160a060020a0316600160a060020a03166338cc48316040518163ffffffff1660e060020a028152600401602060405180830381600087803b15801561260d57600080fd5b505af1158015612621573d6000803e3d6000fd5b505050506040513d602081101561263757600080fd5b5051600054600160a060020a039081169116146126ed57600160009054906101000a9004600160a060020a0316600160a060020a03166338cc48316040518163ffffffff1660e060020a028152600401602060405180830381600087803b1580156126a157600080fd5b505af11580156126b5573d6000803e3d6000fd5b505050506040513d60208110156126cb57600080fd5b505160008054600160a060020a031916600160a060020a039092169190911790555b6000809054906101000a9004600160a060020a0316600160a060020a031663c281d19e6040518163ffffffff1660e060020a02815260040160206040518083038186803b15801561273d57600080fd5b505afa158015612751573d6000803e3d6000fd5b505050506040513d602081101561276757600080fd5b5051905090565b6000610b9f8260005b6000828180805b8351811015612889576030848281518110151561279757fe5b90602001015160f860020a900460f860020a0260f860020a900460ff16101580156127ed5750603984828151811015156127cd57fe5b90602001015160f860020a900460f860020a0260f860020a900460ff1611155b1561284957811561280c5785151561280457612889565b600019909501945b600a830292506030848281518110151561282257fe5b90602001015160f860020a900460f860020a0260f860020a900460ff160383019250612881565b838181518110151561285757fe5b90602001015160f860020a900460f860020a0260f860020a900460ff16602e141561288157600191505b60010161277e565b50600085111561289c5784600a0a820291505b50949350505050565b600061246e83836040805190810160405280601e81526020017f536166654d6174683a207375627472616374696f6e206f766572666c6f770000815250613796565b6128ef614786565b60008411612947576040805160e560020a62461bcd02815260206004820152601560248201527f50726963652063616e206e6f74206265207a65726f0000000000000000000000604482015290519081900360640190fd5b6000831161299f576040805160e560020a62461bcd02815260206004820152601b60248201527f45746865722070726963652063616e206e6f74206265207a65726f0000000000604482015290519081900360640190fd5b6060820151600090819081908190819081908a1180156129c25750606088015115155b156129f85760608801516129dd908b9063ffffffff6128a516565b935089886080015110156129f357608088018a90525b612a00565b606088018a90525b88601054108015612a12575060105415155b15612a3257601054612a2b908a9063ffffffff6128a516565b9250612a38565b60108990555b886011541015612a485760118990555b601054601154612a5d9163ffffffff6128a516565b601255608088015160608901511015612a905760608801516080890151612a899163ffffffff6128a516565b9450612a9b565b606088015160808901525b876040015188602001511015612b3f5760208801516040890151612ac49163ffffffff6128a516565b95506000851115612b0357612b00612ae2868863ffffffff61383016565b612af48661271063ffffffff6136ec16565b9063ffffffff61383016565b91505b60006012541115612b3a57601254612b3790612b25908863ffffffff61383016565b612af48561271063ffffffff6136ec16565b90505b612b4a565b602088015160408901525b612b7d612710612af483612b71866124156127108f602001516136ec90919063ffffffff16565b9063ffffffff6128a516565b80895260208901511115612b975760208801518852612bac565b604088015188511115612bac57604088015188525b509598975050505050505050565b600b546018544390820110612c14576040805160e560020a62461bcd02815260206004820152602160248201526000805160206149ab833981519152604482015260fa60020a601d02606482015290519081900360840190fd5b60008211612c6c576040805160e560020a62461bcd02815260206004820152601f60248201527f416d6f756e74206973206e6f742067726561746572207468616e207a65726f00604482015290519081900360640190fd5b6060612c7783612eeb565b60405160200180807f5b55524c5d205b276a736f6e2868747470733a2f2f70726f2d6170692e636f6981526020017f6e6d61726b65746361702e636f6d2f76312f746f6f6c732f70726963652d636f81526020017f6e76657273696f6e3f616d6f756e743d0000000000000000000000000000000081525060500182805190602001908083835b60208310612d1d5780518252601f199092019160209182019101612cfe565b6001836020036101000a038019825116818451168082178552505050505050905001806147d160e9913960e9019150506040516020818303038152906040529050612d6c816003601654613872565b505043600b5550565b6009546018544390820110612dcf576040805160e560020a62461bcd02815260206004820152602160248201526000805160206149ab833981519152604482015260fa60020a601d02606482015290519081900360840190fd5b606060405160200180806148ba60d1913960d10190506040516020818303038152906040529050612e04816001601654613872565b505043600955565b600a546018544390820110612e66576040805160e560020a62461bcd02815260206004820152602160248201526000805160206149ab833981519152604482015260fa60020a601d02606482015290519081900360840190fd5b606060405160200180806149cb60fa913960fa0190506040516020818303038152906040529050612e9b816002601654613872565b505043600a55565b612eb460058263ffffffff613b5116565b604051600160a060020a038216907f44d6d25963f097ad14f29f06854a01f575648a1ef82f30e562ccd3889717e33990600090a250565b6060811515612f2e575060408051808201909152600181527f30000000000000000000000000000000000000000000000000000000000000006020820152610ba2565b8160005b8115612f4657600101600a82049150612f32565b6060816040519080825280601f01601f191660200182016040528015612f73576020820181803883390190505b50905060001982015b851561289c57815160001982019160f860020a6030600a8a060102918491908110612fa357fe5b9060200101907effffffffffffffffffffffffffffffffffffffffffffffffffffffffffffff1916908160001a905350600a86049550612f7c565b60003411613036576040805160e560020a62461bcd02815260206004820152601160248201527f6d73672e76616c7565206973207a65726f000000000000000000000000000000604482015290519081900360640190fd5b825160001061308f576040805160e560020a62461bcd02815260206004820152600e60248201527f517565727920697320656d707479000000000000000000000000000000000000604482015290519081900360640190fd5b600081116130e7576040805160e560020a62461bcd02815260206004820152601160248201527f476173206c696d6974206973207a65726f000000000000000000000000000000604482015290519081900360640190fd5b6000806131296040805190810160405280600381526020017f55524c000000000000000000000000000000000000000000000000000000000081525084613b76565b90508034101561324657604080516020808252604b908201527f50726f7661626c6520717565727920776173204e4f542073656e742c20706c65818301527f6173652061646420736f6d652045544820746f20636f76657220666f7220746860608201527f652071756572792066656500000000000000000000000000000000000000000060808201529051309160008051602061498b833981519152919081900360a00190a26040805160e560020a62461bcd02815260206004820152603260248201527f6d73672e76616c7565206973206e6f7420656e6f75676820746f20636f76657260448201527f20666f7220746865207175657279206665650000000000000000000000000000606482015290519081900360840190fd5b6132866040805190810160405280600381526020017f55524c00000000000000000000000000000000000000000000000000000000008152508685613ded565b915061329282856141ed565b60405133903483900380156108fc02916000818181858888f193505050501580156132c1573d6000803e3d6000fd5b50604080516020808252603a908201527f50726f7661626c652055524c207175657279207761732073656e742c20737461818301527f6e64696e6720627920666f722074686520616e737765722e2e2e00000000000060608201529051309160008051602061498b833981519152919081900360800190a25050505050565b61335160058263ffffffff61423e16565b604051600160a060020a038216907fa3b62bc36326052d97ea62d63c3d60308ed4c3ea8ac079dd8499f1e9c4f80c0f90600090a250565b620249f08310156133e3576040805160e560020a62461bcd02815260206004820152601a60248201527f476173206c696d697420286c6f772920697320746f6f206c6f77000000000000604482015290519081900360640190fd5b818310613460576040805160e560020a62461bcd02815260206004820152602960248201527f4c6f77206c696d6974206d757374206265206c6f776572207468616e206d656460448201527f69756d206c696d69740000000000000000000000000000000000000000000000606482015290519081900360840190fd5b62030d408210156134bb576040805160e560020a62461bcd02815260206004820152601a60248201527f476173206c696d697420286d65642920697320746f6f206c6f77000000000000604482015290519081900360640190fd5b808210613538576040805160e560020a62461bcd02815260206004820152602a60248201527f4d656469756d206c696d6974206d757374206265206c6f776572207468616e2060448201527f68696768206c696d697400000000000000000000000000000000000000000000606482015290519081900360840190fd5b6205cc60811015613593576040805160e560020a62461bcd02815260206004820152601b60248201527f476173206c696d69742028686967682920697320746f6f206c6f770000000000604482015290519081900360640190fd5b6014839055601582905560168190556040805184815260208101849052808201839052905130917f94bc389558d1a208203762ed168652fb0d693160f4981a26cc44a60279ca26d8919081900360600190a2505050565b8015156135fc57619c40601755613602565b60178190555b601754604080519182525130917f831ff623e3233c3472f0936ce17d5452ad98c613cde74d48e20ee2c08f2dc982919081900360200190a250565b80151561364f57611770601855613655565b60188190555b601854604080519182525130917e162e44ebe30b2af08828299ce417bf3cc404e6d6be6aefc69eed219ed4a005919081900360200190a250565b60008282018381101561246e576040805160e560020a62461bcd02815260206004820152601b60248201527f536166654d6174683a206164646974696f6e206f766572666c6f770000000000604482015290519081900360640190fd5b60008215156136fd57506000612576565b82820282848281151561370c57fe5b041461246e576040805160e560020a62461bcd02815260206004820152602160248201527f536166654d6174683a206d756c7469706c69636174696f6e206f766572666c6f60448201527f7700000000000000000000000000000000000000000000000000000000000000606482015290519081900360840190fd5b3b90565b6000610b9f6142e6565b600081848411156138285760405160e560020a62461bcd0281526004018080602001828103825283818151815260200191508051906020019080838360005b838110156137ed5781810151838201526020016137d5565b50505050905090810190601f16801561381a5780820380516001836020036101000a031916815260200191505b509250505060405180910390fd5b505050900390565b600061246e83836040805190810160405280601a81526020017f536166654d6174683a206469766973696f6e206279207a65726f000000000000815250614690565b82516000106138cb576040805160e560020a62461bcd02815260206004820152600e60248201527f517565727920697320656d707479000000000000000000000000000000000000604482015290519081900360640190fd5b60008111613923576040805160e560020a62461bcd02815260206004820152601160248201527f476173206c696d6974206973207a65726f000000000000000000000000000000604482015290519081900360640190fd5b600030600160a060020a03163161396f6040805190810160405280600681526020017f4e4553544544000000000000000000000000000000000000000000000000000081525084613b76565b1115613a8857604080516020808252604b908201527f50726f7661626c6520717565727920776173204e4f542073656e742c20706c65818301527f6173652061646420736f6d652045544820746f20636f76657220666f7220746860608201527f652071756572792066656500000000000000000000000000000000000000000060808201529051309160008051602061498b833981519152919081900360a00190a26040805160e560020a62461bcd02815260206004820152603460248201527f4554482062616c616e6365206973206e6f7420656e6f75676820746f20636f7660448201527f657220666f722074686520717565727920666565000000000000000000000000606482015290519081900360840190fd5b613ac86040805190810160405280600681526020017f6e657374656400000000000000000000000000000000000000000000000000008152508584613ded565b9050613ad481846141ed565b604080516020808252603d908201527f50726f7661626c65204e4553544544207175657279207761732073656e742c20818301527f7374616e64696e6720627920666f722074686520616e737765722e2e2e00000060608201529051309160008051602061498b833981519152919081900360800190a250505050565b600160a060020a0316600090815260209190915260409020805460ff19166001179055565b600154600090600160a060020a03161580613ba35750600154613ba190600160a060020a0316613788565b155b15613bb457613bb2600061378c565b505b600160009054906101000a9004600160a060020a0316600160a060020a03166338cc48316040518163ffffffff1660e060020a028152600401602060405180830381600087803b158015613c0757600080fd5b505af1158015613c1b573d6000803e3d6000fd5b505050506040513d6020811015613c3157600080fd5b5051600054600160a060020a03908116911614613ce757600160009054906101000a9004600160a060020a0316600160a060020a03166338cc48316040518163ffffffff1660e060020a028152600401602060405180830381600087803b158015613c9b57600080fd5b505af1158015613caf573d6000803e3d6000fd5b505050506040513d6020811015613cc557600080fd5b505160008054600160a060020a031916600160a060020a039092169190911790555b60008054604080517f2ef3accc0000000000000000000000000000000000000000000000000000000081526024810186905260048101918252865160448201528651600160a060020a0390931693632ef3accc93889388939092839260649092019160208701918190849084905b83811015613d6d578181015183820152602001613d55565b50505050905090810190601f168015613d9a5780820380516001836020036101000a031916815260200191505b509350505050602060405180830381600087803b158015613dba57600080fd5b505af1158015613dce573d6000803e3d6000fd5b505050506040513d6020811015613de457600080fd5b50519392505050565b600154600090600160a060020a03161580613e1a5750600154613e1890600160a060020a0316613788565b155b15613e2b57613e29600061378c565b505b600160009054906101000a9004600160a060020a0316600160a060020a03166338cc48316040518163ffffffff1660e060020a028152600401602060405180830381600087803b158015613e7e57600080fd5b505af1158015613e92573d6000803e3d6000fd5b505050506040513d6020811015613ea857600080fd5b5051600054600160a060020a03908116911614613f5e57600160009054906101000a9004600160a060020a0316600160a060020a03166338cc48316040518163ffffffff1660e060020a028152600401602060405180830381600087803b158015613f1257600080fd5b505af1158015613f26573d6000803e3d6000fd5b505050506040513d6020811015613f3c57600080fd5b505160008054600160a060020a031916600160a060020a039092169190911790555b60008054604080517f2ef3accc0000000000000000000000000000000000000000000000000000000081526024810186905260048101918252875160448201528751600160a060020a0390931692632ef3accc928992889282916064019060208601908083838c5b83811015613fde578181015183820152602001613fc6565b50505050905090810190601f16801561400b5780820380516001836020036101000a031916815260200191505b509350505050602060405180830381600087803b15801561402b57600080fd5b505af115801561403f573d6000803e3d6000fd5b505050506040513d602081101561405557600080fd5b50519050670de0b6b3a76400003a84020181111561407757506000905061246e565b600080546040517fc51be90f0000000000000000000000000000000000000000000000000000000081526004810183815260648201879052608060248301908152895160848401528951600160a060020a039094169463c51be90f94879491938c938c938c93604482019160a4019060208801908083838c5b838110156141085781810151838201526020016140f0565b50505050905090810190601f1680156141355780820380516001836020036101000a031916815260200191505b50838103825285518152855160209182019187019080838360005b83811015614168578181015183820152602001614150565b50505050905090810190601f1680156141955780820380516001836020036101000a031916815260200191505b5096505050505050506020604051808303818588803b1580156141b757600080fd5b505af11580156141cb573d6000803e3d6000fd5b50505050506040513d60208110156141e257600080fd5b505195945050505050565b6000828152601d60205260409020805460ff191660011780825582919061ff00191661010083600481111561421e57fe5b0217905550601e5461423790600163ffffffff61368f16565b601e555050565b61424882826124d0565b15156142c4576040805160e560020a62461bcd02815260206004820152602160248201527f526f6c65733a206163636f756e7420646f6573206e6f74206861766520726f6c60448201527f6500000000000000000000000000000000000000000000000000000000000000606482015290519081900360840190fd5b600160a060020a0316600090815260209190915260409020805460ff19169055565b600080614306731d3b2638a7cc9f2cb3d298a3da7a90b67e5506ed613788565b11156143775760018054600160a060020a031916731d3b2638a7cc9f2cb3d298a3da7a90b67e5506ed17905560408051808201909152600b81527f6574685f6d61696e6e6574000000000000000000000000000000000000000000602082015261436f906146fd565b50600161166f565b600061439673c03a2615d5efaf5f49f60b7bb6583eaec212fdf1613788565b11156143ff5760018054600160a060020a03191673c03a2615d5efaf5f49f60b7bb6583eaec212fdf117905560408051808201909152600c81527f6574685f726f707374656e330000000000000000000000000000000000000000602082015261436f906146fd565b600061441e73b7a07bcf2ba2f2703b24c0691b5278999c59ac7e613788565b11156144875760018054600160a060020a03191673b7a07bcf2ba2f2703b24c0691b5278999c59ac7e17905560408051808201909152600981527f6574685f6b6f76616e0000000000000000000000000000000000000000000000602082015261436f906146fd565b60006144a673146500cfd35b22e4a392fe0adc06de1a1368ed48613788565b111561450f5760018054600160a060020a03191673146500cfd35b22e4a392fe0adc06de1a1368ed4817905560408051808201909152600b81527f6574685f72696e6b656279000000000000000000000000000000000000000000602082015261436f906146fd565b600061452e73a2998efd205fb9d4b4963afb70778d6354ad3a41613788565b11156145975760018054600160a060020a03191673a2998efd205fb9d4b4963afb70778d6354ad3a4117905560408051808201909152600a81527f6574685f676f65726c6900000000000000000000000000000000000000000000602082015261436f906146fd565b60006145b6736f485c8bf6fc43ea212e93bbf8ce046c7f1cb475613788565b11156145e8575060018054600160a060020a031916736f485c8bf6fc43ea212e93bbf8ce046c7f1cb47517815561166f565b60006146077320e12a1f859b3feae5fb2a0a32c18f5a65555bbf613788565b1115614639575060018054600160a060020a0319167320e12a1f859b3feae5fb2a0a32c18f5a65555bbf17815561166f565b60006146587351efaf4c8b3c9afbd5ab9f4bbc82784ab6ef8faa613788565b111561468a575060018054600160a060020a0319167351efaf4c8b3c9afbd5ab9f4bbc82784ab6ef8faa17815561166f565b50600090565b6000818184116146e55760405160e560020a62461bcd028152600401808060200182810382528381815181526020019150805190602001908083836000838110156137ed5781810151838201526020016137d5565b50600083858115156146f357fe5b0495945050505050565b8051610b829060029060208401905b828054600181600116156101000203166002900490600052602060002090601f016020900481019282601f1061474d57805160ff191683800117855561477a565b8280016001018555821561477a579182015b8281111561477a57825182559160200191906001019061475f565b506122e19291506147b6565b60a06040519081016040528060008152602001600081526020016000815260200160008152602001600081525090565b61166f91905b808211156122e157600081556001016147bc56fe2673796d626f6c3d45544826636f6e766572743d45555226434d435f50524f5f4150495f4b45593d247b5b646563727970745d20424f484159687854304e66785a587a4961654b505878736355723852494b442f583458615161527a54486851657632367478784e376533734b696a41356b45656354524a794832346d567a48424b6935432f44675165756a71384a4a316b5a784167616f30777765565156686c744f7a6c6776367734467746354a786238616770682b427664487a47704a5050586d39673651426431424e76466e797d292e646174612e71756f74652e4555522e7072696365275d5b55524c5d205b276a736f6e2868747470733a2f2f6d792d6a736f6e2d7365727665722e74797069636f64652e636f6d2f247b5b646563727970745d204249643553645037494a647752754f5356444d69574155752b7949675361687756676766614f786475694f6646655a47635645623949544d503043394d70506d2b306c627a7a44354b616374516a6d57534563713474334e396e4379716564304d4549304439304b417a4c4a456954344d374f4f67726650573278425052584542786f537d292e302e70726963652e455552275da64dbc08b0836b2de5388c913141a3b62577aa798d99b83777646718907ba2f952657175657374206e6f7420616c6c6f7765642e20546f6f206672657175656e5b55524c5d205b276a736f6e2868747470733a2f2f7777772e7175616e646c2e636f6d2f6170692f76332f64617461736574732f4f44412f50414c554d5f5553443f6170695f6b65793d247b5b646563727970745d20424f5859336d734c4a6c62324f30306c3951476267622b6d764a357343584e4e376d75505831686b496d2b6370354c64615643426d656a6a623063744a577541426b6a77776c52486551597362536733646d7a707a6e624f7175476f58466f663058414c3364663851552f6f5a7a4b4c702b6b464f5a764e42587167784d6c68346e2b777239513d7d26726f77733d31292e646174617365742e646174612e302e31275d5061757361626c653a207061757365640000000000000000000000000000000041646d696e526f6c653a2063616c6c657220646f6573206e6f742068617665207468652041646d696e20726f6c65000000000000000000000000000000000000a165627a7a72305820d953662d18ce452c04c1c1501b189a1a8b6bdb87d56feec0346942abf748215b0029",
  "source": "pragma solidity >= 0.5.0 < 0.6.0;\n\nimport \"./lib/provableAPI_0.5.sol\";\nimport \"./lib/SafeMath.sol\";\nimport \"./lib/Pausable.sol\";\n\n/**\n * \t@dev CustomOracle\n *\n **/\ncontract CustomOracle is usingProvable, Pausable {\n\n    using SafeMath for uint;\n\n\t/**\n     *  Constantes inicializacin\n     **/\n\tuint constant private BLOCKS_PERIOD = 40000;\n\tuint constant private BLOCKS_REQUEST_ALLOW = 6000;\n\tuint constant private GAS_LIMIT_LOW = 150000;\n\tuint constant private GAS_LIMIT_MED = 200000;\n\tuint constant private GAS_LIMIT_HIGH = 380000;\n\n\t/**\n\t *  Constantes\n     **/\n\tuint constant private MAX_VALUE_LIMIT = 1000;\n\tuint constant private DEC_POS_DIV = 10000;\n\tuint constant private DECIMAL_POS = 4;\n\tuint constant private ONE_CENT = 100;\n\tuint constant private PACKAGING_ITEMS = 3;\n\tuint constant private PACK1 = 0;\n\tuint constant private PACK2 = 1;\n\tuint constant private PACK3 = 2;\n\n\t/**\n     *  Variables control de frecuencia\n     **/\n    uint private lastReqRANDOM;\n    uint private lastReqOIL;\n    uint private lastReqPET;\n    uint private lastReqALUMINUM;\n    uint private lastReqETHEUR;\n    uint private lastReqUSDEUR;\n    uint private lastReqDATE;\n    uint private aluminumPrice;\n    uint private petPrice;\n\n\t/**\n\t *  Variables pblicas\n     **/\n    uint public priceEthMin;\n    uint public priceEthMax;\n    uint public rangeEthPrice;\n    uint public prevBlock;\n\n    uint public gasLimitLow;\n    uint public gasLimitMed;\n    uint public gasLimitHigh;\n    uint public blocksPeriod;\n    uint public blocksRequest;\n\n    uint public randomNumber;\n    uint public rateETHEUR;\n    string public dateTime;\n\n    address payable public owner;    \n\n\t/**\n     *  Tipos posibles de queries enviadas por el orculo\n     **/\n    enum QueryType{\n        RANDOM,         // Nmero aleatorio\n        PET,            // Precio plstico PET\n        ALUMINUM,       // Precio aluminio\n        ETHEUR,         // Tipo de cambio Ether - Euro\n        DATE            // Fecha y hora actual\n    }\n\n\t/**\n     *  Struct con campos asociados a los puntos dados por envase\n     **/\n    struct PointsPerPackaging {\n        uint pointsPerPack;\n        uint pointsMin;\n        uint pointsMax;\n        uint priceMin;\n        uint priceMax;\n    }\n\n\t/**\n     *  Datos queries en progreso\n    **/\n    struct queryData {\n        bool inProgress;\n        QueryType qType;\n    }\n\n\t/**\n     *  Mapping para el control de queries en progreso\n     **/\n    mapping (bytes32 => queryData) private queryInProgress;\n\n\t/**\n     *  Contador de queries en progreso (enviadas al orculo y pendiente de recibir respuesta)\n     *  Sirve para controlar si hay queries que se estn quedando sin respuesta\n     **/\n    uint public countQueryInProgress;    \n\n    /**\n     * Array con informacin campos asociados a los puntos dados por envase\n     **/\n    PointsPerPackaging[PACKAGING_ITEMS] public packaging;\n\n    /**\n     *    Eventos\n     **/\n    event LogNewProvableQuery(address indexed myAddress, string description);\n    event generateNewValue(address indexed myAddress, string description, string value);\n    event generatedRandomNumber(address indexed myAddress, uint256 randomNumber);\n    event currentDateTime(address indexed myAddress, string currentDateTime);\n    event newPointsReward(address indexed myAddress, string packaging, uint points);\n    event packagingUpdate(address indexed myAddress, uint ind, uint points, uint pointsMin, uint pointsMax, uint priceMin, uint priceMax);\n    event packagingFullUpdate(address indexed myAddress);\n    event ethPriceUpdate(address indexed myAddress, uint priceEthMin, uint priceEthMax);\n    event limitGasUpdate(address indexed myAddress, uint gasLimitLow, uint gasLimitMed, uint gasLimitHigh);\n    event blockPeriodUpdate(address indexed myAddress, uint blocksPeriod);\n    event blockRequestUpdate(address indexed myAddress, uint blocksRequest);\n    event otherValuesFullUpdate(address indexed myAddress);\n\n    /**\n     * @dev Valida la frecuencia de una peticin al orculo\n     *\n     * @param _lastRequest Nmero de bloques en la ltima peticin\n     **/\n    modifier checkLastRequest(uint _lastRequest) {\n        require(_lastRequest + blocksRequest < block.number, \"Request not allowed. Too frequent\");\n        _;\n    }\n\n    /**\n     * @dev Constructor\n     *      Iniciailiza los parmetros con los valores por defecto\n     **/\n    constructor()\n        payable\n        public\n    {\n        blocksPeriod = BLOCKS_PERIOD;\n        blocksRequest = BLOCKS_REQUEST_ALLOW;\n        gasLimitLow = GAS_LIMIT_LOW;\n        gasLimitMed = GAS_LIMIT_MED;\n        gasLimitHigh = GAS_LIMIT_HIGH;\n        owner = msg.sender;\n\n        initializePointsArray();\n    }\n\n    /**\n     * @dev Calcula el total de puntos que corresponden segn la cantidad de envases entregados\n     *\n     * @param _pack1Qty     Cantidad envases pack1\n     * @param _pack2Qty     Cantidad envases pack2\n     * @param _pack3Qty     Cantidad envases pack3\n     * @return _totalPoints Total de puntos\n     **/\n    function calculatePoints(uint _pack1Qty, uint _pack2Qty, uint _pack3Qty)\n        public\n        view\n        returns(uint _totalPoints)\n    {\n        if (_pack1Qty.add(_pack2Qty).add(_pack3Qty) > 0) {\n            _totalPoints = _pack1Qty.mul(packaging[PACK1].pointsPerPack).add(\n                           _pack2Qty.mul(packaging[PACK2].pointsPerPack).add(\n                           _pack3Qty.mul(packaging[PACK3].pointsPerPack)));\n        } else {\n            _totalPoints = 0;\n        }\n    }\n\n    /**\n     * @dev Devuelve el nmero de puntos que corresponde a cada uno de los envases\n     *\n     * @return _pointsPack1 Puntos por pack1\n     * @return _pointsPack2 Puntos por pack2\n     * @return _pointsPack3 Puntos por pack3\n     **/\n    function getPointsPerPack()\n        public\n        view\n        returns(uint _pointsPack1, uint _pointsPack2, uint _pointsPack3)\n    {\n        _pointsPack1 = packaging[PACK1].pointsPerPack;\n        _pointsPack2 = packaging[PACK2].pointsPerPack;\n        _pointsPack3 = packaging[PACK3].pointsPerPack;\n    }\n\n    /**\n     * @dev Devuelve los valores utilizados en el clculo de puntos para un tipo de envase\n     *\n     * @param _ind Indice array de datos\n     *\n     * @return _pointsPerPack Puntos por envase\n     * @return _pointsMin Puntos mnimos permitidos\n     * @return _pointsMax Puntos mximo permitidos\n     * @return _priceMin Precio mnimo de referencia\n     * @return _priceMax Precio mximo de referencia\n     **/\n    function getValuesPerPack(uint _ind)\n        public\n        view\n        returns(uint _pointsPerPack, uint _pointsMin, uint _pointsMax, uint _priceMin, uint _priceMax)\n    {\n        require(_ind < PACKAGING_ITEMS, \"Index value is not valid\");\n        \n        _pointsPerPack = packaging[_ind].pointsPerPack;\n        _pointsMin = packaging[_ind].pointsMin;\n        _pointsMax = packaging[_ind].pointsMax;\n        _priceMin = packaging[_ind].priceMin;\n        _priceMax = packaging[_ind].priceMax;\n    }\n\n    /**\n     * @dev Devuelve los precios de referencia del Ether\n     *\n     * @return _priceMin Precio mnimo de referencia para el Ether\n     * @return _priceMax Precio mximo de referencia para el Ether\n     **/\n    function getEthValues()\n        public\n        view\n        returns(uint _priceMin, uint _priceMax)\n    {\n        _priceMin = priceEthMin;\n        _priceMax = priceEthMax;\n    }\n\n    /**\n     * @dev Devuelve otros valores utilizados en la gestin del orculo\n     *\n     * @return _blocksPeriod Frecuencia (en bloques) con que se revisarn los puntos a asignar por envase\n     * @return _blocksRequest Frecuencia mnima (en bloques) con la que se puede ejecutar una peticin del orculo\n     * @return _gasLimitLow Lmite de gas para peticiones con bajo consumo de gas\n     * @return _gasLimitMed Lmite de gas para peticiones con consumo medio de gas\n     * @return _gasLimitHigh Lmite de gas para peticiones con alto consumo de gas\n     **/\n    function getOtherValues()\n        public\n        view\n        returns(uint _blocksPeriod, uint _blocksRequest, uint _gasLimitLow, uint _gasLimitMed, uint _gasLimitHigh)\n    {\n        _blocksPeriod = blocksPeriod;\n        _blocksRequest = blocksRequest;\n        _gasLimitLow = gasLimitLow;\n        _gasLimitMed = gasLimitMed;\n        _gasLimitHigh = gasLimitHigh;\n    }\n\n    /**\n     * @dev Actualiza otros valores utilizados en la gestin del orculo\n     *\n     * @param _blocksPeriod Frecuencia (en bloques) con que se revisarn los puntos a asignar por envase\n     * @param _blocksRequest Frecuencia mnima (en bloques) con la que se puede ejecutar una peticin del orculo\n     * @param _gasLimitLow Lmite de gas para peticiones con bajo consumo de gas\n     * @param _gasLimitMed Lmite de gas para peticiones con consumo medio de gas\n     * @param _gasLimitHigh Lmite de gas para peticiones con alto consumo de gas\n     **/\n    function setOtherValues(uint _blocksPeriod, uint _blocksRequest, uint _gasLimitLow, uint _gasLimitMed, uint _gasLimitHigh)\n        public\n        onlyAdmin\n        whenNotPaused\n    {\n        setGasLimit(_gasLimitLow, _gasLimitMed, _gasLimitHigh);\n        setBlocksPeriod(_blocksPeriod);\n        setBlocksRequest(_blocksRequest);\n\n        emit otherValuesFullUpdate(address(this));\n    }\n\n    /**\n     * @dev Permite especificar el nmero de bloques que debern confirmarse antes de volver a actualizar la informacin de puntos.\n     *\n     * @param _blocksPeriod Nmero de bloques (Si _blocksPeriod = 0, se tomar el valor por defecto)\n     **/\n    function setBlocksPeriod(uint _blocksPeriod)\n        internal\n    {\n        if (_blocksPeriod == 0) {\n            blocksPeriod = BLOCKS_PERIOD;\n        } else {\n            blocksPeriod = _blocksPeriod;\n        }\n        emit blockPeriodUpdate(address(this), blocksPeriod);\n    }\n\n    /**\n     * @dev Permite especificar el nmero de bloques que debern confirmarse antes de volver a actualizar la informacin de puntos.\n     *\n     * @param _blocksRequest Nmero de bloques (Si _blocksPeriod = 0, se tomar el valor por defecto)\n     **/\n    function setBlocksRequest(uint _blocksRequest)\n        internal\n    {\n        if (_blocksRequest == 0) {\n            blocksRequest = BLOCKS_REQUEST_ALLOW;\n        } else {\n            blocksRequest = _blocksRequest;\n        }\n        emit blockRequestUpdate(address(this), blocksRequest);\n    }\n\n    /**\n     * @dev Actualiza las variables para el limite de gas utilizadas en el envo de queries al orculo\n     *\n     * Se establecen tres posibles niveles:\n     * @param _lowLimit Lmite bajo (Utilizado en DATE)\n     * @param _medLimit Lmite medio (Utilizado en RANDOM, USDEUR, OIL)\n     * @param _highLimit Lmite alto (Utilizado en ALUMINUM, ETHEUR, PET)\n     **/\n    function setGasLimit(uint _lowLimit, uint _medLimit, uint _highLimit)\n        internal\n    {\n        require(_lowLimit >= GAS_LIMIT_LOW, \"Gas limit (low) is too low\");\n        require(_lowLimit < _medLimit, \"Low limit must be lower than medium limit\");\n        require(_medLimit >= GAS_LIMIT_MED, \"Gas limit (med) is too low\");\n        require(_medLimit < _highLimit, \"Medium limit must be lower than high limit\");\n        require(_highLimit >= GAS_LIMIT_HIGH, \"Gas limit (high) is too low\");\n\n        gasLimitLow = _lowLimit;\n        gasLimitMed = _medLimit;\n        gasLimitHigh = _highLimit;\n\n        emit limitGasUpdate(address(this), gasLimitLow, gasLimitMed, gasLimitHigh);\n    }\n\n    /**\n     *\n     * @dev El clculo de los puntos se hace asumiendo 4 posiciones decimales para todos los campos con precios\n     *      Por tanto, para que un campo tenga el valor 1, se deber enviar 10000.\n     *\n     * @param _ind Indice del elemento dentro de packaging que se quiere modificar\n     * @param _pointsMin Nmero mnimo de puntos a entregar por cada envase\n     * @param _pointsMax Nmero mximo de puntos a entregar por cada envase\n     * @param _priceMin Valor mnimo del precio utilizado como referencia para el clculo de puntos\n     * @param _priceMax Valor mximo del precio utilizado como referencia para el clculo de puntos\n     **/\n    function setPointsPerPackaging(uint _ind, uint _pointsMin, uint _pointsMax, uint _priceMin, uint _priceMax)\n        public\n        onlyAdmin\n        whenNotPaused\n    {\n\t\trequire(_ind < PACKAGING_ITEMS, \"Index value is not valid\");\n\t\trequire(_pointsMin > 0, \"Minimun points value is not greater than zero\");\n\t\trequire(_pointsMax < MAX_VALUE_LIMIT, \"Maximun points value is not valid\");\n\t\trequire(_pointsMin <= _pointsMax, \"Values for points are not valid\");\n\t\trequire(_priceMin <= _priceMax, \"Value for prices are not valid\");\n\n        packaging[_ind].pointsPerPack = _pointsMin;\n        packaging[_ind].pointsMin = _pointsMin;\n        packaging[_ind].pointsMax = _pointsMax;\n        \n        if (_priceMin > 0) { packaging[_ind].priceMin = _priceMin; }\n        if (_priceMax > 0) { packaging[_ind].priceMax = _priceMax; }\n\n        emit packagingUpdate(address(this), _ind, _pointsMin, _pointsMin, _pointsMax, _priceMin, _priceMax);\n    }\n\n    /**\n     *\n     * @dev Unifica la actualizacin de los parmetros utilizados en el clculo automtico\n     *      de puntos por envase\n     *\n     * @param _pointsMin1 Nmero mnimo de puntos a entregar por cada envase\n     * @param _pointsMax1 Nmero mximo de puntos a entregar por cada envase\n     * @param _pointsMin2 Nmero mnimo de puntos a entregar por cada envase\n     * @param _pointsMax2 Nmero mximo de puntos a entregar por cada envase\n     * @param _pointsMin3 Nmero mnimo de puntos a entregar por cada envase\n     * @param _pointsMax3 Nmero mximo de puntos a entregar por cada envase\n     * @param _priceMinPet Valor mnimo del precio utilizado como referencia para el clculo de puntos\n     * @param _priceMaxPet Valor mximo del precio utilizado como referencia para el clculo de puntos\n     * @param _priceMinAlu Valor mnimo del precio utilizado como referencia para el clculo de puntos\n     * @param _priceMaxAlu Valor mximo del precio utilizado como referencia para el clculo de puntos\n     **/\n    function setPointsPackaging(\n        uint _pointsMin1, uint _pointsMax1,\n        uint _pointsMin2, uint _pointsMax2,\n        uint _pointsMin3, uint _pointsMax3,\n        uint _priceMinPet, uint _priceMaxPet,\n        uint _priceMinAlu, uint _priceMaxAlu\n    )\n        public\n        onlyAdmin\n        whenNotPaused\n    {\n        setPointsPerPackaging(PACK1, _pointsMin1, _pointsMax1, _priceMinPet, _priceMaxPet);\n        setPointsPerPackaging(PACK2, _pointsMin2, _pointsMax2, _priceMinPet, _priceMaxPet);\n        setPointsPerPackaging(PACK3, _pointsMin3, _pointsMax3, _priceMinAlu, _priceMaxAlu);\n\n        emit packagingFullUpdate(address(this));\n    }\n\n    /**\n     * @dev Actualiza los valores para el rango de precios del Ether utilizado como referencia para el clculo de puntos\n     *\n     * @param _priceEthMin Valor mnimo del precio del Ether utilizado como referencia para el clculo de puntos\n     * @param _priceEthMax Valor mximo del precio del Ether utilizado como referencia para el clculo de puntos\n     **/\n    function setRangeEthPrice(uint _priceEthMin, uint _priceEthMax)\n        public\n        onlyAdmin\n        whenNotPaused\n    {\n\t\trequire(_priceEthMin > ONE_CENT, \"Minimun Ether price must be at least 1 cent\");\n\t\trequire(_priceEthMin <= _priceEthMax, \"Value for prices are not valid\");\n\n        priceEthMin = _priceEthMin;\n        priceEthMax = _priceEthMax;\n\n        // Calcula el rango entre precio mnimo y precio mximo del Ether\n        rangeEthPrice = priceEthMax.sub(priceEthMin);\n\n        emit ethPriceUpdate(address(this), priceEthMin, priceEthMax);\n    }\n\n    /**\n     * @dev Comprueba mediante el nmero del bloque si se deben actualizar los precios\n     *      utilizados como referencia para el clculo de puntos entregados por envase\n     *\n     * @return indicador de actualizacin\n     **/\n\tfunction checkNextProcess()\n        public\n        view\n        returns(bool)\n    {\n        if (block.number > prevBlock + blocksPeriod && !paused()) {\n            return true;\n        } else {\n            return false;\n        }\n    }\n\n    /**\n     * @dev Recupera los valores necesarios para actualizar los puntos entregados por envase\n     **/\n\tfunction nextProcess()\n\t    public\n\t    whenNotPaused\n\t{\n\t\tif (checkNextProcess()) {\n\n\t\t\tprevBlock = block.number;\n\n\t\t\tnewEthEurRateRequest(1);\n\t\t\tnewPetPriceRequest();\n\t\t\tnewAluminumPriceRequest();\n\t\t}\n\t}\n\n    /**\n     * @dev Trata la respuesta a la query enviada al orculo\n     **/\n    function __callback(\n        bytes32 _queryId,\n        string memory _result\n    )\n        public\n    {\n        require(msg.sender == provable_cbAddress(), 'Sender is not valid');\n        require(queryInProgress[_queryId].inProgress == true, 'Query not found');\n\n        if (queryInProgress[_queryId].qType == QueryType.RANDOM) {\n\n            randomNumber = parseInt(_result);\n            emit generatedRandomNumber(address(this), randomNumber);\n\n        } else if (queryInProgress[_queryId].qType == QueryType.PET) {\n\n            petPrice = parseInt(_result, DECIMAL_POS);\n            emit generateNewValue(address(this), \"PET\", _result);\n\n        } else if (queryInProgress[_queryId].qType == QueryType.ALUMINUM) {\n\n            aluminumPrice = parseInt(_result, DECIMAL_POS);\n            emit generateNewValue(address(this), \"ALUMINUM\", _result);\n\n        } else if (queryInProgress[_queryId].qType == QueryType.ETHEUR) {\n\n            rateETHEUR = parseInt(_result, DECIMAL_POS);\n            emit generateNewValue(address(this), \"ETHEUR\", _result);\n\n        } else if (queryInProgress[_queryId].qType == QueryType.DATE) {\n\n            dateTime = _result;\n            emit currentDateTime(address(this), _result);\n\n        }\n\n        delete queryInProgress[_queryId];\n        countQueryInProgress = countQueryInProgress.sub(1);\n\n        // Si ya se tiene el precio del plstico PET y del tipo de cambio ETH/EUR se calculan los puntos para los envases PET\n        if (petPrice > 0 && rateETHEUR > 0) {\n\n            packaging[PACK1] = calculatePointsReward(petPrice, rateETHEUR, packaging[PACK1]);\n            packaging[PACK2] = calculatePointsReward(petPrice, rateETHEUR, packaging[PACK2]);\n\n            emit newPointsReward(address(this), \"PACK1\", packaging[PACK1].pointsPerPack);\n            emit newPointsReward(address(this), \"PACK2\", packaging[PACK2].pointsPerPack);\n\n            petPrice = 0;\n        }\n\n        // Si ya se tiene el precio del aluminio y del tipo de cambio ETH/EUR se calculan los puntos para las latas\n        if (aluminumPrice > 0 && rateETHEUR > 0) {\n\n            packaging[PACK3] = calculatePointsReward(aluminumPrice, rateETHEUR, packaging[PACK3]);\n\n            emit newPointsReward(address(this), \"PACK3\", packaging[PACK3].pointsPerPack);\n\n            aluminumPrice = 0;\n        }\n    }\n\n    /**\n     * @dev Actualiza la cantidad de puntos a entregar por envase segn los parmetros de entrada\n     *\n     * @param _price Precio utilizado como referencia\n     * @param _priceEth Precio del Ether\n     * @param _ppp Variable struct con los valores asociados a los puntos\n     *\n     * @return _ppp Devuelve la variable struct actualizada\n     **/\n    function calculatePointsReward(\n        uint _price,\n        uint _priceEth,\n        PointsPerPackaging memory _ppp\n    )\n        internal\n        returns (PointsPerPackaging memory)\n    {\n\t\trequire(_price > 0, \"Price can not be zero\");\n\t\trequire(_priceEth > 0, \"Ether price can not be zero\");\n\n        uint _rangePoints = 0;\n        uint _rangePrice = 0;\n        uint _diffPrice = 0;\n        uint _diffEthPrice = 0;\n        uint _pointsPerPrice = 0;\n        uint _pointsPerEth = 0;\n\n        // ** Calcula diferencia entre el precio mnimo y el precio actual de referencia\n        if (_ppp.priceMin < _price && _ppp.priceMin != 0) {\n            _diffPrice = _price.sub(_ppp.priceMin);\n            if (_ppp.priceMax < _price) {\n                _ppp.priceMax = _price;\n            }\n        } else {\n            _ppp.priceMin = _price;\n        }\n\n        // ** Calcula diferencia entre el precio mnimo y el precio actual del Ether\n        if (priceEthMin < _priceEth && priceEthMin != 0) {\n            _diffEthPrice = _priceEth.sub(priceEthMin);\n         } else {\n            priceEthMin = _priceEth;\n        }\n\n        if (priceEthMax < _priceEth) {\n            priceEthMax = _priceEth;\n        }\n        rangeEthPrice = priceEthMax.sub(priceEthMin);\n\n        // ** Calcula rango entre precio mnimo y precio mximo\n        if (_ppp.priceMin < _ppp.priceMax) {\n            _rangePrice = _ppp.priceMax.sub(_ppp.priceMin);\n        } else {\n            _ppp.priceMax = _ppp.priceMin;\n        }\n\n        // ** Calcula el rango entre el mnimo y mximo de puntos que se pueden asignar\n        if (_ppp.pointsMin < _ppp.pointsMax) {\n\n            _rangePoints = _ppp.pointsMax.sub(_ppp.pointsMin);\n\n\t\t\t// ** Calcula el reparto del rango de precios entre el rango de puntos (tramos) y\n\t\t\t// ** en base a ellos calcula el factor que indica el tramo del precio actual\n\t\t\t// ** Multiplica por DEC_POS_DIV para no perder los decimales\n\t\t\tif (_rangePrice > 0) {\n\t\t\t\t_pointsPerPrice = _diffPrice.mul(DEC_POS_DIV).div(_rangePrice.div(_rangePoints));\n\t\t\t}\n\n\t\t\tif (rangeEthPrice > 0){\n\t\t\t\t_pointsPerEth = _diffEthPrice.mul(DEC_POS_DIV).div(rangeEthPrice.div(_rangePoints));\n\t\t\t}\n\n        } else {\n            _ppp.pointsMax = _ppp.pointsMin;\n        }\n\n        // ** Puntos = Puntos mnimos + factor - factor Eth\n        _ppp.pointsPerPack = _ppp.pointsMin.mul(DEC_POS_DIV).add(_pointsPerPrice).sub(_pointsPerEth).div(DEC_POS_DIV);\n\n        // ** Se valida se mantenga en el rango de puntos establecidos\n        if (_ppp.pointsPerPack < _ppp.pointsMin) {\n            _ppp.pointsPerPack = _ppp.pointsMin;\n        } else if (_ppp.pointsPerPack > _ppp.pointsMax) {\n            _ppp.pointsPerPack = _ppp.pointsMax;\n        }\n\n        return (_ppp);\n    }\n\n    /**\n     * @dev Prepara query para solicitar nmero aleatorio\n     *\n     * @param _min Valor mnimo del rango\n     * @param _max Valor mximo del rango\n     */\n    function newRandomRequest(uint _min, uint _max)\n        public\n        payable\n        whenNotPaused\n        checkLastRequest(lastReqRANDOM)\n    {\n        require(_max > _min, \"Max value is not greater than Min value\");\n\n        string memory query = string(abi.encodePacked(\"https://www.random.org/integers/?num=1&min=\", uint2str(_min), \"&max=\", uint2str(_max), \"&col=1&base=10&format=plain&rnd=new\"));\n        queryURLRequestPayable(query, QueryType.RANDOM, gasLimitMed);\n        lastReqRANDOM = block.number;\n    }\n\n    /**\n     * @dev Prepara query para convertir un importe en Ethers a Euros\n     *\n     * @param _amount Importe a convertir (1 para obtener tipo de cambio)\n     */\n    function newEthEurRateRequest(uint _amount)\n        internal\n        checkLastRequest(lastReqETHEUR)\n    {\n        require(_amount > 0, \"Amount is not greater than zero\");\n\n        // ** Se construye la query con el importe (_amount) enviado como parmetro\n        // ** La apiKey ha sido cifrada con la clave pblica de Provable\n        string memory query = string(abi.encodePacked(\"[URL] ['json(https://pro-api.coinmarketcap.com/v1/tools/price-conversion?amount=\", uint2str(_amount),\"&symbol=ETH&convert=EUR&CMC_PRO_API_KEY=${[decrypt] BOHAYhxT0NfxZXzIaeKPXxscUr8RIKD/X4XaQaRzTHhQev26txxN7e3sKijA5kEecTRJyH24mVzHBKi5C/DgQeujq8JJ1kZxAgao0wweVQVhltOzlgv6w4FwF5Jxb8agph+BvdHzGpJPPXm9g6QBd1BNvFny}).data.quote.EUR.price']\"));\n\n        queryNestedRequest(query, QueryType.ETHEUR, gasLimitHigh);\n        lastReqETHEUR = block.number;\n    }\n\n    /**\n     * @dev Prepara query para obtener el precio del plstico PET\n     **/\n    function newPetPriceRequest()\n        internal\n        checkLastRequest(lastReqPET)\n    {\n        string memory query = string(abi.encodePacked(\"[URL] ['json(https://my-json-server.typicode.com/${[decrypt] BId5SdP7IJdwRuOSVDMiWAUu+yIgSahwVggfaOxduiOfFeZGcVEb9ITMP0C9MpPm+0lbzzD5KactQjmWSEcq4t3N9nCyqed0MEI0D90KAzLJEiT4M7OOgrfPW2xBPRXEBxoS}).0.price.EUR']\"));\n\n        queryNestedRequest(query, QueryType.PET, gasLimitHigh);\n        lastReqPET = block.number;\n    }\n\n    /**\n     * @dev Prepara query para obtener el precio del aluminio\n     **/\n    function newAluminumPriceRequest()\n        internal\n        checkLastRequest(lastReqALUMINUM)\n    {\n        // La apiKey ha sido cifrada con la clave pblica de Provable\n        string memory query = string(abi.encodePacked(\"[URL] ['json(https://www.quandl.com/api/v3/datasets/ODA/PALUM_USD?api_key=${[decrypt] BOXY3msLJlb2O00l9QGbgb+mvJ5sCXNN7muPX1hkIm+cp5LdaVCBmejjb0ctJWuABkjwwlRHeQYsbSg3dmzpznbOquGoXFof0XAL3df8QU/oZzKLp+kFOZvNBXqgxMlh4n+wr9Q=}&rows=1).dataset.data.0.1']\"));\n\n        queryNestedRequest(query, QueryType.ALUMINUM, gasLimitHigh);\n        lastReqALUMINUM = block.number;\n    }\n\n    /**\n     * @dev Prepara query para obtener la fecha y hora actual\n     *      \n     **/\n    function getCurrentDateTime()\n        public\n        payable\n        whenNotPaused\n        checkLastRequest(lastReqDATE)\n    {\n        string memory query = \"json(http://worldclockapi.com/api/json/utc/now).currentDateTime\";\n\n        queryURLRequestPayable(query, QueryType.DATE, gasLimitLow);\n        lastReqDATE = block.number;\n    }\n\n    /**\n     *\n     * @dev Envo de query al orculo con una URL simple. El sender paga por la ejecucin de la query.\n     *      Se devuelve al sender el importe no utilizado.\n     *\n     * @param _query Query a enviar\n     * @param _qType Tipo de query que se enva (para control en callback)\n     * @param _gasLimit Lmite de gas\n     */\n    function queryURLRequestPayable(string memory _query, QueryType _qType, uint _gasLimit)\n        internal\n    {\n        require(msg.value > 0, \"msg.value is zero\");\n        require(bytes(_query).length > 0, \"Query is empty\");\n        require(_gasLimit > 0, \"Gas limit is zero\");\n\n        bytes32 _queryId;\n        uint _queryPrice;\n\n        _queryPrice = provable_getPrice(\"URL\", _gasLimit);\n\n        // ** Comprobamos si el contrato tiene saldo suficiente para el pago de la llamada al orculo\n        if (msg.value < _queryPrice) {\n\n            emit LogNewProvableQuery(address(this), \"Provable query was NOT sent, please add some ETH to cover for the query fee\");\n            revert(\"msg.value is not enough to cover for the query fee\");\n\n        } else {\n\n            _queryId = provable_query(\"URL\", _query, _gasLimit);\n            includeQueryInProgress(_queryId, _qType);\n \n            msg.sender.transfer(msg.value - _queryPrice);\n\n            emit LogNewProvableQuery(address(this), \"Provable URL query was sent, standing by for the answer...\");\n        }\n    }\n\n    /**\n     * @dev Envo de query al orculo con una URL compuesta (Nested - con parmetros o datos cifrados)\n     *\n     * @param _query Query a enviar\n     * @param _qType Tipo de query que se enva (para control en callback)\n     * @param _gasLimit Lmite de gas\n     */\n    function queryNestedRequest(string memory _query, QueryType _qType, uint _gasLimit)\n        internal\n    {\n        require(bytes(_query).length > 0, \"Query is empty\");\n        require(_gasLimit > 0, \"Gas limit is zero\");\n\n        bytes32 _queryId;\n\n        // ** Comprobamos si el contrato tiene saldo suficiente para el pago de la llamada al orculo\n        if (provable_getPrice(\"NESTED\", _gasLimit) > address(this).balance) {\n\n            emit LogNewProvableQuery(address(this), \"Provable query was NOT sent, please add some ETH to cover for the query fee\");\n            revert(\"ETH balance is not enough to cover for the query fee\");\n\n        } else {\n\n            // Enviamos la query a Provable y guardamos el Id para tratarlo en el callback\n            _queryId = provable_query(\"nested\", _query, _gasLimit);\n            includeQueryInProgress(_queryId, _qType);\n\n            emit LogNewProvableQuery(address(this), \"Provable NESTED query was sent, standing by for the answer...\");\n        }\n    }\n\n    /**\n     * @dev Guarda el identificado de una query (peticin) enviada al orculo\n     *\n     * @param _queryId Identificador\n     * @param _qType Tipo de query enviada\n     **/\n    function includeQueryInProgress(bytes32  _queryId, QueryType _qType)\n        internal\n    {\n        queryInProgress[_queryId].inProgress = true;\n        queryInProgress[_queryId].qType = _qType;\n        countQueryInProgress = countQueryInProgress.add(1);\n    }\n    \n\n    /**\n     * @dev Inicializa con el valor 1 los puntos que se asignarn por defecto a los distintos tipos de envases\n     **/\n    function initializePointsArray()\n        internal\n    {\n        for (uint _ind = 0; _ind < PACKAGING_ITEMS; _ind++) {\n            packaging[_ind].pointsPerPack = 1;\n            packaging[_ind].pointsMin = 1;\n            packaging[_ind].pointsMax = 1;\n        }\n    }\n\n    /**\n      * @dev Funcin utilizada para transferir fondos (Ethers) al contrato\n      *\n      * @param _message  Mensaje que se desea enviar\n      * @return _message Devuelve el mismo mensaje de entrada\n      */\n    function setFunds(string memory _message)\n        public\n        payable\n        returns(string memory)\n    {\n        require (msg.value > 0, \"value is not greater than zero\");\n\n        return _message;\n    }\n\n    /**\n      * @dev Funcin para transferir el saldo en Ethers del contrato al owner\n      *\n      * @param _amount Importe a transferir\n      */\n    function transfer(uint _amount)\n        public\n        onlyAdmin\n        whenNotPaused\n    {\n        require (getContractBalance() >= _amount, \"not enough balance\");\n\n        owner.transfer(_amount);\n    }\n\n    /**\n      * @dev Funcin para consultar el saldo en Ethers del contrato (necesario para el pago de gas para el Orculo)\n      *\n      * @return Saldo tokens de la cuenta con que se est trabajando\n      */\n    function getContractBalance()\n        public\n        view\n        returns(uint)\n    {\n        return address(this).balance;\n    }\n    \n    /**\n      * @dev Fallback function - Called if other functions don't match call or\n      * sent ether without data\n      * Typically, called when invalid data is sent\n      * Added so ether sent to this contract is reverted if the contract fails\n      * otherwise, the sender's money is transferred to contract\n      */\n    function ()\n        external\n        payable\n    {\n        revert(\"Fallback function\");\n    }\n}",
  "sourcePath": "/home/lealp22/TFM/DappPrincipal/truffle/contracts/CustomOracle.sol",
  "compiler": {
    "name": "solc",
    "version": "0.5.1+commit.c8a2cb62.Emscripten.clang"
  },
  "schemaVersion": "3.0.11",
  "updatedAt": "2020-01-16T17:31:05.198Z",
  "devdoc": {
    "details": "CustomOracle *",
    "methods": {
      "__callback(bytes32,string)": {
        "details": "Trata la respuesta a la query enviada al orculo*"
      },
      "calculatePoints(uint256,uint256,uint256)": {
        "details": "Calcula el total de puntos que corresponden segn la cantidad de envases entregados",
        "params": {
          "_pack1Qty": "Cantidad envases pack1",
          "_pack2Qty": "Cantidad envases pack2",
          "_pack3Qty": "Cantidad envases pack3"
        },
        "return": "_totalPoints Total de puntos*"
      },
      "checkNextProcess()": {
        "details": "Comprueba mediante el nmero del bloque si se deben actualizar los precios     utilizados como referencia para el clculo de puntos entregados por envase",
        "return": "indicador de actualizacin*"
      },
      "constructor": {
        "details": "Constructor     Iniciailiza los parmetros con los valores por defecto*"
      },
      "getContractBalance()": {
        "details": "Funcin para consultar el saldo en Ethers del contrato (necesario para el pago de gas para el Orculo)",
        "return": "Saldo tokens de la cuenta con que se est trabajando"
      },
      "getCurrentDateTime()": {
        "details": "Prepara query para obtener la fecha y hora actual     *"
      },
      "getEthValues()": {
        "details": "Devuelve los precios de referencia del Ether",
        "return": "_priceMin Precio mnimo de referencia para el Ether_priceMax Precio mximo de referencia para el Ether*"
      },
      "getOtherValues()": {
        "details": "Devuelve otros valores utilizados en la gestin del orculo",
        "return": "_blocksPeriod Frecuencia (en bloques) con que se revisarn los puntos a asignar por envase_blocksRequest Frecuencia mnima (en bloques) con la que se puede ejecutar una peticin del orculo_gasLimitLow Lmite de gas para peticiones con bajo consumo de gas_gasLimitMed Lmite de gas para peticiones con consumo medio de gas_gasLimitHigh Lmite de gas para peticiones con alto consumo de gas*"
      },
      "getPointsPerPack()": {
        "details": "Devuelve el nmero de puntos que corresponde a cada uno de los envases",
        "return": "_pointsPack1 Puntos por pack1_pointsPack2 Puntos por pack2_pointsPack3 Puntos por pack3*"
      },
      "getValuesPerPack(uint256)": {
        "details": "Devuelve los valores utilizados en el clculo de puntos para un tipo de envase",
        "params": {
          "_ind": "Indice array de datos"
        },
        "return": "_pointsPerPack Puntos por envase_pointsMin Puntos mnimos permitidos_pointsMax Puntos mximo permitidos_priceMin Precio mnimo de referencia_priceMax Precio mximo de referencia*"
      },
      "newRandomRequest(uint256,uint256)": {
        "details": "Prepara query para solicitar nmero aleatorio",
        "params": {
          "_max": "Valor mximo del rango",
          "_min": "Valor mnimo del rango"
        }
      },
      "nextProcess()": {
        "details": "Recupera los valores necesarios para actualizar los puntos entregados por envase*"
      },
      "pause()": {
        "details": "Called by a pauser to pause, triggers stopped state."
      },
      "paused()": {
        "details": "Returns true if the contract is paused, and false otherwise."
      },
      "setFunds(string)": {
        "details": "Funcin utilizada para transferir fondos (Ethers) al contrato",
        "params": {
          "_message": "Mensaje que se desea enviar"
        },
        "return": "_message Devuelve el mismo mensaje de entrada"
      },
      "setOtherValues(uint256,uint256,uint256,uint256,uint256)": {
        "details": "Actualiza otros valores utilizados en la gestin del orculo",
        "params": {
          "_blocksPeriod": "Frecuencia (en bloques) con que se revisarn los puntos a asignar por envase",
          "_blocksRequest": "Frecuencia mnima (en bloques) con la que se puede ejecutar una peticin del orculo",
          "_gasLimitHigh": "Lmite de gas para peticiones con alto consumo de gas*",
          "_gasLimitLow": "Lmite de gas para peticiones con bajo consumo de gas",
          "_gasLimitMed": "Lmite de gas para peticiones con consumo medio de gas"
        }
      },
      "setPointsPackaging(uint256,uint256,uint256,uint256,uint256,uint256,uint256,uint256,uint256,uint256)": {
        "details": "Unifica la actualizacin de los parmetros utilizados en el clculo automtico     de puntos por envase",
        "params": {
          "_pointsMax1": "Nmero mximo de puntos a entregar por cada envase",
          "_pointsMax2": "Nmero mximo de puntos a entregar por cada envase",
          "_pointsMax3": "Nmero mximo de puntos a entregar por cada envase",
          "_pointsMin1": "Nmero mnimo de puntos a entregar por cada envase",
          "_pointsMin2": "Nmero mnimo de puntos a entregar por cada envase",
          "_pointsMin3": "Nmero mnimo de puntos a entregar por cada envase",
          "_priceMaxAlu": "Valor mximo del precio utilizado como referencia para el clculo de puntos*",
          "_priceMaxPet": "Valor mximo del precio utilizado como referencia para el clculo de puntos",
          "_priceMinAlu": "Valor mnimo del precio utilizado como referencia para el clculo de puntos",
          "_priceMinPet": "Valor mnimo del precio utilizado como referencia para el clculo de puntos"
        }
      },
      "setPointsPerPackaging(uint256,uint256,uint256,uint256,uint256)": {
        "details": "El clculo de los puntos se hace asumiendo 4 posiciones decimales para todos los campos con precios     Por tanto, para que un campo tenga el valor 1, se deber enviar 10000.",
        "params": {
          "_ind": "Indice del elemento dentro de packaging que se quiere modificar",
          "_pointsMax": "Nmero mximo de puntos a entregar por cada envase",
          "_pointsMin": "Nmero mnimo de puntos a entregar por cada envase",
          "_priceMax": "Valor mximo del precio utilizado como referencia para el clculo de puntos*",
          "_priceMin": "Valor mnimo del precio utilizado como referencia para el clculo de puntos"
        }
      },
      "setRangeEthPrice(uint256,uint256)": {
        "details": "Actualiza los valores para el rango de precios del Ether utilizado como referencia para el clculo de puntos",
        "params": {
          "_priceEthMax": "Valor mximo del precio del Ether utilizado como referencia para el clculo de puntos*",
          "_priceEthMin": "Valor mnimo del precio del Ether utilizado como referencia para el clculo de puntos"
        }
      },
      "transfer(uint256)": {
        "details": "Funcin para transferir el saldo en Ethers del contrato al owner",
        "params": {
          "_amount": "Importe a transferir"
        }
      },
      "unpause()": {
        "details": "Called by a pauser to unpause, returns to normal state."
      }
    }
  },
  "userdoc": {
    "methods": {}
  }
}