{
  "contractName": "Main",
  "abi": [
    {
      "constant": false,
      "inputs": [
        {
          "name": "account",
          "type": "address"
        }
      ],
      "name": "addTracer",
      "outputs": [],
      "payable": false,
      "stateMutability": "nonpayable",
      "type": "function"
    },
    {
      "constant": true,
      "inputs": [
        {
          "name": "account",
          "type": "address"
        }
      ],
      "name": "isTracer",
      "outputs": [
        {
          "name": "",
          "type": "bool"
        }
      ],
      "payable": false,
      "stateMutability": "view",
      "type": "function"
    },
    {
      "constant": true,
      "inputs": [
        {
          "name": "account",
          "type": "address"
        }
      ],
      "name": "isAdmin",
      "outputs": [
        {
          "name": "",
          "type": "bool"
        }
      ],
      "payable": false,
      "stateMutability": "view",
      "type": "function"
    },
    {
      "constant": false,
      "inputs": [],
      "name": "unpause",
      "outputs": [],
      "payable": false,
      "stateMutability": "nonpayable",
      "type": "function"
    },
    {
      "constant": false,
      "inputs": [],
      "name": "renounceTracer",
      "outputs": [],
      "payable": false,
      "stateMutability": "nonpayable",
      "type": "function"
    },
    {
      "constant": true,
      "inputs": [],
      "name": "paused",
      "outputs": [
        {
          "name": "",
          "type": "bool"
        }
      ],
      "payable": false,
      "stateMutability": "view",
      "type": "function"
    },
    {
      "constant": false,
      "inputs": [
        {
          "name": "account",
          "type": "address"
        }
      ],
      "name": "addAdmin",
      "outputs": [],
      "payable": false,
      "stateMutability": "nonpayable",
      "type": "function"
    },
    {
      "constant": false,
      "inputs": [],
      "name": "pause",
      "outputs": [],
      "payable": false,
      "stateMutability": "nonpayable",
      "type": "function"
    },
    {
      "constant": false,
      "inputs": [],
      "name": "renounceAdmin",
      "outputs": [],
      "payable": false,
      "stateMutability": "nonpayable",
      "type": "function"
    },
    {
      "constant": true,
      "inputs": [
        {
          "name": "",
          "type": "bytes32"
        }
      ],
      "name": "listQR_Bags",
      "outputs": [
        {
          "name": "qr",
          "type": "bytes32"
        },
        {
          "name": "associated",
          "type": "address"
        },
        {
          "name": "hashAssociatedName",
          "type": "bytes32"
        },
        {
          "name": "nameRef",
          "type": "bytes32"
        },
        {
          "name": "item_1",
          "type": "uint256"
        },
        {
          "name": "item_2",
          "type": "uint256"
        },
        {
          "name": "item_3",
          "type": "uint256"
        },
        {
          "name": "status",
          "type": "string"
        },
        {
          "name": "date",
          "type": "uint256"
        }
      ],
      "payable": false,
      "stateMutability": "view",
      "type": "function"
    },
    {
      "constant": true,
      "inputs": [
        {
          "name": "",
          "type": "uint256"
        }
      ],
      "name": "_QRBagList",
      "outputs": [
        {
          "name": "",
          "type": "bytes32"
        }
      ],
      "payable": false,
      "stateMutability": "view",
      "type": "function"
    },
    {
      "inputs": [
        {
          "name": "customOracle_address",
          "type": "address"
        }
      ],
      "payable": false,
      "stateMutability": "nonpayable",
      "type": "constructor"
    },
    {
      "anonymous": false,
      "inputs": [
        {
          "indexed": true,
          "name": "account",
          "type": "address"
        }
      ],
      "name": "TracerAdded",
      "type": "event"
    },
    {
      "anonymous": false,
      "inputs": [
        {
          "indexed": true,
          "name": "account",
          "type": "address"
        }
      ],
      "name": "TracerRemoved",
      "type": "event"
    },
    {
      "anonymous": false,
      "inputs": [
        {
          "indexed": false,
          "name": "account",
          "type": "address"
        }
      ],
      "name": "Paused",
      "type": "event"
    },
    {
      "anonymous": false,
      "inputs": [
        {
          "indexed": false,
          "name": "account",
          "type": "address"
        }
      ],
      "name": "Unpaused",
      "type": "event"
    },
    {
      "anonymous": false,
      "inputs": [
        {
          "indexed": true,
          "name": "account",
          "type": "address"
        }
      ],
      "name": "AdminAdded",
      "type": "event"
    },
    {
      "anonymous": false,
      "inputs": [
        {
          "indexed": true,
          "name": "account",
          "type": "address"
        }
      ],
      "name": "AdminRemoved",
      "type": "event"
    },
    {
      "constant": false,
      "inputs": [
        {
          "name": "hashName",
          "type": "bytes32"
        },
        {
          "name": "_associated_address",
          "type": "address"
        }
      ],
      "name": "addAssociated",
      "outputs": [],
      "payable": false,
      "stateMutability": "nonpayable",
      "type": "function"
    },
    {
      "constant": true,
      "inputs": [],
      "name": "getAssociatedList",
      "outputs": [
        {
          "name": "",
          "type": "bytes32[]"
        }
      ],
      "payable": false,
      "stateMutability": "view",
      "type": "function"
    },
    {
      "constant": true,
      "inputs": [
        {
          "name": "hashName",
          "type": "bytes32"
        }
      ],
      "name": "getAssociated",
      "outputs": [
        {
          "name": "contract_address",
          "type": "address"
        },
        {
          "name": "enable",
          "type": "bool"
        }
      ],
      "payable": false,
      "stateMutability": "view",
      "type": "function"
    },
    {
      "constant": true,
      "inputs": [
        {
          "name": "hashName",
          "type": "bytes32"
        },
        {
          "name": "associated_contract_address",
          "type": "address"
        }
      ],
      "name": "isAssociated",
      "outputs": [
        {
          "name": "",
          "type": "bool"
        }
      ],
      "payable": false,
      "stateMutability": "view",
      "type": "function"
    },
    {
      "constant": false,
      "inputs": [
        {
          "name": "hashName",
          "type": "bytes32"
        }
      ],
      "name": "disableAssociated",
      "outputs": [
        {
          "name": "",
          "type": "bool"
        }
      ],
      "payable": false,
      "stateMutability": "nonpayable",
      "type": "function"
    },
    {
      "constant": false,
      "inputs": [
        {
          "name": "hashName",
          "type": "bytes32"
        }
      ],
      "name": "enableAssociated",
      "outputs": [
        {
          "name": "",
          "type": "bool"
        }
      ],
      "payable": false,
      "stateMutability": "nonpayable",
      "type": "function"
    },
    {
      "constant": true,
      "inputs": [
        {
          "name": "hashName",
          "type": "bytes32"
        }
      ],
      "name": "balanceOf",
      "outputs": [
        {
          "name": "",
          "type": "uint256"
        }
      ],
      "payable": false,
      "stateMutability": "view",
      "type": "function"
    },
    {
      "constant": false,
      "inputs": [
        {
          "name": "hashAssociatedName",
          "type": "bytes32"
        },
        {
          "name": "hashName",
          "type": "bytes32"
        },
        {
          "name": "generatedPoints",
          "type": "uint256"
        },
        {
          "name": "hashedSecret",
          "type": "bytes32"
        }
      ],
      "name": "updateUserBalance",
      "outputs": [
        {
          "name": "",
          "type": "bool"
        }
      ],
      "payable": false,
      "stateMutability": "nonpayable",
      "type": "function"
    },
    {
      "constant": true,
      "inputs": [
        {
          "name": "_pack1",
          "type": "uint256"
        },
        {
          "name": "_pack2",
          "type": "uint256"
        },
        {
          "name": "_pack3",
          "type": "uint256"
        }
      ],
      "name": "calculatePoints",
      "outputs": [
        {
          "name": "",
          "type": "uint256"
        }
      ],
      "payable": false,
      "stateMutability": "view",
      "type": "function"
    },
    {
      "constant": false,
      "inputs": [
        {
          "name": "hashAssociatedName",
          "type": "bytes32"
        },
        {
          "name": "user_hashName",
          "type": "bytes32"
        },
        {
          "name": "amount",
          "type": "uint256"
        },
        {
          "name": "hashedSecret",
          "type": "bytes32"
        }
      ],
      "name": "exchangePoints",
      "outputs": [
        {
          "name": "",
          "type": "bool"
        }
      ],
      "payable": false,
      "stateMutability": "nonpayable",
      "type": "function"
    },
    {
      "constant": false,
      "inputs": [
        {
          "name": "_hashAssociatedName",
          "type": "bytes32"
        },
        {
          "name": "_QR",
          "type": "bytes32"
        },
        {
          "name": "_associated",
          "type": "address"
        },
        {
          "name": "_nameRef",
          "type": "bytes32"
        },
        {
          "name": "_pack1",
          "type": "uint256"
        },
        {
          "name": "_pack2",
          "type": "uint256"
        },
        {
          "name": "_pack3",
          "type": "uint256"
        }
      ],
      "name": "addRecicledBag",
      "outputs": [
        {
          "name": "",
          "type": "bool"
        }
      ],
      "payable": false,
      "stateMutability": "nonpayable",
      "type": "function"
    },
    {
      "constant": true,
      "inputs": [],
      "name": "getQRBagList",
      "outputs": [
        {
          "name": "",
          "type": "bytes32[]"
        }
      ],
      "payable": false,
      "stateMutability": "view",
      "type": "function"
    },
    {
      "constant": false,
      "inputs": [
        {
          "name": "_QR",
          "type": "bytes32"
        }
      ],
      "name": "updatedQRBagTruck",
      "outputs": [],
      "payable": false,
      "stateMutability": "nonpayable",
      "type": "function"
    },
    {
      "constant": false,
      "inputs": [
        {
          "name": "_QR",
          "type": "bytes32"
        }
      ],
      "name": "updatedQRBagFacfory",
      "outputs": [],
      "payable": false,
      "stateMutability": "nonpayable",
      "type": "function"
    }
  ],
  "bytecode": "0x60806040523480156200001157600080fd5b5060405160208062004780833981018060405260208110156200003357600080fd5b50516200005b6200004c640100000000620000b1810204565b640100000000620000b5810204565b6001805460ff191690556200008b6200007c640100000000620000b1810204565b64010000000062000107810204565b60038054600160a060020a031916600160a060020a03929092169190911790556200017e565b3390565b620000d060008264010000000062001fef6200015982021704565b604051600160a060020a038216907f44d6d25963f097ad14f29f06854a01f575648a1ef82f30e562ccd3889717e33990600090a250565b6200012260028264010000000062001fef6200015982021704565b604051600160a060020a038216907fee42164429e67869687bd6bb89c4b935a8c14abe726ab3d88e5a2246f7c395ca90600090a250565b600160a060020a0316600090815260209190915260409020805460ff19166001179055565b6145f2806200018e6000396000f3fe6080604052600436106200015c577c0100000000000000000000000000000000000000000000000000000000600035046306f4fcc9811462000161578063071ab82114620001a05780630d16fd6014620001d75780631812df3614620002055780631b03da67146200023357806324d7806c146200027e5780633f4ba83a14620002b557806344997ac814620002cd5780634b8302f7146200032857806352761ff0146200035657806352f762f6146200036e5780635c975abb14620003d8578063605070e614620003f05780636c7f1542146200041e57806370480275146200045e57806374df0b6014620004955780638456cb5914620004d55780638bad0c0a14620004ed5780638d154dde1462000505578063b058f1cb1462000556578063c6465afa1462000593578063e055aeeb14620005ab578063e3bd9f5314620005e5578063ee0c96c514620006d8578063f8c62cb51462000718575b600080fd5b3480156200016e57600080fd5b506200019e600480360360408110156200018757600080fd5b5080359060200135600160a060020a031662000746565b005b348015620001ad57600080fd5b506200019e60048036036020811015620001c657600080fd5b5035600160a060020a0316620009cd565b348015620001e457600080fd5b506200019e60048036036020811015620001fd57600080fd5b503562000a6c565b3480156200021257600080fd5b506200019e600480360360208110156200022b57600080fd5b503562000bc4565b3480156200024057600080fd5b506200026a600480360360208110156200025957600080fd5b5035600160a060020a031662000d18565b604080519115158252519081900360200190f35b3480156200028b57600080fd5b506200026a60048036036020811015620002a457600080fd5b5035600160a060020a031662000d33565b348015620002c257600080fd5b506200019e62000d47565b348015620002da57600080fd5b506200026a600480360360e0811015620002f357600080fd5b50803590602081013590600160a060020a036040820135169060608101359060808101359060a08101359060c0013562000e5f565b3480156200033557600080fd5b506200026a600480360360208110156200034e57600080fd5b503562001082565b3480156200036357600080fd5b506200019e62001258565b3480156200037b57600080fd5b50620003866200126e565b60408051602080825283518183015283519192839290830191858101910280838360005b83811015620003c4578181015183820152602001620003aa565b505050509050019250505060405180910390f35b348015620003e557600080fd5b506200026a620012c9565b348015620003fd57600080fd5b506200026a600480360360208110156200041657600080fd5b5035620012d2565b3480156200042b57600080fd5b506200044c600480360360208110156200044457600080fd5b50356200148b565b60408051918252519081900360200190f35b3480156200046b57600080fd5b506200019e600480360360208110156200048457600080fd5b5035600160a060020a0316620014a0565b348015620004a257600080fd5b506200026a60048036036080811015620004bb57600080fd5b508035906020810135906040810135906060013562001514565b348015620004e257600080fd5b506200019e620016dc565b348015620004fa57600080fd5b506200019e620017c7565b3480156200051257600080fd5b5062000533600480360360208110156200052b57600080fd5b5035620017db565b60408051600160a060020a03909316835290151560208301528051918290030190f35b3480156200056357600080fd5b506200026a600480360360408110156200057c57600080fd5b5080359060200135600160a060020a03166200180e565b348015620005a057600080fd5b506200038662001832565b348015620005b857600080fd5b506200044c60048036036060811015620005d157600080fd5b50803590602081013590604001356200188a565b348015620005f257600080fd5b5062000613600480360360208110156200060b57600080fd5b503562001934565b604051808a815260200189600160a060020a0316600160a060020a0316815260200188815260200187815260200186815260200185815260200184815260200180602001838152602001828103825284818151815260200191508051906020019080838360005b83811015620006945781810151838201526020016200067a565b50505050905090810190601f168015620006c25780820380516001836020036101000a031916815260200191505b509a505050505050505050505060405180910390f35b348015620006e557600080fd5b506200026a60048036036080811015620006fe57600080fd5b508035906020810135906040810135906060013562001a19565b3480156200072557600080fd5b506200044c600480360360208110156200073e57600080fd5b503562001bf4565b6200075a6200075462001c14565b62000d33565b1515620007b5576040805160e560020a62461bcd02815260206004820152602e6024820152600080516020620045878339815191526044820152600080516020620045a7833981519152606482015290519081900360840190fd5b60015460ff161562000800576040805160e560020a62461bcd028152602060048201526010602482015260008051602062004567833981519152604482015290519081900360640190fd5b81600081836200080f62002173565b918252600160a060020a03166020820152604080519182900301906000f08015801562000840573d6000803e3d6000fd5b5060008581526006602052604080822081517f80d22fc6000000000000000000000000000000000000000000000000000000008152336004820152915193945092600160a060020a038516926380d22fc6926024808201939182900301818387803b158015620008af57600080fd5b505af1158015620008c4573d6000803e3d6000fd5b50505050600081600101541115151562000928576040805160e560020a62461bcd02815260206004820152601960248201527f4173736f63696174656420616c72656164792065786973742100000000000000604482015290519081900360640190fd5b600780546001808201835560008390527fa66cc928b5edb82af9bd49922954155ab7b0942694bea4ce44661d9a8736c6889091018790559054908201559384556003840180546002909501805473ffffffffffffffffffffffffffffffffffffffff19908116600160a060020a039485161790915560a060020a9516939091169290921774ff0000000000000000000000000000000000000000191692909217905550565b620009e1620009db62001c14565b62000d18565b151562000a5e576040805160e560020a62461bcd02815260206004820152603060248201527f547261636572526f6c653a2063616c6c657220646f6573206e6f74206861766560448201527f207468652054726163657220726f6c6500000000000000000000000000000000606482015290519081900360840190fd5b62000a698162001c18565b50565b62000a7a620009db62001c14565b151562000af7576040805160e560020a62461bcd02815260206004820152603060248201527f547261636572526f6c653a2063616c6c657220646f6573206e6f74206861766560448201527f207468652054726163657220726f6c6500000000000000000000000000000000606482015290519081900360840190fd5b600081815260086020526040902054151562000b5d576040805160e560020a62461bcd02815260206004820152600c60248201527f5152206572726f6e656f21210000000000000000000000000000000000000000604482015290519081900360640190fd5b6000818152600860208181526040808420428185015581518083019092528382527f494e5f545255434b00000000000000000000000000000000000000000000000082840190815294869052929091525162000bc0926007909201919062002184565b5050565b62000bd2620009db62001c14565b151562000c4f576040805160e560020a62461bcd02815260206004820152603060248201527f547261636572526f6c653a2063616c6c657220646f6573206e6f74206861766560448201527f207468652054726163657220726f6c6500000000000000000000000000000000606482015290519081900360840190fd5b600081815260086020526040902054151562000cb5576040805160e560020a62461bcd02815260206004820152600c60248201527f5152206572726f6e656f21210000000000000000000000000000000000000000604482015290519081900360640190fd5b6000818152600860208181526040808420428185015581518083019092528382527f52454359434c454400000000000000000000000000000000000000000000000082840190815294869052929091525162000bc0926007909201919062002184565b600062000d2d60028363ffffffff62001c6216565b92915050565b600062000d2d818363ffffffff62001c6216565b62000d556200075462001c14565b151562000db0576040805160e560020a62461bcd02815260206004820152602e6024820152600080516020620045878339815191526044820152600080516020620045a7833981519152606482015290519081900360840190fd5b60015460ff16151562000e0d576040805160e560020a62461bcd02815260206004820152601460248201527f5061757361626c653a206e6f7420706175736564000000000000000000000000604482015290519081900360640190fd5b6001805460ff191690557f5db9ee0a495bf2e6ff9c91a7834c1ba4fdd244a5e8aa4e537bd38aeae4b073aa62000e4262001c14565b60408051600160a060020a039092168252519081900360200190a1565b60015460009060ff161562000ead576040805160e560020a62461bcd028152602060048201526010602482015260008051602062004567833981519152604482015290519081900360640190fd5b6000878152600860205260409020541562000f12576040805160e560020a62461bcd02815260206004820152601160248201527f5152207961207574696c697a61646f2121000000000000000000000000000000604482015290519081900360640190fd5b60606040805190810160405280600681526020017f53544f524544000000000000000000000000000000000000000000000000000081525090506101206040519081016040528089815260200188600160a060020a031681526020018a815260200187815260200186815260200185815260200184815260200182815260200142815250600860008a81526020019081526020016000206000820151816000015560208201518160010160006101000a815481600160a060020a030219169083600160a060020a0316021790555060408201518160020155606082015181600301556080820151816004015560a0820151816005015560c0820151816006015560e08201518160070190805190602001906200103092919062002184565b506101009190910151600890910155505060098054600181810183556000929092527f6e1540171b6c0c960b71a7020d9f60077f6af931a8bbf590da0223dacf75c7af01879055979650505050505050565b6000620010926200075462001c14565b1515620010ed576040805160e560020a62461bcd02815260206004820152602e6024820152600080516020620045878339815191526044820152600080516020620045a7833981519152606482015290519081900360840190fd5b60015460ff161562001138576040805160e560020a62461bcd028152602060048201526010602482015260008051602062004567833981519152604482015290519081900360640190fd5b60008281526006602052604090206003015460a060020a900460ff161515620011ab576040805160e560020a62461bcd02815260206004820152601f60248201527f4173736f63696174656420697320616c72656164792064697361626c65642e00604482015290519081900360640190fd5b60008281526006602052604080822060038101805474ff0000000000000000000000000000000000000000191690556002015481517f8456cb590000000000000000000000000000000000000000000000000000000081529151600160a060020a03909116928392638456cb59926004808301939282900301818387803b1580156200123657600080fd5b505af11580156200124b573d6000803e3d6000fd5b5060019695505050505050565b6200126c6200126662001c14565b62001d0b565b565b60606007805480602002602001604051908101604052809291908181526020018280548015620012be57602002820191906000526020600020905b815481526020019060010190808311620012a9575b505050505090505b90565b60015460ff1690565b6000620012e26200075462001c14565b15156200133d576040805160e560020a62461bcd02815260206004820152602e6024820152600080516020620045878339815191526044820152600080516020620045a7833981519152606482015290519081900360840190fd5b60015460ff161562001388576040805160e560020a62461bcd028152602060048201526010602482015260008051602062004567833981519152604482015290519081900360640190fd5b60008281526006602052604090206003015460a060020a900460ff1615620013fa576040805160e560020a62461bcd02815260206004820152601e60248201527f4173736f63696174656420697320616c726561647920656e61626c65642e0000604482015290519081900360640190fd5b60008281526006602052604080822060038101805474ff0000000000000000000000000000000000000000191660a060020a1790556002015481517f3f4ba83a0000000000000000000000000000000000000000000000000000000081529151600160a060020a03909116928392633f4ba83a926004808301939282900301818387803b1580156200123657600080fd5b60009081526004602052604090206003015490565b620014ae6200075462001c14565b151562001509576040805160e560020a62461bcd02815260206004820152602e6024820152600080516020620045878339815191526044820152600080516020620045a7833981519152606482015290519081900360840190fd5b62000a698162001d55565b60015460009060ff161562001562576040805160e560020a62461bcd028152602060048201526010602482015260008051602062004567833981519152604482015290519081900360640190fd5b6200156e85336200180e565b1515620015c5576040805160e560020a62461bcd02815260206004820152601960248201527f4173736f63696174656420646f65736e27742065786973742e00000000000000604482015290519081900360640190fd5b60008581526006602052604090206003015460a060020a900460ff16151562001638576040805160e560020a62461bcd02815260206004820152601760248201527f4173736f6369617465642069732064697361626c65642e000000000000000000604482015290519081900360640190fd5b62001644848362001d9f565b15156200169b576040805160e560020a62461bcd02815260206004820152601b60248201527f55736572206f722050617373776f726420696e636f72726563742e0000000000604482015290519081900360640190fd5b600084815260046020526040902060030154620016bf908463ffffffff62001e2f16565b600085815260046020526040902060030155506001949350505050565b620016ea6200075462001c14565b151562001745576040805160e560020a62461bcd02815260206004820152602e6024820152600080516020620045878339815191526044820152600080516020620045a7833981519152606482015290519081900360840190fd5b60015460ff161562001790576040805160e560020a62461bcd028152602060048201526010602482015260008051602062004567833981519152604482015290519081900360640190fd5b6001805460ff1916811790557f62e78cea01bee320cd4e420270b5ea74000d11b0c9f74754ebdbfc544b05a25862000e4262001c14565b6200126c620017d562001c14565b62001e7a565b60009081526006602052604090206002810154600390910154600160a060020a039091169160a060020a90910460ff1690565b60009182526006602052604090912060020154600160a060020a0390811691161490565b60606009805480602002602001604051908101604052809291908181526020018280548015620012be5760200282019190600052602060002090815481526020019060010190808311620012a9575050505050905090565b600354604080517fe055aeeb0000000000000000000000000000000000000000000000000000000081526004810186905260248101859052604481018490529051600092600160a060020a03169163e055aeeb916064808301926020929190829003018186803b158015620018fe57600080fd5b505afa15801562001913573d6000803e3d6000fd5b505050506040513d60208110156200192a57600080fd5b5051949350505050565b6008602090815260009182526040918290208054600180830154600280850154600386015460048701546005880154600689015460078a0180548d51601f6000199b831615610100029b909b01909116979097049889018c90048c0287018c01909c52878652979a600160a060020a039096169993989297919690959194929383018282801562001a095780601f10620019dd5761010080835404028352916020019162001a09565b820191906000526020600020905b815481529060010190602001808311620019eb57829003601f168201915b5050505050908060080154905089565b60015460009060ff161562001a67576040805160e560020a62461bcd028152602060048201526010602482015260008051602062004567833981519152604482015290519081900360640190fd5b600360009054906101000a9004600160a060020a0316600160a060020a031663ffed12456040518163ffffffff167c0100000000000000000000000000000000000000000000000000000000028152600401600060405180830381600087803b15801562001ad457600080fd5b505af115801562001ae9573d6000803e3d6000fd5b5050505062001af985336200180e565b151562001b50576040805160e560020a62461bcd02815260206004820152601460248201527f4173736f636961746564206e6f2065786973742e000000000000000000000000604482015290519081900360640190fd5b60008581526006602052604090206003015460a060020a900460ff16151562001bc3576040805160e560020a62461bcd02815260206004820152601760248201527f4173736f6369617465642069732064697361626c65642e000000000000000000604482015290519081900360640190fd5b62001bcf848362001ec4565b50600084815260046020526040902060030154620016bf908463ffffffff62001f9116565b600980548290811062001c0357fe5b600091825260209091200154905081565b3390565b62001c2b60028263ffffffff62001fef16565b604051600160a060020a038216907fee42164429e67869687bd6bb89c4b935a8c14abe726ab3d88e5a2246f7c395ca90600090a250565b6000600160a060020a038216151562001ceb576040805160e560020a62461bcd02815260206004820152602260248201527f526f6c65733a206163636f756e7420697320746865207a65726f20616464726560448201527f7373000000000000000000000000000000000000000000000000000000000000606482015290519081900360840190fd5b50600160a060020a03166000908152602091909152604090205460ff1690565b62001d1e60028263ffffffff6200201416565b604051600160a060020a038216907f41586003b49136ca903b6942a62bf8f82fc92b3e532556aad10ed2c91b2259a790600090a250565b62001d6860008263ffffffff62001fef16565b604051600160a060020a038216907f44d6d25963f097ad14f29f06854a01f575648a1ef82f30e562ccd3889717e33990600090a250565b600062001dac83620020bf565b151562001e03576040805160e560020a62461bcd02815260206004820152601260248201527f5573657220646f65736e27742065786973740000000000000000000000000000604482015290519081900360640190fd5b60008381526004602052604090206002015482141562001e265750600162000d2d565b50600092915050565b600062001e7383836040805190810160405280601e81526020017f536166654d6174683a207375627472616374696f6e206f766572666c6f770000815250620020d5565b9392505050565b62001e8d60008263ffffffff6200201416565b604051600160a060020a038216907fa3b62bc36326052d97ea62d63c3d60308ed4c3ea8ac079dd8499f1e9c4f80c0f90600090a250565b60015460009060ff161562001f12576040805160e560020a62461bcd028152602060048201526010602482015260008051602062004567833981519152604482015290519081900360640190fd5b600083815260046020526040812084815560018101549091101562001f3c57600191505062000d2d565b600580546001818101835560008381527f036b6384b5eca791c62761152d0c79bb0604c104a5fb6f4eb0703f3154bb3db090920187905591548383015560028301859055600390920191909155905062000d2d565b60008282018381101562001e73576040805160e560020a62461bcd02815260206004820152601b60248201527f536166654d6174683a206164646974696f6e206f766572666c6f770000000000604482015290519081900360640190fd5b600160a060020a0316600090815260209190915260409020805460ff19166001179055565b62002020828262001c62565b15156200209d576040805160e560020a62461bcd02815260206004820152602160248201527f526f6c65733a206163636f756e7420646f6573206e6f74206861766520726f6c60448201527f6500000000000000000000000000000000000000000000000000000000000000606482015290519081900360840190fd5b600160a060020a0316600090815260209190915260409020805460ff19169055565b6000908152600460205260408120600101541190565b600081848411156200216b5760405160e560020a62461bcd0281526004018080602001828103825283818151815260200191508051906020019080838360005b838110156200212f57818101518382015260200162002115565b50505050905090810190601f1680156200215d5780820380516001836020036101000a031916815260200191505b509250505060405180910390fd5b505050900390565b604051612340806200222783390190565b828054600181600116156101000203166002900490600052602060002090601f016020900481019282601f10620021c757805160ff1916838001178555620021f7565b82800160010185558215620021f7579182015b82811115620021f7578251825591602001919060010190620021da565b506200220592915062002209565b5090565b620012c691905b808211156200220557600081556001016200221056fe608060408181528062002340833981018060405260408110156200002257600080fd5b5080516020909101516200005162000042640100000000620000cb810204565b640100000000620000cf810204565b6001805460ff191690556200008162000072640100000000620000cb810204565b64010000000062000121810204565b600d805433600160a060020a031991821617909155600b83905560108054909116600160a060020a038316179055620000c38164010000000062000173810204565b50506200034c565b3390565b620000ea60008264010000000062001ef36200024482021704565b604051600160a060020a038216907f2db8f49e9d09fbba330ecc87b42d650f16bdabefeab9a35300dbf34bd8d4ec3190600090a250565b6200013c60028264010000000062001ef36200024482021704565b604051600160a060020a038216907f44d6d25963f097ad14f29f06854a01f575648a1ef82f30e562ccd3889717e33990600090a250565b620001996200018a640100000000620000cb810204565b64010000000062000269810204565b15156200022d57604080517f08c379a000000000000000000000000000000000000000000000000000000000815260206004820152602e60248201527f41646d696e526f6c653a2063616c6c657220646f6573206e6f7420686176652060448201527f7468652041646d696e20726f6c65000000000000000000000000000000000000606482015290519081900360840190fd5b620002418164010000000062000121810204565b50565b600160a060020a0316600090815260209190915260409020805460ff19166001179055565b60006200028660028364010000000062001b546200028c82021704565b92915050565b6000600160a060020a03821615156200032c57604080517f08c379a000000000000000000000000000000000000000000000000000000000815260206004820152602260248201527f526f6c65733a206163636f756e7420697320746865207a65726f20616464726560448201527f7373000000000000000000000000000000000000000000000000000000000000606482015290519081900360840190fd5b50600160a060020a03166000908152602091909152604090205460ff1690565b611fe4806200035c6000396000f3fe608060405260043610610116577c010000000000000000000000000000000000000000000000000000000060003504630b5a0626811461011b57806324d7806c146101be5780633f4ba83a1461020557806348e5235c1461021c5780635c975abb1461028157806361e4258e14610296578063649b6e3d146102c95780636ffc3903146102fc57806370480275146103115780637af17ee91461034457806380d22fc61461037757806381530c04146103aa5780638456cb59146103e05780638bad0c0a146103f55780639abb21951461040a578063a5ff72b61461043d578063acb2777d14610467578063b6e9c2ac146104a0578063bc91b4cf146104dc578063c2fefe831461051e578063f6216f031461056b575b600080fd5b34801561012757600080fd5b5061014e6004803603602081101561013e57600080fd5b5035600160a060020a03166105c2565b604080519d8e5260208e019c909c528c8c019a909a5260608c019890985260808b019690965260a08a019490945260c089019290925260e08801526101008701526101208601526101408501521515610160840152600160a060020a031661018083015251908190036101a00190f35b3480156101ca57600080fd5b506101f1600480360360208110156101e157600080fd5b5035600160a060020a0316610634565b604080519115158252519081900360200190f35b34801561021157600080fd5b5061021a61064d565b005b34801561022857600080fd5b50610231610761565b60408051602080825283518183015283519192839290830191858101910280838360005b8381101561026d578181015183820152602001610255565b505050509050019250505060405180910390f35b34801561028d57600080fd5b506101f16107c3565b3480156102a257600080fd5b506101f1600480360360208110156102b957600080fd5b5035600160a060020a03166107cc565b3480156102d557600080fd5b506101f1600480360360208110156102ec57600080fd5b5035600160a060020a0316610850565b34801561030857600080fd5b5061021a610862565b34801561031d57600080fd5b5061021a6004803603602081101561033457600080fd5b5035600160a060020a0316610874565b34801561035057600080fd5b5061021a6004803603602081101561036757600080fd5b5035600160a060020a03166108e8565b34801561038357600080fd5b5061021a6004803603602081101561039a57600080fd5b5035600160a060020a0316610a35565b3480156103b657600080fd5b506101f1600480360360608110156103cd57600080fd5b5080359060208101359060400135610aa1565b3480156103ec57600080fd5b5061021a610c2e565b34801561040157600080fd5b5061021a610d0f565b34801561041657600080fd5b5061021a6004803603602081101561042d57600080fd5b5035600160a060020a0316610d1f565b34801561044957600080fd5b506101f16004803603602081101561046057600080fd5b5035610e6a565b34801561047357600080fd5b5061021a6004803603604081101561048a57600080fd5b5080359060200135600160a060020a0316610fa9565b3480156104ac57600080fd5b506104ca600480360360208110156104c357600080fd5b503561138a565b60408051918252519081900360200190f35b3480156104e857600080fd5b506101f1600480360360a08110156104ff57600080fd5b5080359060208101359060408101359060608101359060800135611421565b34801561052a57600080fd5b506105336118df565b604080519788526020880196909652868601949094526060860192909252608085015260a084015260c0830152519081900360e00190f35b34801561057757600080fd5b506101f1600480360360e081101561058e57600080fd5b50803590602081013590600160a060020a036040820135169060608101359060808101359060a08101359060c001356118fd565b600e60205260009081526040902080546001820154600283015460038401546004850154600586015460068701546007880154600889015460098a0154600a8b0154600b909b0154999a98999798969795969495939492939192909160ff8116906101009004600160a060020a03168d565b600061064760028363ffffffff611b5416565b92915050565b61065d610658611bfc565b610850565b15156106b5576040805160e560020a62461bcd02815260206004820152602c6024820152600080516020611f398339815191526044820152600080516020611f19833981519152606482015290519081900360840190fd5b60015460ff161515610711576040805160e560020a62461bcd02815260206004820152601460248201527f5061757361626c653a206e6f7420706175736564000000000000000000000000604482015290519081900360640190fd5b6001805460ff191690557f5db9ee0a495bf2e6ff9c91a7834c1ba4fdd244a5e8aa4e537bd38aeae4b073aa610744611bfc565b60408051600160a060020a039092168252519081900360200190a1565b6060600f8054806020026020016040519081016040528092919081815260200182805480156107b957602002820191906000526020600020905b8154600160a060020a0316815260019091019060200180831161079b575b5050505050905090565b60015460ff1690565b6000600160a060020a038216151561082e576040805160e560020a62461bcd02815260206004820152601e60248201527f436f6e7461696e65722061646472657373206973206e6f742076616c69640000604482015290519081900360640190fd5b50600160a060020a03166000908152600e60205260409020600b015460ff1690565b6000610647818363ffffffff611b5416565b61087261086d611bfc565b611c00565b565b61088461087f611bfc565b610634565b15156108dc576040805160e560020a62461bcd02815260206004820152602e6024820152600080516020611f798339815191526044820152600080516020611f99833981519152606482015290519081900360840190fd5b6108e581611c48565b50565b6108f361087f611bfc565b151561094b576040805160e560020a62461bcd02815260206004820152602e6024820152600080516020611f798339815191526044820152600080516020611f99833981519152606482015290519081900360840190fd5b60015460ff1615610994576040805160e560020a62461bcd0281526020600482015260106024820152600080516020611f59833981519152604482015290519081900360640190fd5b600160a060020a0381166000908152600e60205260409020600b015460ff1615610a08576040805160e560020a62461bcd02815260206004820152601860248201527f436f6e7461696e657220616c726561647920656e61626c650000000000000000604482015290519081900360640190fd5b600160a060020a03166000908152600e6020526040902042600a820155600b01805460ff19166001179055565b610a40610658611bfc565b1515610a98576040805160e560020a62461bcd02815260206004820152602c6024820152600080516020611f398339815191526044820152600080516020611f19833981519152606482015290519081900360840190fd5b6108e581611c90565b6000610aae61087f611bfc565b1515610b06576040805160e560020a62461bcd02815260206004820152602e6024820152600080516020611f798339815191526044820152600080516020611f99833981519152606482015290519081900360840190fd5b60015460ff1615610b4f576040805160e560020a62461bcd0281526020600482015260106024820152600080516020611f59833981519152604482015290519081900360640190fd5b600d54600b54604080517f74df0b60000000000000000000000000000000000000000000000000000000008152600481019290925260248201879052604482018590526064820186905251600092600160a060020a0316916374df0b6091608480830192602092919082900301818787803b158015610bcd57600080fd5b505af1158015610be1573d6000803e3d6000fd5b505050506040513d6020811015610bf757600080fd5b505190508015610c2157600554610c14908463ffffffff611cd816565b6005555060019050610c27565b60009150505b9392505050565b610c39610658611bfc565b1515610c91576040805160e560020a62461bcd02815260206004820152602c6024820152600080516020611f398339815191526044820152600080516020611f19833981519152606482015290519081900360840190fd5b60015460ff1615610cda576040805160e560020a62461bcd0281526020600482015260106024820152600080516020611f59833981519152604482015290519081900360640190fd5b6001805460ff1916811790557f62e78cea01bee320cd4e420270b5ea74000d11b0c9f74754ebdbfc544b05a258610744611bfc565b610872610d1a611bfc565b611d35565b610d2a61087f611bfc565b1515610d82576040805160e560020a62461bcd02815260206004820152602e6024820152600080516020611f798339815191526044820152600080516020611f99833981519152606482015290519081900360840190fd5b60015460ff1615610dcb576040805160e560020a62461bcd0281526020600482015260106024820152600080516020611f59833981519152604482015290519081900360640190fd5b600160a060020a0381166000908152600e60205260409020600b015460ff161515610e40576040805160e560020a62461bcd02815260206004820152601760248201527f436f6e7461696e6572206973206e6f7420656e61626c65000000000000000000604482015290519081900360640190fd5b600160a060020a03166000908152600e6020526040902042600a820155600b01805460ff19169055565b6000610e77610658611bfc565b1515610ecf576040805160e560020a62461bcd02815260206004820152602c6024820152600080516020611f398339815191526044820152600080516020611f19833981519152606482015290519081900360840190fd5b60015460ff1615610f18576040805160e560020a62461bcd0281526020600482015260106024820152600080516020611f59833981519152604482015290519081900360640190fd5b60408051606081018252602c81527f636c656172506f696e74733a207472616e7366657220616d6f756e742065786360208201527f656564732062616c616e6365000000000000000000000000000000000000000091810191909152600554610f8891849063ffffffff611d7d16565b600555600654610f9e908363ffffffff611cd816565b600655506001919050565b610fb461087f611bfc565b151561100c576040805160e560020a62461bcd02815260206004820152602e6024820152600080516020611f798339815191526044820152600080516020611f99833981519152606482015290519081900360840190fd5b60015460ff1615611055576040805160e560020a62461bcd0281526020600482015260106024820152600080516020611f59833981519152604482015290519081900360640190fd5b600160a060020a03811615156110db576040805160e560020a62461bcd02815260206004820152602a60248201527f436f6e7461696e6572204e616d6520616e6420416464726573732073686f756c60448201527f642062652066696c6c2100000000000000000000000000000000000000000000606482015290519081900360840190fd5b600160a060020a0381166000908152600e6020526040812054111561114a576040805160e560020a62461bcd02815260206004820152601660248201527f4164647265737320616c72656164792065786973742100000000000000000000604482015290519081900360640190fd5b600160a060020a0381166000908152600e60205260409020600101548214156111bd576040805160e560020a62461bcd02815260206004820152601660248201527f6e616d6552656620616c72656164792065786973742100000000000000000000604482015290519081900360640190fd5b600c600081548092919060010191905055506101a060405190810160405280600c54815260200183815260200160008152602001600081526020016000815260200160008152602001600081526020016000815260200160008152602001428152602001428152602001600115158152602001601060009054906101000a9004600160a060020a0316600160a060020a0316815250600e600083600160a060020a0316600160a060020a03168152602001908152602001600020600082015181600001556020820151816001015560408201518160020155606082015181600301556080820151816004015560a0820151816005015560c0820151816006015560e082015181600701556101008201518160080155610120820151816009015561014082015181600a015561016082015181600b0160006101000a81548160ff02191690831515021790555061018082015181600b0160016101000a815481600160a060020a030219169083600160a060020a03160217905550905050600f8190806001815401808255809150509060018203906000526020600020016000909192909190916101000a815481600160a060020a030219169083600160a060020a03160217905550505050565b600d54604080517f6c7f1542000000000000000000000000000000000000000000000000000000008152600481018490529051600092600160a060020a031691636c7f1542916024808301926020929190829003018186803b1580156113ef57600080fd5b505afa158015611403573d6000803e3d6000fd5b505050506040513d602081101561141957600080fd5b505192915050565b336000908152600e602052604081206009015481106114b0576040805160e560020a62461bcd02815260206004820152602360248201527f5468652073656e646572206973206e6f7420612076616c696420636f6e74616960448201527f6e65720000000000000000000000000000000000000000000000000000000000606482015290519081900360840190fd5b336000908152600e60205260409020600b015460ff161515611541576040805160e560020a62461bcd028152602060048201526024808201527f5468652073656e646572206973206e6f74206120636f6e7461696e657220656e60448201527f61626c6500000000000000000000000000000000000000000000000000000000606482015290519081900360840190fd5b60015460ff161561158a576040805160e560020a62461bcd0281526020600482015260106024820152600080516020611f59833981519152604482015290519081900360640190fd5b6000848401830181811161160e576040805160e560020a62461bcd02815260206004820152602860248201527f4e756d626572206f66206974656d73206973206e6f742067726561746572207460448201527f68616e207a65726f000000000000000000000000000000000000000000000000606482015290519081900360840190fd5b336000908152600e6020526040902060058101805460010190556002015461163c908263ffffffff611cd816565b336000908152600e60205260409020600281019190915560030154611667908263ffffffff611cd816565b336000908152600e60205260409020600381019190915560060154611692908763ffffffff611cd816565b336000908152600e602052604090206006810191909155600701546116bd908663ffffffff611cd816565b336000908152600e602052604090206007810191909155600801546116e8908563ffffffff611cd816565b336000908152600e6020526040902060080155611706868686611e17565b6117138486880101611e35565b600d54604080517fe055aeeb0000000000000000000000000000000000000000000000000000000081526004810189905260248101889052604481018790529051600160a060020a039092169163e055aeeb91606480820192602092909190829003018186803b15801561178657600080fd5b505afa15801561179a573d6000803e3d6000fd5b505050506040513d60208110156117b057600080fd5b5051600d54600b54604080517fee0c96c50000000000000000000000000000000000000000000000000000000081526004810192909252602482018c905260448201849052606482018b905251929450600092600160a060020a039092169163ee0c96c59160848082019260209290919082900301818787803b15801561183657600080fd5b505af115801561184a573d6000803e3d6000fd5b505050506040513d602081101561186057600080fd5b5051905080156118ce57336000908152600e6020526040902060040180548401905561188b83611e40565b6040805184815290518a9133917fdac3a1fa736bac13233e84d1cde6de581c6bea4efe8127282d378f120e354ce79181900360200190a3600193505050506118d6565b600093505050505b95945050505050565b60035460055460045460065460075460085460095490919293949596565b336000908152600e6020526040812060090154811061198c576040805160e560020a62461bcd02815260206004820152602360248201527f5468652073656e646572206973206e6f7420612076616c696420636f6e74616960448201527f6e65720000000000000000000000000000000000000000000000000000000000606482015290519081900360840190fd5b336000908152600e60205260409020600b015460ff161515611a1d576040805160e560020a62461bcd028152602060048201526024808201527f5468652073656e646572206973206e6f74206120636f6e7461696e657220656e60448201527f61626c6500000000000000000000000000000000000000000000000000000000606482015290519081900360840190fd5b600d54600b54604080517f44997ac80000000000000000000000000000000000000000000000000000000081526004810192909252602482018a9052600160a060020a038981166044840152606483018990526084830188905260a4830187905260c48301869052905160009391909116916344997ac89160e480830192602092919082900301818787803b158015611ab557600080fd5b505af1158015611ac9573d6000803e3d6000fd5b505050506040513d6020811015611adf57600080fd5b505190508015611b4357336000908152600e6020526040902060068101546007820154600890920154611b129290611e17565b5050336000908152600e60205260408120600681018290556007810182905560088101829055600201556001611b49565b60009150505b979650505050505050565b6000600160a060020a0382161515611bdc576040805160e560020a62461bcd02815260206004820152602260248201527f526f6c65733a206163636f756e7420697320746865207a65726f20616464726560448201527f7373000000000000000000000000000000000000000000000000000000000000606482015290519081900360840190fd5b50600160a060020a03166000908152602091909152604090205460ff1690565b3390565b611c1160008263ffffffff611e4b16565b604051600160a060020a038216907fc7c063934ec148f1763101df56fc7d2b7c439d07ce6e340e8dbf55ff15cabe9890600090a250565b611c5960028263ffffffff611ef316565b604051600160a060020a038216907f44d6d25963f097ad14f29f06854a01f575648a1ef82f30e562ccd3889717e33990600090a250565b611ca160008263ffffffff611ef316565b604051600160a060020a038216907f2db8f49e9d09fbba330ecc87b42d650f16bdabefeab9a35300dbf34bd8d4ec3190600090a250565b600082820183811015610c27576040805160e560020a62461bcd02815260206004820152601b60248201527f536166654d6174683a206164646974696f6e206f766572666c6f770000000000604482015290519081900360640190fd5b611d4660028263ffffffff611e4b16565b604051600160a060020a038216907fa3b62bc36326052d97ea62d63c3d60308ed4c3ea8ac079dd8499f1e9c4f80c0f90600090a250565b60008184841115611e0f5760405160e560020a62461bcd0281526004018080602001828103825283818151815260200191508051906020019080838360005b83811015611dd4578181015183820152602001611dbc565b50505050905090810190601f168015611e015780820380516001836020036101000a031916815260200191505b509250505060405180910390fd5b505050900390565b60078054909301909255600880549091019055600980549091019055565b600480549091019055565b600380549091019055565b611e558282611b54565b1515611ed1576040805160e560020a62461bcd02815260206004820152602160248201527f526f6c65733a206163636f756e7420646f6573206e6f74206861766520726f6c60448201527f6500000000000000000000000000000000000000000000000000000000000000606482015290519081900360840190fd5b600160a060020a0316600090815260209190915260409020805460ff19169055565b600160a060020a0316600090815260209190915260409020805460ff1916600117905556fe6865204d6e677220726f6c6500000000000000000000000000000000000000004d6e6772526f6c653a2063616c6c657220646f6573206e6f74206861766520745061757361626c653a207061757365640000000000000000000000000000000041646d696e526f6c653a2063616c6c657220646f6573206e6f742068617665207468652041646d696e20726f6c65000000000000000000000000000000000000a165627a7a723058209b8444b0649f6074002781b484a8167c614a9779772304b126594c02bfba4c0500295061757361626c653a207061757365640000000000000000000000000000000041646d696e526f6c653a2063616c6c657220646f6573206e6f742068617665207468652041646d696e20726f6c65000000000000000000000000000000000000a165627a7a723058200b59a23970bd62d02aec45d198537d96452d107edb8645302aeece657f92f3b80029",
  "source": "pragma solidity ^0.5.1;\n\nimport \"./lib/Context.sol\";\nimport \"./lib/Roles.sol\";\nimport \"./lib/TraceRole.sol\";\nimport \"./lib/Pausable.sol\";\nimport \"./Associated_FC.sol\";\nimport \"./CustomOracle.sol\";\n\nimport \"./lib/SafeMath.sol\";\n\n\ncontract Main is Pausable, TracerRole {\n\n\tusing SafeMath for uint;\n\n\tCustomOracle customOracle;// Referencia del contrato principal, para conocer su Address\n\n    struct User {\n\t\tbytes32 hashName;\n\t\tuint index; //Indice para el control del alta de usuarios\n\t\tbytes32 hashedSecret; //Hash256 de la Palabra secreta del usuario.\n\t\tuint balance; //Puntos del usuario\n\t}\n\n\tstruct Associated {\n\t\tbytes32 hashName;\n\t\tuint index; //Indice para el control del alta de asociados\n\t\taddress contract_address; //Contrato del asociado\n\t\taddress associated_address; //Direccin del asociado\n\t\tbool enable;\n\t}\n\n\tmapping (bytes32 => User) private _users;\n    bytes32[] internal userList;\n\n\tmapping (bytes32 => Associated) private _associated;\n\tbytes32[] internal associatedList;\n\n\t//El contructor incluye la direccin del orculo para acceder a sus mtodos\n\tconstructor(address payable customOracle_address) public {\n\t\tcustomOracle = CustomOracle(customOracle_address);\t\t\n    }\n\n    //----------------------------------------------------------------------------------------------------\n    //------------------    ASSOCIATED    ----------------------------------------------------------------\n    //----------------------------------------------------------------------------------------------------\n\n\n\t/**\n     * @dev Aadir un Asociado al contrato Principal.\n     * @param hashName  Cantidad Puntos Generados\n     * @param _associated_address  Cantidad Puntos Canjeados\n     **/\n    function addAssociated(bytes32 hashName, address _associated_address) public onlyAdmin whenNotPaused  {\n\n        bytes32 hashAssociatedName = hashName;\n        Associated_FC associated_contract = new Associated_FC(hashAssociatedName, _associated_address);\n\t\tAssociated storage associated = _associated[hashName];\n\t\tassociated_contract.addMngr(msg.sender); //Aadimos la cuenta propietaria como Maganer del contrato de asociado\n\n\t\trequire(!(associated.index > 0), \"Associated already exist!\");\n\n\t\tassociatedList.push(hashName);\n\t\tuint associatedListIndex = associatedList.length - 1;\n\t\tassociated.index = associatedListIndex + 1;\n\t\tassociated.hashName = hashName;\n\t\tassociated.associated_address = _associated_address;\n\t\tassociated.contract_address = address(associated_contract);\n\t\tassociated.enable = true;\n\n\t}\n\n\n\t/**\n    * @dev Devuelve la lista de asociados por cdigo hash\n\t* @return ArrayList\n\t*/\n    function getAssociatedList() public view returns (bytes32[] memory) {\n\t\treturn associatedList;\n\t}\n\n\t\n\t/**\n    * @dev Devuelve el asociado con cdigo hashName\n\t* @param hashName  Hash de Nombre de Asociado\n\t* @return contract_address   Address del contrato de Asociado\n\t* @return enable  Booleano\n\t*/\n    function getAssociated(bytes32 hashName ) public view returns (address contract_address, bool enable) {\n        return (_associated[hashName].contract_address, _associated[hashName].enable);\n    }\n\n\t/**\n    * @dev comprobar si la direccin que se pasa como parmetro corresponde a la direccin de contrato de un asociado.\n\t* @param hashName  Hash del nombre de Asociado\n\t* @param associated_contract_address Address del contrato de Asociado\n\t* @return enable  Booleano\n\t*/\n\tfunction isAssociated(bytes32 hashName, address associated_contract_address) public view returns (bool) {\n\t\treturn  _associated[hashName].contract_address == associated_contract_address;\n\t}\n\n\n\t/**\n    * @dev Funcin para desactivar un asociado con identificador hashName. Solo una cuenta con permisos de Admin puede ejecutarlo\n\t* @param hashName  Hash de Nombre de Asociado\n\t* @return boolean  Ejecucin ok/nok\n\t*/\n\tfunction disableAssociated(bytes32 hashName) public onlyAdmin whenNotPaused returns (bool) {\n\n\t\trequire(_associated[hashName].enable, \"Associated is already disabled.\");\n\t\t_associated[hashName].enable = false;\n\n\t\t// El mtodo modifica el estado del contrato del asociado en podo paused\n\t\tAssociated_FC associated_contract;\n\t\tassociated_contract = Associated_FC(_associated[hashName].contract_address);\n\t\tassociated_contract.pause();\n\n\t\treturn true;\n\t }\n\n\n\t/**\n    * @dev Funcin para activar un asociado con identificador hashName. Solo una cuenta con permisos de Admin puede ejecutar\n\t* @param hashName  Hash de Nombre de Asociado\n\t* @return boolean  Ejecucin ok/nok\n\t*/\n\tfunction enableAssociated(bytes32 hashName) public onlyAdmin whenNotPaused returns (bool) {\n\n\t\trequire(!_associated[hashName].enable, \"Associated is already enabled.\");\n\t\t_associated[hashName].enable = true;\n\n\t\t// El mtodo modifica el estado del contrato del asociado en podo unpaused\n\t\tAssociated_FC associated_contract;\n\t\tassociated_contract = Associated_FC(_associated[hashName].contract_address);\n\t\tassociated_contract.unpause();\n\n\t\treturn true;\n\t}\n\n\t//----------------------------------------------------------------------------------------------------\n\t//----------------------------------------------------------------------------------------------------\n    //--------------------------------------    USERS    -------------------------------------------------\n    //----------------------------------------------------------------------------------------------------\n \n\t/**\n    * @dev Aade un usuario y guarda un hashSecret como cdigo hash256 de la palabra secreta incluida por el usuario.\n\t* @param hashName  Hash de Nombre de Usuario\n\t* @param hashedSecret  Hash de palabra clave del Usuario\n\t* @return boolean  Ejecucin ok/nok\n\t*/\n\tfunction addUser(bytes32 hashName, bytes32 hashedSecret) internal whenNotPaused returns (bool){\n\n\t\tUser storage user = _users[hashName];\n\t\tuser.hashName = hashName;\n\n\t\tif(user.index > 0){ // No se aade el usuario si ya existe\n\t\t\t return true;\n\t\t}else {\n\t\t\t userList.push(hashName);\n\t\t\t uint userListIndex = userList.length - 1;\n\t\t\t user.index = userListIndex + 1;\n\t\t\t user.hashedSecret = hashedSecret;\n\t\t\t user.balance = 0;\n\n\t\t\t return true;\n\t\t}\n\t}\n\n\t\n\t/**\n    * @dev Comprueba si existe el usuario con identificador hashName.\n\t* @param hashName  Hash de Nombre de Usuario\n\t* @return boolean  Ejecucin ok/nok\n\t*/\n\tfunction isUser(bytes32 hashName) internal view returns (bool) {\n\t\treturn _users[hashName].index > 0;\n\t}\n\n\t\n\t/**\n    * @dev Devuelve el balance del usuario con identificador hashName.\n\t* @param hashName  Hash de Nombre de Usuario\n\t* @return balance\n\t*/\n\tfunction balanceOf(bytes32 hashName) public view returns (uint256) {\n         return _users[hashName].balance;\n    }\t\n\n\n\t/**\n    * @dev Actualiza el balance del usuario. Slo puede llamarse desde el contrato del Asociado\n\t* @param hashAssociatedName  Hash del nombre del Asociado\n\t* @param hashName  Hash de Nombre de Usuario\n\t* @param generatedPoints  Puntos\n\t* @param hashedSecret  Hash clave del Usuario\n\t* @return bool\n\t*/\n\tfunction updateUserBalance(bytes32 hashAssociatedName, bytes32 hashName, uint generatedPoints, bytes32 hashedSecret)\n\tpublic whenNotPaused returns (bool){\n\n\t\tcustomOracle.checkNextProcess();\n\n\t    require(isAssociated(hashAssociatedName,msg.sender), \"Associated no exist.\"); //Solo pude llamarlo la direccin de Contrato del Asociado.\n        require(_associated[hashAssociatedName].enable, \"Associated is disabled.\"); // El asociado debe estar activado\n\n\t\t// Se llama al mtodo addUser para comprobar si ya existe el usuario. En caso contrario se aade uno nuevo.\n        addUser(hashName, hashedSecret); // name y word son opcionales. Solo son necesarios si el usuario no existe\n\n\t\t// Aadimos los puntos al usuario\n\t\t_users[hashName].balance = _users[hashName].balance.add(generatedPoints);\n\n        return true;\n    }\n\n\t//----------------------------------------------------------------------------------------------------\n\n\n\t//----------------------------------------------------------------------------------------------------\n    //------------------    EXCHANGE   -------------------------------------------------------------------\n    //----------------------------------------------------------------------------------------------------\n\n\n\t/**\n    * @dev Se recuperan los puntos correspondientes para pack_1, pack_2 y pack_3\n\t* @param _pack1  Elementos de Tipo 1\n\t* @param _pack2  Elementos de Tipo 2\n\t* @param _pack3  Elementos de Tipo 3\n\t* @return Puntos\n\t*/\n\tfunction calculatePoints(uint _pack1, uint _pack2, uint _pack3) public view returns (uint) {\n\t\treturn customOracle.calculatePoints(_pack1, _pack2, _pack3);\n\t}\n\n\t\n\t/**\n    * @dev Se comprueba que el usuario con el cdigo hashSecret est dado de alta en el contrato\n\t* @param user_hashName  Hash del nombre de Usuario\n\t* @param hashedSecret  Hash de la palabra Clave\n\t* @return Booleano\n\t*/\n    function checkUser(bytes32 user_hashName, bytes32 hashedSecret) internal view returns (bool){\n\n        require(isUser(user_hashName), \"User doesn't exist\");\n        if (hashedSecret == _users[user_hashName].hashedSecret) {\n            return true;\n        }\n        return false;\n    }\n\n    \n\t/**\n    * @dev Canjear Puntos. Slo el contrato del asociado puede llamar al mtodo exchange\n\t* @param hashAssociatedName  Hash del nombre de Asociado\n\t* @param user_hashName  Hash del nombre del Usuario\n\t* @param amount  Cantidad de Puntos para canjear\n\t* @param hashedSecret  Hash de la palabra Clave\n\t* @return Booleano\n\t*/\n    function exchangePoints(bytes32 hashAssociatedName, bytes32 user_hashName, uint amount, bytes32 hashedSecret) public whenNotPaused returns (bool){\n\n        require(isAssociated(hashAssociatedName, msg.sender), \"Associated doesn't exist.\"); //Solo pude llamarlo la Direccin de Asociado.\n        require(_associated[hashAssociatedName].enable, \"Associated is disabled.\"); // El asociado debe estar activado\n        require(checkUser(user_hashName, hashedSecret),\"User or Password incorrect.\");\n\n        _users[user_hashName].balance = _users[user_hashName].balance.sub(amount);\n\n        return true;\n    }\n\n\n\t//----------------------------------------------------------------------------------------------------\n    //------------------ BAGS MANAGEMENT -----------------------------------------------------------------\n    //----------------------------------------------------------------------------------------------------\n\n\t//Monitorizacion de las Bolsas que se han usado en los contenedores\n\t//Desde la app del contenedor por cada bolsa se genera un QR que se le pasa al usuario al final de meter las botellas\n    //Identificacin, Monitorizacin y Cambio de Estado de las bolsas de los contenedores\n\n    mapping (bytes32 => QR_Bag) public listQR_Bags; //*  Lista de BOlsas con QRs en la Aplicacin\n    bytes32[] public _QRBagList;\n\n\t //Modelo de Datos de una bolsa del Contenedor identificada con un QR que tendr el usuario que recicle\n    struct QR_Bag{\n        bytes32 qr;\n        address associated;\n        bytes32 hashAssociatedName;\n        bytes32 nameRef;//\n        uint item_1;\n        uint item_2;\n        uint item_3;\n        string status; //String o enum\n        uint date;//no haria falta\n\n\n    }\n\n\t\n\t/** \n      * @dev Aade una bolsa llena de Residuos e inicializa el Primer Estado.\n      * @param _hashAssociatedName Hash del asociado\n      * @param _QR Identificador que se le asigna a la bolsa\n\t  * @param _associated Address del container\n\t  * @param _nameRef Nombre del container\n\t  * @param _pack1  Elementos de Tipo 1\n      * @param _pack2  Elementos de Tipo 2 \n      * @param _pack3  Elementos de Tipo 3\n      */ \n    function addRecicledBag(bytes32 _hashAssociatedName, bytes32 _QR, address _associated, bytes32 _nameRef,  uint _pack1, uint _pack2, uint _pack3 ) public whenNotPaused returns (bool){\n        \n\t\trequire(!(listQR_Bags[_QR].qr != \"\"), \"QR ya utilizado!!\");\n\n\t\tstring memory _status = \"STORED\" ;//Estado inicial de la Bolsa, \n\n\t\t//Aadir Bolsa al mapping\n        listQR_Bags[_QR] = QR_Bag(_QR, _associated, _hashAssociatedName, _nameRef,  _pack1, _pack2, _pack3, _status, now);\n\t\t_QRBagList.push(_QR);\n\n\t\treturn true;\n\n        \n    }\n\n\n\t /** \n      * @dev Devuelve la lista de bolsas QR para poder usar luego el mapping listQR_Bags y poder monitorizarlas\n      * @return bytes32[] Array de QRs\n      */ \n     function getQRBagList() public view returns (bytes32[] memory) {\n\t\treturn _QRBagList;\n\t}\n\n \t\n\t /** \n      * @dev Cambiar el estado de la bolsa por los Transportistas.\n      * @param _QR Identificador de la bolsa.\n      */ \n     function updatedQRBagTruck(bytes32 _QR) public onlyTracer   { //Solo puede llamarle las compaias de Basura\n        require(listQR_Bags[_QR].qr != \"\", \"QR erroneo!!\");\n\n        listQR_Bags[_QR].date = now;\n\t\tlistQR_Bags[_QR].status = \"IN_TRUCK\";\n\t}\n\n\n\t \n\t/** \n      * @dev Cambiar el estado de la bolsa por Fabricas de Reciclado.\n      * @param _QR Identificador de la bolsa.\n      */ \n     function updatedQRBagFacfory(bytes32 _QR) public onlyTracer   { //Solo puede llamarle las fabricas de reciclaje\n        require(listQR_Bags[_QR].qr != \"\", \"QR erroneo!!\");\n\n        listQR_Bags[_QR].date = now;\n\t\tlistQR_Bags[_QR].status = \"RECYCLED\";\n\t}\n\n}\n",
  "sourcePath": "/home/cesar/master/DappPrincipal/truffle/contracts/Main.sol",
  "compiler": {
    "name": "solc",
    "version": "0.5.1+commit.c8a2cb62.Emscripten.clang"
  },
  "schemaVersion": "3.0.19",
  "updatedAt": "2020-01-14T22:04:59.776Z",
  "networkType": "ethereum",
  "devdoc": {
    "methods": {
      "addAssociated(bytes32,address)": {
        "details": "Aadir un Asociado al contrato Principal.",
        "params": {
          "_associated_address": "Cantidad Puntos Canjeados*",
          "hashName": "Cantidad Puntos Generados"
        }
      },
      "addRecicledBag(bytes32,bytes32,address,bytes32,uint256,uint256,uint256)": {
        "details": "Aade una bolsa llena de Residuos e inicializa el Primer Estado.",
        "params": {
          "_QR": "Identificador que se le asigna a la bolsa",
          "_associated": "Address del container",
          "_hashAssociatedName": "Hash del asociado",
          "_nameRef": "Nombre del container",
          "_pack1": "Elementos de Tipo 1",
          "_pack2": "Elementos de Tipo 2 ",
          "_pack3": "Elementos de Tipo 3"
        }
      },
      "balanceOf(bytes32)": {
        "details": "Devuelve el balance del usuario con identificador hashName.",
        "params": {
          "hashName": "Hash de Nombre de Usuario"
        },
        "return": "balance"
      },
      "calculatePoints(uint256,uint256,uint256)": {
        "details": "Se recuperan los puntos correspondientes para pack_1, pack_2 y pack_3",
        "params": {
          "_pack1": "Elementos de Tipo 1",
          "_pack2": "Elementos de Tipo 2",
          "_pack3": "Elementos de Tipo 3"
        },
        "return": "Puntos"
      },
      "disableAssociated(bytes32)": {
        "details": "Funcin para desactivar un asociado con identificador hashName. Solo una cuenta con permisos de Admin puede ejecutarlo",
        "params": {
          "hashName": "Hash de Nombre de Asociado"
        },
        "return": "boolean  Ejecucin ok/nok"
      },
      "enableAssociated(bytes32)": {
        "details": "Funcin para activar un asociado con identificador hashName. Solo una cuenta con permisos de Admin puede ejecutar",
        "params": {
          "hashName": "Hash de Nombre de Asociado"
        },
        "return": "boolean  Ejecucin ok/nok"
      },
      "exchangePoints(bytes32,bytes32,uint256,bytes32)": {
        "details": "Canjear Puntos. Slo el contrato del asociado puede llamar al mtodo exchange",
        "params": {
          "amount": "Cantidad de Puntos para canjear",
          "hashAssociatedName": "Hash del nombre de Asociado",
          "hashedSecret": "Hash de la palabra Clave",
          "user_hashName": "Hash del nombre del Usuario"
        },
        "return": "Booleano"
      },
      "getAssociated(bytes32)": {
        "details": "Devuelve el asociado con cdigo hashName",
        "params": {
          "hashName": "Hash de Nombre de Asociado"
        },
        "return": "contract_address   Address del contrato de Asociadoenable  Booleano"
      },
      "getAssociatedList()": {
        "details": "Devuelve la lista de asociados por cdigo hash",
        "return": "ArrayList"
      },
      "getQRBagList()": {
        "details": "Devuelve la lista de bolsas QR para poder usar luego el mapping listQR_Bags y poder monitorizarlas",
        "return": "bytes32[] Array de QRs"
      },
      "isAssociated(bytes32,address)": {
        "details": "comprobar si la direccin que se pasa como parmetro corresponde a la direccin de contrato de un asociado.",
        "params": {
          "associated_contract_address": "Address del contrato de Asociado",
          "hashName": "Hash del nombre de Asociado"
        },
        "return": "enable  Booleano"
      },
      "pause()": {
        "details": "Called by a pauser to pause, triggers stopped state."
      },
      "paused()": {
        "details": "Returns true if the contract is paused, and false otherwise."
      },
      "unpause()": {
        "details": "Called by a pauser to unpause, returns to normal state."
      },
      "updateUserBalance(bytes32,bytes32,uint256,bytes32)": {
        "details": "Actualiza el balance del usuario. Slo puede llamarse desde el contrato del Asociado",
        "params": {
          "generatedPoints": "Puntos",
          "hashAssociatedName": "Hash del nombre del Asociado",
          "hashName": "Hash de Nombre de Usuario",
          "hashedSecret": "Hash clave del Usuario"
        },
        "return": "bool"
      },
      "updatedQRBagFacfory(bytes32)": {
        "details": "Cambiar el estado de la bolsa por Fabricas de Reciclado.",
        "params": {
          "_QR": "Identificador de la bolsa."
        }
      },
      "updatedQRBagTruck(bytes32)": {
        "details": "Cambiar el estado de la bolsa por los Transportistas.",
        "params": {
          "_QR": "Identificador de la bolsa."
        }
      }
    }
  },
  "userdoc": {
    "methods": {}
  }
}