{
  "contractName": "Migrations",
  "abi": [
    {
      "constant": true,
      "inputs": [],
      "name": "last_completed_migration",
      "outputs": [
        {
          "name": "",
          "type": "uint256"
        }
      ],
      "payable": false,
      "stateMutability": "view",
      "type": "function"
    },
    {
      "constant": true,
      "inputs": [],
      "name": "owner",
      "outputs": [
        {
          "name": "",
          "type": "address"
        }
      ],
      "payable": false,
      "stateMutability": "view",
      "type": "function"
    },
    {
      "inputs": [],
      "payable": false,
      "stateMutability": "nonpayable",
      "type": "constructor"
    },
    {
      "constant": false,
      "inputs": [
        {
          "name": "completed",
          "type": "uint256"
        }
      ],
      "name": "setCompleted",
      "outputs": [],
      "payable": false,
      "stateMutability": "nonpayable",
      "type": "function"
    },
    {
      "constant": false,
      "inputs": [
        {
          "name": "new_address",
          "type": "address"
        }
      ],
      "name": "upgrade",
      "outputs": [],
      "payable": false,
      "stateMutability": "nonpayable",
      "type": "function"
    }
  ],
  "bytecode": "0x608060405234801561001057600080fd5b5060008054600160a060020a03191633179055610257806100326000396000f3fe60806040526004361061005b577c010000000000000000000000000000000000000000000000000000000060003504630900f0108114610060578063445df0ac146100a25780638da5cb5b146100c9578063fdacd57614610107575b600080fd5b34801561006c57600080fd5b506100a06004803603602081101561008357600080fd5b503573ffffffffffffffffffffffffffffffffffffffff16610131565b005b3480156100ae57600080fd5b506100b76101e4565b60408051918252519081900360200190f35b3480156100d557600080fd5b506100de6101ea565b6040805173ffffffffffffffffffffffffffffffffffffffff9092168252519081900360200190f35b34801561011357600080fd5b506100a06004803603602081101561012a57600080fd5b5035610206565b60005473ffffffffffffffffffffffffffffffffffffffff163314156101e15760008190508073ffffffffffffffffffffffffffffffffffffffff1663fdacd5766001546040518263ffffffff167c010000000000000000000000000000000000000000000000000000000002815260040180828152602001915050600060405180830381600087803b1580156101c757600080fd5b505af11580156101db573d6000803e3d6000fd5b50505050505b50565b60015481565b60005473ffffffffffffffffffffffffffffffffffffffff1681565b60005473ffffffffffffffffffffffffffffffffffffffff163314156101e15760015556fea165627a7a72305820d21a31fa315b0b625999c85d8f8bdcf403859e4b6cdc0a56f27e90e94219500c0029",
  "source": "pragma solidity ^0.5.0;\n\ncontract Migrations {\n  address public owner;\n  uint public last_completed_migration;\n\n  modifier restricted() {\n    if (msg.sender == owner) _;\n  }\n\n  constructor() public {\n    owner = msg.sender;\n  }\n\n  function setCompleted(uint completed) public restricted {\n    last_completed_migration = completed;\n  }\n\n  function upgrade(address new_address) public restricted {\n    Migrations upgraded = Migrations(new_address);\n    upgraded.setCompleted(last_completed_migration);\n  }\n}\n",
  "sourcePath": "/home/cesar/master/DappPrincipal/truffle/contracts/lib/Migrations.sol",
  "compiler": {
    "name": "solc",
    "version": "0.5.1+commit.c8a2cb62.Emscripten.clang"
  },
  "schemaVersion": "3.0.19",
  "updatedAt": "2020-01-15T19:51:20.125Z",
  "networkType": "ethereum",
  "devdoc": {
    "methods": {}
  },
  "userdoc": {
    "methods": {}
  }
}